:020000041000EA
:4000000000400208310100100D000000950100100000000000000000000000000000000000000000000000000000000091010010000000000000000091010010910100109B
:4000400091010010ED2100109101001091010010910100109101001091010010910100109101001091010010910100109101001091010010910100109101001091010010E4
:400080009101001091010010910100109101001091010010910100109101001091010010910100109101001091010010910100109101001091010010910100109101001020
:4000C00010B5064C2378002B07D1054B002B02D0044800E000BF0123237010BD983600080000000064DC0010084B10B5002B03D00749084800E000BF07480368002B00D15E
:4001000010BD064B002BFBD09847F9E7000000009C36000864DC0010C8070008000000007047EFF3108072B6704780F310887047FFF7F6FF72B6104C104DAC4209DA2168FB
:400140006268A368043B02DBC858D050FAE70C34F3E70B490B4A0020521A02DD043A8850FCDC094809490860BFF34F8F01F0E4FF01F02EFEFEE70000E0ED0210F8ED02100A
:4001800098360008404C00080000000808ED00E0FEE7FEE700B504207146084202D0EFF3098001E0EFF30880043004F069F8FEE710B58AB0654B1A78052A70D89300644A65
:4001C000D3589F4601F0D4FE002868D001225F4B5A7064E001F0A4FE002807D001F0A8FE002803D10222594B5A7058E001F0A0FE002854D00022554B5A7050E001F0A6FED6
:40020000002807D101F09CFE002803D103224F4B5A7044E001F09AFE002840D004224B4B5A703CE001F092FE00280DD001AC200001F068FEE388132B03D80422434B5A707B
:4002400002E00522414B5A7001F072FE002826D000223E4B5A7022E004AC200001F052FEE388132B02D90522384B5A7001F060FE002814D00022354B5A7010E007AC200096
:4002800001F040FEE388132B02D804222F4B5A7001F04EFE002802D100222C4B5A702B4B1A78062A3BD893002A4AD3589F462A4809F02CFE01F054FE244B5B78012B2ED1E0
:4002C000264801F025FE264801F026FE27E0254809F01CFE1D4B5B78022B20D16421142001F03AFE1BE0204809F010FE174B5B78032B14D164219620400001F02DFE0EE000
:400300001A4809F003FE0AE0194809F0FFFD06E0184809F0FBFD02E0174809F0F7FD0B4B19785A781A70914200D043E7134B00229A5E002A07DB1F231A401E3B9340C0227E
:4003400052000F498B500AB010BDC046B436000820AD001038AD001054AD0010102700008813000064AD00107CAD001090AD0010A0AD0010B4AD0010C8AD001008B30010FF
:4003800000E100E0F0B591B0324809F0BFFD3248822189004358DB05DA0D4358DB0B01210B409B18002BF2D12C4B1B6901241C4007AD280001F0A6FDEE880AAD280001F09E
:4003C000A1FD2F890DAD280001F09CFD6B893A003100234809F00AFD002C05D0214801F09BFD214809F002FD092009F019FD13216944012001F0B8FD002823D013246C443B
:4004000021781A4809F0F2FC2378022B1AD105AC2100062001F0A8FD21786278A378E07825796679029601950090114809F0DEFCE378A278617820786579019524790094C1
:4004400001F054FD0B4809F061FDFA20800003F0BDFEA9E7D8AD00100000664080063240F0AD00108813000000AE001010AE001014AE00106CAF001070B582B006000D004A
:4004800014001A0006AB197807AB187801960095230005F079FD02B070BDC04610B58AB0040002A805F0E6FC099B01936B469B882380089B01936B469B886380079B019394
:4004C0006B469B88A380049B01936B469B88E380039B2381029B638120000AB010BDC046F0B595B00023002400252EE01A005E00F618B1005C4E71188E6801000A31B14238
:400500000CD35E00F618B100574E71184E688E606E1CAD006F46E951F5B206E0361A5F00FF18B900504F79188E604F4E51008A18910071188F68610009198A00B21892682B
:40054000974200D21C000133DBB2484A12789342CCD3620012199300434AD3189E68444B9E422CD8434B1B69042213405A1E9341DBB2002B02D073427341DBB2002B03D0FD
:400580003D493E4803F048FE3A4CE3681B0C1B043604360C1E43E6603E2003F031FE23695B0503D53449354803F036FE314AD3681B041B0CD3603E2003F022FE30E02D4E2C
:4005C0003369F3681B0C1B042D4F3B43F3603E2003F016FE63001C19A300234AD3189868390007F0C5FD441E32698023DB0013405A1E9341DBB2002B02D063426341DBB20D
:40060000002B03D01C491D4803F006FE194BD8680004000C24040443DC603E2003F0F0FD144A5368D268120C1B0C9A420DD8114C6369144E334363613E2003F0E1FD636945
:40064000334363613E2003F0DBFD002407E0A3006A469B58187800F021F90134E4B2A542F5D815B0F0BDC046344A0008B6360008FEFF000000022640F702000028AE001077
:40068000FFFF00000808000070B5174B9B699B071BD5154D0223AB61AB69E868EC682404230C040C01345C436B698026360133436B613E2003F0A4FD6B6933436B613E2030
:4006C00003F09EFD601CFFF70BFF084B00229A5E002A07DB1F231A401E3B9340C022520003498B5070BDC0460002264040B3001000E100E0F0B5474680B4060014001D0058
:40070000130C290419431004001BA941FA22D200002307F0A3FE00230121494209E05A00D2189200414FD25DB24200D159B20133DBB23F4A1778BB42F1D323002B4309D02D
:400740004B1C07D0394C4B005A189200A2185060906041E023002B431AD04B1C18D133497B00DA1992005654DA1992008A18506090607A1C2E4B1A70002F2DD12D4A53693B
:400780000221FF310B4353613E2003F039FD23E02C4343D14B1C43D0C8B20DE0421C234B4100091889005400A218920059189B1834CB34C10130C0B27B1E9842EEDBDFB217
:4007C0001B4B1F70002F07D11A4A51691A4B0B4053613E2003F014FD164D6F686E683604360CEC682404240C6B69144A904613436B613E2003F004FD6B69424613436B61E7
:400800003E2003F0FDFC3F0C7C43A019084B1B78002B07D0FFF764FE012004E0002002E0002000E0012004BC9046F0BD344A0008B636000800022640FEFEFFFF0808000014
:4008400010B51149114802F059F800281BD10F4B00229B5E002B07DB1F21194001228A40C02149000A484250002B06DB1F2213401E3A9A401300064A136006480223036213
:40088000054905F0BBF910BD8906001040B3001000E100E000022640A0CB001010B5A22822D004D80E2855D0A12807D048E0BA2850D0EE284ED0A3282CD041E00122264BFC
:4008C0001A7000220023A120FFF714FF234B00229A5E002A3EDB1F231A401E3B9340802252001F498B5035E001221E4B1A7000220023A220FFF7FEFE184B00229A5E002ACA
:4009000028DB1F231A401E3B93408022520014498B501FE00122144B1A7000220023A320FFF7E8FE0D4B00229A5E002A12DB1F231A401E3B93408022520009498B5009E076
:400940000F2302009A431300C02A03D1B13B184000F0EAFB10BDC0467D4B000808B3001000E100E07C4B00087E4B000830B583B006AC247807AD2D7801950094FFF77CFD55
:4009800003B030BD10B50400FFF788FD200010BD10B502000023A120FFF7ACFE10BDC04610B502000023A220FFF7A4FE10BDC04610B5FFF745FF084809F0A8FA0748822155
:4009C00089004358DB05DA0D4358DB0B01210B409B18002BF2D110BD68AE001000006640F0B583B0234B9C68FF231B1B93423DD3A418204B9C601F68DC683B199C461B78A6
:400A0000DD099B0901263340002D03D1002B03D0002602E0002600E001260196002E21D080235B4219436346197006680134114BDC60FF2C01D10021D96000210BE00D4CE3
:400A4000E3680131755CFD540133E360FF2B02D10024084BDC60531E9942F0D363460360019804E000230360019800E0002003B0F0BDC046B8360008026813783F20034006
:400A80008B4208D1402319431170044A137C013313743E3800E000207047C046B836000801398900014BC8507047C0464C4B000801398900014BC8507047C046244B0008B1
:400AC00010B5FF2009F0BCF80F4B1860002304E0C218002111700133DBB2FF2BF8D10A4B00221A74DA605A609A60012409E021000120FFF7D5FF21000120FFF7D9FF01340A
:400B0000E4B20A2CF3D910BDB836000810B51F49087089600123CB600B7404311C4A1D4804F0A0FB002408E00134A4B2FA239B009C4227D8012003F063FB1549154804F022
:400B4000C9FAC303F0D411490B0014338B600123CB6000230B7404310D4A0E4804F0BCFA0B490C4804F0B6FAC303F9D40134FA239B00A4B29C4207D8012003F041FB034B97
:400B8000187D02E0002000E0002010BDD0360008F04B00080000644010B50B4B187059709B600222DA6000221A74191D074A084804F058FB0549064804F08CFAC303F9D4A0
:400BC000012003F01DFB10BDD0360008F04B000800006440F0B55F4656464D464446F0B483B04B4B28215A5E92462A215A5E91462C215A5E904638229A5C12023921585C97
:400C0000024312B21A8501315D5C2D020131585C05432DB25D8501315C5C24020131585C044324B29C853B4B1B78002B03D00022384B1A7065E0364B9E6CDF6C196A5B6A26
:400C40009F4257D801D18E4254D836B20BB25146501A70430193190007F014FB504482B292462B4F40229346BB445A46514611824A46A81A7043019907F004FB484485B214
:400C80005A4655824246A01A7043019907F0FAFA404480B25B4698823B6E52465A809D80D8807B663800643008220221FFF798FE002804D0022116486430FFF7DDFE14497D
:400CC0008A6E00238C6CCD6C12196B418A64CB64086A496A994202D804D1904202D9FFF779FF0EE00A4CE06E0021121A8B41A264E36406E00649CA6E0023B61A9F418E64C0
:400D0000CF6403B03CBC90469946A246AB46F0BDD0370008C000000810B51E220C4B1A7140212120FFF738FF0A2003F04FFA0F20FFF7ECFE082008F083FF064B1866912175
:400D40002020FFF729FFC0212520FFF725FF10BDD0360008D037000810B59A4A7023D15A072900D92CE18B00974AD3589F4601217023944AD152954B5B78002B5FD0934B51
:400D800000225A709A78082A4AD89300904AD3589F468C4B20217422995474337C325A703EE0884B20217422995474336C325A7036E0844B20217422995474335C325A703E
:400DC0002EE0804B20217422995474334C325A7026E07C4B20217422995474333C325A701EE0784B20217422995474332C325A7016E0744B20217422995474331C325A706B
:400E00000EE0704B20217422995474330C325A7006E06C4B202174229954743300225A706C49684B74338B600223CB6000230B740431694A694804F015FA0020C1E0614CAC
:400E400000227623E2526349604B04338B600123CB600B740431604A604804F003FA02227023E2520020ACE05A490B0014338B600123CB6000230B740431574A574804F0F3
:400E80002BF9032170234F4AD152002099E0514B1B7D9B0609D54B4B8021490076229952FB39063A995200208BE04A49474B08338B600123CB600B740431474A474804F000
:400EC000D1F9042170233F4AD152002079E041490B0014338B600123CB6000230B7404313D4A3E4804F0F8F805217023354AD152002066E07623334AD25A8A339A420AD0F7
:400F0000344B1C7D0621200007F0B8F9C9B2641A76232C4AD4522F492C4B0C338B600123CB600B7404312C4A2C4804F09BF906217023244AD152002043E026490B0014339F
:400F40008B60204C7623E35ACB6000230B740431214A224804F0C0F807227023E25200202FE01C4A1319187D164B39215854611C5118087D38215854A11C5118087D3B219D
:400F80005854E11C5118087D3A215854211D5118087D3D215854611D5218117D3C229954FFF718FE0634A4B200E000247623054AD35A9C42D5D300217023D152012000E089
:400FC000002010BDD03700087CAE0010C00000089CAE0010D0360008F04B00080000644010B5072008F02CFE014B186010BDC046784B000810B5174B1B78072B14D1164805
:4010000008F084FF1548822189004358DB05DA0D4358DB0B01210B409B18002BF2D100220C4B1A70012014E00D4808F06FFF0B48822189004358DB05DA0D4358DB0B012164
:401040000B409B18002BF2D1024A137801331370002010BD50380008C0AE001000006640E4AE001010B50549054804F033F880235B021840431E9841C0B210BDF04B000820
:401080000000644010B5FFF7EDFF002839D11D4B1B78002B35D01B4B5B78002B08D10122184B5A70184A1368802109060B431360144AD37BD3181B79012B02D0062B05D07E
:4010C00008E0FFF749FE002804D11AE0FFF792FF002816D00B4CE07B231800221A7101300B2107F0B5F9E1732378013B23706378002B06D00549044803F0B0FE0022014B60
:401100005A7010BD5438000800006440F04B000810B5C023DB02184205D0FFF7A3FF002801D1FFF7AFFF10BD70B5094B1C780A2C0CD81D001B7CEA181071581C0B2107F0F1
:4011400087F9297401342C70FFF79CFF70BDC0465438000870B5FFF7B3FC134C0123637006F00AFF114D124B6B64FFF7D5FDFFF737FF29000F4803F071FE002363700A208A
:4011800003F024F80C4808F0C1FE0C48822189004358DB05DA0D4358DB0B01210B409B18002BF2D170BDC04654380008F04B0008111100100000644000AF0010000066405F
:4011C00030B50E4B1A6864239B1A834214D312180A4B1A605B68002208E0084CA4688D5CE5540133642B00D1002301328242F4D3024A5360012000E0002030BD68380008D5
:4012000010B50D4B1B68834214D31B1A0A4A1360D368002208E0084CA468E45C8C540133642B00D1002301328242F4D3024AD360012000E0002010BD6838000810B56420CE
:4012400008F0FEFC064B986000225A60DA60002303E0C218002111700133632BF9D910BD6838000810B50E4B1B68834216D31B1A0B4A1360D36800220AE0094CA468E45C5E
:401280008C540133FA24A400A34200D1002301328242F2D3024AD360012000E0002010BD7838000810B5FA20800008F0C9FC074B986000225A60DA60002303E0C218002121
:4012C00011700133024A9342F8D910BD78380008E7030000F0B557464E464546E0B48EB000AFC04B1C785D78BF4B984231D8BF4B984200D35AE1BE4B984200D156E111D8CF
:40130000BC4B984200D151E103D8013B984244D03BE1B94B984200D148E1B84B984200D033E143E1B64B984200D13FE108D8B54B984200D13AE1B44B984200D113E124E1D6
:40134000B24B984200D18EE0B14B984200D1A9E01BE1B04B984200D19EE00FD8AE4B984200D1A3E004D8AD4B984200D00DE11DE1AB4BC318012B00D907E117E1A94B98420B
:4013800000D1C1E004D8A84B984200D9FDE00DE1A64B984200D0F8E008E118230822BA18D0180023C37521F0A1FE28230822BA18D0183B6B190A1A0CFB6086883E828079A8
:4013C000B874D8B28446C8B2D2B21B0E9846310A0002634618431204104343461B061843F6B209023143924A002307F037F896B2300B092107F02CF83031CBB29A463012A5
:401400000F2398461840092107F022F83031CBB29946301143461840092107F019F83031CBB298460F203040092107F011F830314B233B751E337B756E22BA750132FA7552
:40144000173A3A767B763C3BBB765346FB764B463B7743467B77B9770C23503ABA18D01806F074F8A2E0734B197802394A424A41D1B25C4B1970704808F0B8FC6F48822171
:4014800089004358DB05DA0D4358DB0B01210B409B18002BF2D189E0524B00221A7001325A7083E000224F4B5A707FE0644823F019FA002816D1624B1E79002E0DD1002367
:4014C00013E0604A11785E4A1068DA008218D279914209D00133DBB200E00023B342F0D3002302E0002300E00123002B5ED1564B1B685A6A1178090758D0524909785171B2
:40150000586A23F0B5F951E00B89122B23D16B467B608888C31DDB08DB006A46D31A9D466E46002303E00A68D25CF25401338342F9D33100FFF744FE444B00229A5E002AD7
:4015400007DB1F231A401E3B93408022520040498B507B689D463B4A137850780002184325F090F822E0384B1B684A79596A4A71586A23F041F9002818D023F0CDF9324B13
:401580001B68586A23F038F910E00100314808F02DFC2A48822189004358DB05DA0D4358DB0B01210B409B18002BF2D10D4B1B789C4203D10B4B5B789D420CD0234B002277
:4015C0009A5E002A07DB1F231A401E3B9340802252001F498B50BD460EB01CBC90469946A246F0BD883800080A40000009400000023000000110000004100000042000002F
:40160000044000000630000001400000064000000840000001500000104000000C400000EEBFFFFF0C5000000350000017500000F5260000954B000814AF00100000664037
:40164000D0000008884B0008143B000808B3001000E100E044AF001000B585B00CF09CFC164B5B78002B21D0154B5B78154AD35C002B1BD1114904310120FFF7F3FD00286D
:4016800014D010220021684608F0FCFA0B4B0433009301236A469380133313810222084903A808F0E6FA684624F0DEFF064B1B78002B01D005F0B6FD05B000BD883800081D
:4016C000884B0008A84B00088B4B000810B5FFF797FD10BD70B505000C0013292AD9FA218900200006F044FD80B2A84224D8134B5B78002B1BD1114B1B78002B17D1FA202E
:40170000800060430E4906F033FD0E4B1A681582526880B210801B685B68013058800021022005F051FE002801D10CF035FC034B187802E0002000E0002070BD8838000849
:40174000710200002401000800B583B001A813230370054B1B78437021F09EFC43425841C0B203B000BDC046884B000810B5FFF799FDFFF763FD0D4806F0D2FB002804D1B1
:401780000CF00AFC0A4805F049F90A4808F0BEFB0948822189004358DB05DA0D4358DB0B01210B409B18002BF2D110BDD51200105916001058AF00100000664001220E4BB1
:4017C0001A700E4B00229A5E002A07DB1F231A401E3B93408022520009498B50094B00229A5E002A07DB1F231A401E3B9340C022520003498B5070472339000808B3001074
:4018000000E100E000B3001010B50D4C0D49200001F074F80022A35E002B07DB1F21194001228A40C021490007484250002B06DB1F2213401E3A9A401300034A136010BD00
:4018400000B30010BD17001000E100E0114B5A6910225A615B690F3A0F4B1A700F4B00229A5E002A07DB1F231A401E3B9340802252000B498B500B4B00229A5E002A07DB1C
:401880001F231A401E3B9340C022520004498B507047C046000032402639000808B3001000E100E048B3001010B5104C1049200001F024F80F4B5A6910225A615B69002240
:4018C000A35E002B07DB1F21194001228A40C021490009484250002B06DB1F2213401E3A9A401300044A136010BDC04648B300104D1800100000324000E100E0F8B5274BFC
:401900009E2292009958083A99509B58244B1B78282B18D1234A1378013BDBB21370002B0BD11E4B20225A600021B3229200995080225A60002000F017FA194B00221A705A
:401940009A785A701BE006F0FBFB06F0E1FB144C63782078144D9A00D618F100091849004F5B0E49B526B6008F517B08B32292008B500022B2239B00CA50013020700B4BC1
:4019800000229A5E002A07DB1F231A401E3B9340C022520006498B50F8BDC0460000384010390008D800000870AF001018B3001000E100E010B51E491E4800F09FFF002864
:4019C00034D11D4B9E2292009958083A99509B58184B00229B5E002B07DB1F21194001228A40C021490015484250002B06DB1F2213401E3A9A401300104A13600D4B0022C3
:401A00009A5E002A07DB1F231A401E3B9340802252000A498B5006F093FB06F079FB064B0021B3229200995080225A6010BDC046FD18001018B300100000384000E100E0A0
:401A4000F0B557464E464546E0B44E4BFC2252009958083A99509B584B4B1F783C2F26D14A4A1378013BDBB21370002B14D1454B08225A615A600022862149005A508031B3
:401A80005A5040395A5001325A6003325A60023A5A60002000F068F93B4B00221A709A785A701A79DA70394B9A785A7058E0374B5B789846344C6378354A91465D00ED184D
:401AC000A85C43465843FF2106F0DCFB80B2E3789A461E01F31A9B004B44DB191B7E5843FF2106F0CFFBE0804D44687843465843FF2106F0C7FB80B25346F31A9B004B4437
:401B0000DE19367E7043FF2106F0BCFB2081A87843465843FF2106F0B5FB80B27043FF2106F0B0FB608106F07BFA06F0A9FA06F05FFA1849E388CB18187A124B862252005D
:401B4000985062898A18107AC6225200985022898A18117AA622520099502378013323700D4B00229A5E002A07DB1F231A401E3B9340C022520009498B501CBC90469946D3
:401B8000A246F0BD0000384014390008D900000860B0001060B1001020B3001000E100E070B52049204800F0A9FE002838D11F4BFC2252009958083A99509B581A4B0022CF
:401BC0009B5E002B07DB1F21194001228A40C021490017484250002B06DB1F2213401E3A9A401300124A136006F032FA06F018FA0E4C002586235B00E5500C3BFF3B636064
:401C000006F03EFAC6235B00E550893BFF3B636006F0EEF9A6235B00E5504B3BFF3B636070BDC046411A001020B300100000384000E100E010B5234BAE2292009958083A01
:401C400099509B58204B1B78142B1AD11F4A1378013BDBB21370002B0DD11A4B40225A615A600021CD32FF329950FD3AFF3A5A60002000F079F8144B00221A709A785A700F
:401C800012E006F02DFA06F013FA0F48027843789900CB1899000E4B59188C5C83239B000849CC50013202700A4B00229A5E002A07DB1F231A401E3B9340C02252000649A6
:401CC0008B5010BD0000384020390008DC00000868B2001010B3001000E100E010B51E491E4800F00BFE002835D11D4BAE2292009958083A99509B58184B00229B5E002B86
:401D000007DB1F21194001228A40C021490015484250002B06DB1F2213401E3A9A401300104A13600D4B00229A5E002A07DB1F231A401E3B9340802252000A498B5006F012
:401D4000CFF906F0B5F9064B0021832292009950FD3AFF3A5A6010BD351C001010B300100000384000E100E0002804D0074A13780133137003E0054A1378013B1370034AA9
:401D80001378591E8B4153707047C046DD00000810B5FFF789FDFFF737FDFFF701FFFFF709FEFFF79BFF084808F0B0F80748822189004358DB05DA0D4358DB0B01210B4047
:401DC0009B18002BF2D110BDA4B200100000664010B500F017F8002010BDC04670B50C001600002507E02178054802F015FB0128F9D101340135B542F5DB300070BDC046EF
:401E00000000664010B5314C314A3249200003F0A5FB236880221206134323602E4808F075F82A48822189004358DB05DA0D4358DB0B01210B409B18002BF2D1274808F022
:401E400065F82248822189004358DB05DA0D4358DB0B01210B409B18002BF2D162B6FEF7A7FDFFF777F9FFF781FCFFF791FFFA20800002F0ABF91A4C1A49200000F03EFD2A
:401E80000022A35E002B07DB1F21194001228A40C021490014484250002B06DB1F2213401E3A9A401300104A13600D4B00229A5E002A07DB1F231A401E3B93408022520068
:401EC00009498B50FEF75EFA10BDC04600006640B84B00087CC500106CAF0010BCB2001008B30010B101001000E100E030B583B006AC247807AD2D7801950094FEF736FD8B
:401F000003B030BD10B50400FEF73CFD200010BD10B5FEF73DFD10BD10B5FEF741FD10BD024B187800221A707047C0467D4B0008024B187800221A707047C0467C4B00086C
:401F4000014B18787047C04688380008014B18787047C0468938000810B5FFF7BBFB10BD10B5FFF7F1FB10BD10B5FFF7AFFB10BD044B00201856421E9041C0B200221A708E
:401F80007047C0462639000870B56249E0239B00CB580F2213401A00D0329200525807210A40032A05D0042A06D0002A12D15A4814E05A4A106811E01A00C032920055492C
:401FC00052581F210A40112A06D0132A04D0FA20C00103E0524801E080200002002B36D14C4BB222D2009A5801211140B125ED005A59120F032422405B591B0F1C4207D0A9
:40200000444C63591B0F03242340012B02D102E0012300E00023002B01D0002901D1032A4BD13C4BB022D2009D58AD03AD0B3D495958C904C90C9C58240E01231C4001341C
:4020400006F096F86843210006F092F835E0012B33D1304BC822D2009A5801251540C024E4001A59120F03210A401B591B0F194207D028490B591B0F03210B40012B02D1A0
:4020800002E0012300E00023002B01D0002D01D1032A12D11F4DC022D200AB587F210B40A958090A1F263140AC58240C3440584306F05EF8210006F05BF8E0239B00154A3E
:4020C000D3581B0903221340D840144C6060164B1D692D0AFC32154001351969090E013106F046F8A060290006F042F80500E06020610E4BC0180E4906F03AF820750D4B4F
:40210000E818FA21890006F033F8A061C003E06170BDC0460000264000127A00E000000800366E0184050000000021403F420F0040420F00E703000010B5234BB021C90061
:402140005A58520052085A50E02080001A583024A2431A50802252045A501C491C4A9950A021890104329950FF211A4A995081315A58920092088020C00502435A505A58FF
:402180008020000602435A505A58012082435A5000F000FAFFF7F8FE00F030F800F038F801F0A4FAB0235B055B78002B04D0B0235B055B78DBB200E02123212B03D1064B7E
:4021C0000022DA605A6010BD0000264001000200840500008C050000E00023408023024AD3580320184070470000214010B5024800F0B2FE10BDC0462839000810B5034A8C
:4022000060328021042000F02FFC10BD283A000810B502F09EF80400044800F02BFD044800F09AFD200002F098F810BD28390008CCB20010FEE7C046F0B50025002711E03A
:40224000BB00C658F3B2FF22964308E06A008A181478A419527822700135013BDBB2002BF4D10137022FEBD9F0BDC046014A024B1A60704701001180000E1F4170B586B05A
:40228000934A116808230B431360924C03E0012001F0B6FF013C8E4B1B695B0701D4002CF5D1002C01D18C4B00E00023002B02D00520FFF7BFFF894BA020C0001A580321F9
:4022C0008A4302390A431A50854990240A59854802400A510A691202120A8024640422430A610A6910400861E022920099580F208143995099582130814399509958802044
:402300000006014399500021012000F087FE0021022000F083FE0021032000F07FFE0021042000F07BFE0021002000F077FE01A86D4903000A0032CA32C312CA12C300F0FC
:40234000B5FE002802D00420FFF774FF6349674A8B588020000603438B50654800F05EFF002802D00420FFF765FF5C4C614BE158614A0A40E250E158604A0A40E250E2585D
:4023800080252D062A43E250043BE1585C4A0A40E250E1585B4A0A40802149010A43E250E258802109020A43E250494A1168564B0B401360002001F0D3FF544AA3582B43C0
:4023C000A350A3580125AB432B43A3503221002001F06EFF4E4B04214E4A9950812000011A5840490A408024A40022431A508022D200494898509858FC3CFF3C47481C5021
:40240000474C185908408826760130431851454898509858002444481C50802424011859084018514148985098580224C52000011C503F4C1859084018513E4898509858FF
:402440003D481D503D4C1859084018513C489850985842243B481C503B4E9C593B4804403B4D2C439C513B4C9C509C5803263A4C1E513A4E9C590C409C51394C9C509C5845
:402480004126C62424011E51364E9C5904402C439C51354C9C509C584026344C1E51902424011E59304028431851314898509858062430481C5030481C582140C0246401DF
:4024C000214319502D4999509B5806B070BDC0460000274020A1070002004A000000264000002140FF00FFFF50B30010087F0000400D030004050000FEFCFFFFFFFF00FFAD
:40250000FFF0FFFFFF8FFFFFFFFCFFFF0C050000000001400C0C000004FF0080140C00001408000005FF00804C0C000000FF00800808000002FF0080540C000004080000A8
:4025400001FF0080580C000008090000FF0000FF004A4C0042FF00805C0C00000C08000003FF00800409000041FF0080640C000040FF0080680C00001808000006FF0080FE
:4025800010B50A00002107F07DFB10BD10B507F070FB10BD70B58EB09621002001F088FE01F05EFE002801D101F04AFE012001F075FC6A4A516C6A4B0B40E82189010B43F5
:4025C0005364536C1B0AFF2213403A2B07D1634A516C644B0B40E82189010B4353643422002101A807F04EFB5F4C01AA0021200001F050F93422002101A807F043FB01AA62
:402600000121200001F046F9FFF738FE574A584B1A6000240CE0620012195300554AD318198B9A8AD88A00041043FFF7A9FF01340B2CF0D900240AE06200121993004D4AAB
:40264000D3185A6E196ED86DFFF7A0FF0134112CF2D9494D2900343128005030FFF7ECFD0F22464B1A60464A464B1A600122464B1A600232454B1A60454A116806230B439C
:40268000136001AC22002B005C3323CB23C223CB23C223CB23C22100334801F065FA3D4D23002A0043CA43C343CA43C343CA43C32100394801F058FA22002B00243343CB12
:4026C00043C243CB43C243CB43C22100334801F04BFA22002B00483343CB43C243CB43C243CB43C221002E4801F03EFA22002B006C3323CB23C223CB23C223CB23C2210096
:40270000284801F031FA24220021200007F0BAFA0823E3602100244801F026FA234D22002B00103343CB43C243CB43C243CB43C221001F4801F018FA22002B00343323CB69
:4027400023C223CB23C223CB23C22100194801F00BFAFFF78BFD0EB070BDC04600002740FF00FFFFFFC5FFDF000032400300FA05F001214050B3001050B400100000644050
:402780000701010000026440047934400879344000793440D0B40010800032408002324000033240800432400005324050B50010800532408006324010B583089A00801AB3
:4027C000C000FF228240D44381400A40072B32D89B001949CB589F46184B196A0C4022431A6228E0154B596A0C4022435A6222E0124B996A0C4022439A621CE00F4BD96A80
:402800000C402243DA6216E00C4B196B0C4022431A6310E0094B596B0C4022435A630AE0064B996B0C4022439A6304E0034BD96B0C402243DA6310BDD8BE00100000214011
:4028400083089A00801AC100FF228A40072B2BD89B001748C3589F46164B186A1040C84023E0144B586A1040C8401EE0114B986A1040C84019E00F4BD86A1040C84014E072
:402880000C4B186B1040C8400FE00A4B586B1040C8400AE0074B986B1040C84005E0054BD86B1040C84000E00020C0B27047C046F8BE00100000214070B504000D000B4B3E
:4028C0009A680B4B9A420BD1002903D1FC21094801F0A2FC1034064BA400E058E55003E01034A400044BE05870BDC04600ED00E00000000818BF001000000010F0B583B0FF
:40290000041E019150D04368032B03D93621294801F082FC0023E05E002802DBA178FFF74BFF0023E25E6368002A12DB9008224EC0308000875903210A40D200FF252900EE
:4029400091408F4399012B000B4093403B43835117E092B20F21114008398908063189001648844661444E6803200240D200FF2738009040864398013B0003409340334320
:402980004B600E4B9A680E4B9A420FD1019B002B03D14521074801F03FFC0023E05E0199FFF78AFF002002E0064800E0002003B0F0BDC04618BF001000E100E000ED00E0DB
:4029C000000000080100560070B504000D000369002B0ADA0B0C03D00549064801F01CFC2D042D0C6560002000E0034870BDC046B30200005CBF001001008A0070B50500F6
:402A00000C000368002B01DA002300E0084B002B0BD1EA60230C03D00649074801F0FCFB2404240CAC60002000E0014870BDC04601008A009A0200005CBF001070B505008E
:402A40000C1E03D19921064801F0E6FB2B69002B03DAEB682360002000E0024870BDC0469CBF001001008A00F8B504000E0015000F283FD8002A10D100290ED10F2804D950
:402A8000AA21FF31214801F0C7FB6401204B9C466444204B1C60002037E0002D2CD0002E2CD0F3062CD10F2C04D9AA21FF31174801F0B2FB6401164B9C466444154F3C60DE
:402AC0007E60BD60F2080021280007F0DBF800212000FFF779FF3A0001CA0021FFF78EFF00280FD10B4B18680021FFF76DFF00280AD10AE0084808E0074806E0064804E089
:402B0000054802E0054800E00448F8BDDCBF001000002340B83A000803018A0001018A00F0B583B00D001C4B1B68DC68236883422DD947097B01C01A012383401E000029D9
:402B400003D101F006FC019001E000230193124B18680368002B01DA002300E00F4B002B0ED16368BF00DF193B68334203D133433B60002400E00A4C0021FFF725FF00E0BC
:402B8000084C002D04D1019801F0E7FB00E0064C200003B0F0BDC046B83A000801008A00020188000301880004018A00F0B583B00D001C4B1B68DC68236883422DD94709B7
:402BC0007B01C01A012383401E00002903D101F0C0FB019001E000230193124B18680368002B01DA002300E00F4B002B0ED16368BF00DF193B68334203D0B3433B600024D1
:402C000000E00A4C0021FFF7DFFE00E0084C002D04D1019801F0A1FB00E0064C200003B0F0BDC046B83A000801008A00020188000301880004018A000A4B1B68DA68136896
:402C400083420BD943095901401A0121814052689B009B580B4203D0034802E0034800E003487047B83A00080101880004018A0000018800034B1B68002B01D1014B1860D8
:402C80007047C046C43A0008F0B5474680B404000F0090461E002B4B1B68002B03D1B421294801F0B9FA072C03D9B521264801F0B3FA244B1B682C2060431C18FF221500C6
:402CC00035402560330A13406360330CA3600F2D04D9AA21FF311D4801F09EFA6B011C4A94466344236165680F2D04D9E2214900164801F091FA6D01164B9C466544656140
:402D0000A668330C04D0F1214900104801F084FA330C04D0E421FF310C4801F07DFA3604330C1E43AE604346E36127620023A361069B002B02D000229B5EA38104BC904674
:402D4000F0BDC046C43A00081CC00010DCBF00100000234000102340F0B58FB0041E03D150212E4801F058FA6368032B03D952212A4801F051FAE36A002B03D15621274801
:402D800001F04AFAE368072B03D95721234801F043FA236A072B03D95821204801F03CFA236B002B03D159211C4801F035FA07AA1300210061C961C321C921C302AD29006D
:402DC00023001433C1CBC1C141CB41C10821535E0CAE3380079B1933B370089B0D930B9B0A980096A26AE16AFFF74EFF2B69E868002200920021FFF747FF216B3000FFF793
:402E00007DFD0023F25E002A05DB1F231A401E3B9340034A13600FB0F0BDC0461CC0001000E100E0F8B504000F0016001D00002A03D1FD21284801F0EFF9284B1B68002B7B
:402E400003D1FE21244801F0E7F9072C03D9FF21214801F0E1F9072F04D9802149001E4801F0DAF91D4B1B682C2120004843181879435918012213004C68A3401B044468C0
:402E8000A24014000269002A20D08F69002F1FD11268002A01DA002200E0114A002A19D132681204120C134333600369DE6001238B614D620569230C03D00A490A4801F06A
:402EC000ABF92204120CAA60002004E0074802E0074800E00648F8BD1CC00010C43A000801008A009A020000DCBF001004028A0007028A0070B504000D001600134B1B6865
:402F0000002B04D16221FF31114801F085F9072C04D9B12149000E4801F07EF90B4B1B682C2060431C18236A002B04D1B3214900074801F071F9E369B34204D9236AB6007C
:402F40009D51002000E0034870BDC046C43A00081CC000100A028A0070B582B0040000230193002804D1EA2149002B4801F054F92369002B04D1D621FF31274801F04CF9F1
:402F80006369002B04D1EB214900234801F044F9236A002B04D1D821FF311F4801F03CF96269D5682B0C1FD01B041360136820690369002B18DA01A9FFF740FD00280ED1E3
:402FC000019803681E0CFF221340E269934207D29B00226AD358002B02D0984700E0002631002069FFF7F0FC2D042D0C0FD063691D601B68636A002B03D0984700236362BF
:4030000003E0A36A002B00D098470023A36163691B6802B070BDC0461CC0001004281DD8042904D94B1EFF3B9BB2132B18D8FF290CD91F2319400B4A0300C0339B009950BF
:40304000D03080000423835000200AE007231940D0308000034BC150002002E0024800E0014870470000264001004A0010B50400042804D91621FF310A4801F0CDF8230029
:40308000D0339B00084A985807231840042807D1C034A400A3581B30184080235B00184310BDC0465CC000100000264070B5041E04D1E221FF314C4801F0AEF8B023DB008E
:4030C0004A4AD358002B01DB002500E0484D002D00D086E0474B22689A4204D9F8214900414801F099F823689B03990BE3791B068022520413400B43B022D2003B498B50E5
:40310000A2883D4B9A4204D9F821FF31364801F083F82289394B9A4204D9FC214900324801F07AF8A388DB04D90C23891B04344A13400B43334A2D498B50A37A0F2B04D9EB
:40314000FF214900284801F067F8E37A0F2B03D92A49254801F060F8A289274B9A4204D980218900204801F057F8A37A0F211940E27A1201FF2313400B43A28912022249E0
:403180000A401343A27B1207C02189050A401343B122D20015498B50A379072B04D982218900114801F038F8228A144B9A4203D916490D4801F030F80C4815494658154B3B
:4031C0001E40A3791B02E022D2001340334343504658114B1E40238A1B04094A134033434350280070BDC0465CC000100000264003004A00FFFF0300FF1F0000FF010000DC
:403200000000FF018405000000FF1F00090200008C050000FFF8FFFFFFFF00FE70B505002D492E4A8B588020000603438B502C0003E0012000F0E4FF013CB223DB00264A38
:40324000D3585B0701D4002CF3D12349B122D2008858234B03408020800503438B50002D02D00ED0002C0CD01B49B022D2008B588020000603438B5003E0012000F0C0FFCA
:40328000013CB223DB00144AD358DB0701D4002CF3D1002D0ED0002C0CD10F4AB021C90053585B005B0853500C4953585B005B0853500BE0084B0221B222D2009950B121BB
:4032C000C9005A58C020800502435A50002C01D1044800E0002070BD000026408C050000FFFFFFCF02004A00F0B5474680B45B4B98426FD89A4274D8594B994278D8012430
:40330000584B1C70FF2806D80E3404400F250F239C46072021E0544B984206D80F2630400F2500239C46002417E0030A0F2633404E4CA04208D80001F03630401843FF25EC
:4033400000239C46002408E00002F026360130401843474D00239C460024FF2A10D81201FF231A401443E022D202024316000F3B62461A439446F0273F032F4300203DE00C
:40338000394B9A4208D81204F0273F033A40104306002F43002031E0160A3604F0231B031E403043314B9A420AD81205F0231B041A4010430600FF273F042F4300201DE05E
:4033C0001206F0263605324010430600294F2F43002013E0002700239C460026002426480CE0002700239C4600260024224805E0002700239C46002600241F4800282AD107
:403400001E4B1B68002BFBDA164B5B78002B04D01B4B1C4AD358002B19DA1B4A1B4B1A601B4A1C4B1A60174BA322D20090469D58624695432C4342469C50174C1A59BA43D3
:4034400032431A51074A51600D4A995000E0134800220A4B5A6004BC9046F0BD0F060000FFFFFF00C83A0008FF040000FF0500000F0F000000000F0F01004A00E00023408E
:403480001C050000000026401F1F0000080126403D3D0000040126401405000003004A0070B582B000220023009201932C4B1A702C4B1B68002BFBDA2B4B1A682B4B9A4286
:4034C00006D12B4B1A682B4B9A4203D0002502E0002500E00125A423DB00274AD4582402220A0023009201931E4B00225A60002D2DD0009A019B1A4329D0002815D1184B60
:4035000058680A000023002104F0C8FF009C019DEE07620832436B0880185941009A019B04F09CFF0090019115E0009A019B0800002104F0B3FF0A4B5A685408002500197D
:403540006941002304F08AFF0090019103E000220023009201930098019902B070BDC046C83A0008E0002340080126401F1F0000040126403D3D000000002640F0231B0601
:40358000C3180F4A934201D8580A18E0EC231B06C3180C4A934204D85B0A8020400218430DE0EA231B069C466044064B984204D8400A80229202104301E001204042704765
:4035C000FFFF0F00FF7F000010B50400FFF7D6FF431C03D0E40503D0002002E0002000E0012010BD214B984230D00ED8402831D004D800281FD010282AD031E080282BD060
:4036000080235B00984229D02AE0194B984229D007D8A0231B0698420DD0164B984212D01EE0154B98420AD0144B984209D0144B984215D101E0002016E0124814E01248FF
:4036400012E0124810E0A020C0030DE007480BE00F4809E00F4807E00F4805E0034803E00E4801E0A420C0037047C04606005200010000F0090000A0040000F0050000F026
:40368000030000F0010052000200520003005200010050000200500005005200FF00520010B50C4B1B69002B11DB0B4B1868FFF799FF0121094B0A4AD150084B084AD358FA
:4036C000002BFAD1074BD358002BF6D100E0064810BDC04600002340D43A00080C040000000025408C0400000200500010B5022202490020FFF7FEFB10BDC046210800084D
:4037000070B504000D00FFF75FFF002827D0002D27D0FEF739FC144B144A1A6000225A609C60DD60124B19691A69120AFF2313405A1C0B0E013353430E4C5C430E4B186828
:40374000FA21890004F014FD0100200004F010FD0A4BC1188020400007F0DAFA02E0084800E0074870BDC046D43A00080001000500002140C0EA2101E4000008482600006E
:403780000600520010B5FFF78BFF10BD10B50400FFF71AFF00282AD0FEF7F6FB154BE02252051A601A68802149000A431A605C6000229A60DA60104B19691A69120AFF23A9
:4037C00013405A1C0B0E013353430C4C5C430C4B1868FA21890004F0CBFC0100200004F0C7FC084BC118002007F092FA00E0064810BDC046D43A00080000214060F59000EC
:40380000E4000008980800000600520070B504000D00FFF7D9FE00282ED0002D2ED0FEF7B3FB174BC022D2041A601A68802149000A431A60832252005A609C60DD60114BA0
:4038400019691A69120AFF2313405A1C0B0E013353430D4C5C430D4B1868FA21890004F087FC0100200004F083FCE1239B00C118002007F04DFA02E0054800E0044870BD7C
:40388000D43A000800002140808D5B00E400000806005200F8B506000D001400002800D142E1002A00D141E1072903D93921A04800F0B2FC2368012B03D93A219C4800F02A
:4038C000ABFC0F2362689A4303D03B21984800F0A3FC237A1F22934303D03C21944800F09BFCE368032B03D93D21914800F094FC2369012B03D93E218D4800F08DFC63694A
:40390000012B03D93F218A4800F086FCA369012B03D94021864800F07FFCE369032B03D94121834800F078FC236A012B03D942217F4800F071FC636A012B03D943217C482D
:4039400000F06AFCA36A012B03D94421784800F063FCE36A032B03D94521754800F05CFC236B072B03D94621714800F055FC2768072D03D96F49704800F04EFC012F04D953
:40398000BA2189006C4800F047FC002F03D10123AB40736002E00123AB40B3606768072D04D9E4218900644800F036FC0F233A009A4303D06149604800F02EFCAA00B36A48
:4039C0000F210800904083430F4097401F43B762277A072D03D95A49574800F01DFC1F233A009A4303D05749534800F015FC564BF318DB09554A944663441B01032D0BD815
:403A00001A68E8001F2181408A4311001F223A4082400A431A600BE0291F5A68C9001F208840824310001F223A408A4002435A60E768082D03D946493F4800F0EDFB032F5B
:403A400003D944493C4800F0E7FB6A00736A03210800904083430F4097401F4377622769082D03D93C49344800F0D6FB012F04D9CA21C900304800F0CFFBB3690122110077
:403A8000A9408B431740AF401F43B7616769072D03D93249284800F0BFFB012F03D93049254800F0B9FBF26A01231900A9408C468A431F40AF401743F7626F001037032188
:403AC0000800B84062461043326B8243A0691840A8400243E0690140B9400A433263706BFF2294469043276A1F40636A5A00022313403B43A26A9100042739400B431F0012
:403B0000E36AD900182319403B000B43226B520161460A401343AD00FE2292001540AB4003437363002002E00E4800E00D48F8BDE4C00010E702000024C1001091030000F8
:403B400045020000460200000000CEBF00100304D4060000D50600004F060000D2030000D303000001005A0070B505000C00002848D0002948D0FF230A689A4303D08D2159
:403B8000224800F049FBFF2322699A4303D08E211E4800F041FBA3685B0D03D08F211B4800F03AFB63685B0A03D09021174800F033FBE3695B0F03D09121144800F02CFB6C
:403BC000236A5B0F03D09221104800F025FB104BEB18DB090F4A944663441B0122682A60E268AA622269EA6262692A63A2686A626268AA61A2696A63E2691A60226A5A6081
:403C0000002002E0044800E0034870BDE4C000100000CEBF0010030401005A0010B5074A074813580F24A34302210B43135004381358A3431943115010BDC04600002140F0
:403C400004F0000010B5074A074813580F24A34303210B43135004381358A3431943115010BDC0460000214004F000000449054A8858054B0340C020C00103438B50704798
:403C80000000214004F00000FF8FFFFF0449054A8858054B03408020C00103438B5070470000214004F00000FF8FFFFF10B5002000F070FBB0235B055B78002B04D0B023E2
:403CC0005B055B78DBB200E02123222B03D8002803D1013002E0012000E0002010BDC04610B50400002000F055FB00280AD114498A69144B1A40240680235B041C401443A1
:403D00008C611BE0002C01D00F4A00E00F4A01210F48FEF773FE00280DD10D4B1B69002BFBDB0B4BDB681B0E1B06A0221206934203D0084802E0074800E0002010BDC04691
:403D400000F02540FFFFFFFE0101003001000030000023400400420070B50400022805D0052803D02349244800F056FAFFF79EFF00283CD000F0EDFA0600022C10D10120D3
:403D8000FFF7AEFF051E18D1FFF748FF1B494B6907229343043A13434B61FFF767FF0CE016494B6907229343043A13434B61C82000F026FAFFF76AFF0025002D13D10F4941
:403DC0004B69072293431A000723234013434B61052C08D1C82000F013FAFFF733FF0020FFF77EFF0500300000F0B7FA00E0044D280070BD3706000064C100100000264089
:403E00000300420010B50400012803D90D490E4800F002FA002C03D10C4B5869C00F00E00020012C0CD1094B9B695B0005D4074B9B69002B03DA012002E0012000E00020D8
:403E400010BDC0469C06000064C100100000264070B504000D00072803D90D490D4800F0DBF90D4B9B690722134021009C420DD0094882690726B243344014438461002D93
:403E800004D0994202D9C82000F0BAF970BDC046FC06000064C1001000002640F8B50500012804D9EA21C900294800F0B5F9FFF7FDFE002848D000F04CFA0700002D17D1FF
:403EC000E823DB00B0225205D65CF6B20120FFF707FF041E1FD1FFF7A1FE1E481E4943581F229343143A13434350FFF7BFFE12E01A4BB0225205D65CF6B2164816494358FA
:403F00001F229343143A13434350092000F078F9FFF7BCFE0024002C12D10E490E4A8B581F20834306401E438E50012D08D1163800F066F9FFF786FE0020FFF7D1FE0400A3
:403F4000380000F00AFA00E0054C2000F8BDC04664C10010000026401CFF0000410700000300420070B5040000F0F3F9002C05D01A4B1B681F2B03D9002502E0002500E0A6
:403F80000125002D25D0E368002B1FD02368002B1ED0124B59680B00002203E0A34204D01A005B69002BF9D100E00025002D10D0002902D1094B5C6000E05461226100239D
:403FC0006361064A13680133136002E0002500E0002500F0C2F9280070BDC046E43A000870B5040000F0B5F9174B1A68002A25D059680B0002E0A34204D05B69002BFAD168
:40400000002500E00125002D19D0A14207D14B69002B0CD00C494B600021196107E019695C694C615969002901D01B690B61013A054B1A60002A02D15A6000E0002500F0F6
:404040008CF9280070BDC046E43A000870B584B005000E00042803D929492A4800F0DCF8731EDBB2012B07D9042E05D0082E03D02549244800F0D0F8042E01D0012E1DD132
:40408000224B5C68002013E023799D420FD1A368002B01D01E420AD1E36801A85A6842609B688360067023689847184B9C606469002C23D0164B9842E6D11FE0134B9C6863
:4040C000022E02D1002C00D02469002011E023799D420DD1A368002B01D01E4208D1E36801A85A6842609B6883600670236898472469002C02D0064B9842E8D104B070BD1C
:404100009508000064C1001096080000E43A0008FF00420070B50500012804D94E21FF311B4800F079F81B4B1B68002B05D001210020FFF78BFF040000E00024002C20D145
:4041400000F007F90600134B1B68002B03D004210020FFF77BFF104A136904218B431361012D01D030BF00E020BF300000F0F5F8084B1B68002B09D008210020FFF766FF40
:4041800004E002210020FFF761FF044C200070BD64C10010E43A000800ED00E0FF00420010B500F0D6F8074B5A6807490A40E824A40122435A605A68114059605B6800F0FC
:4041C000CCF810BD00002640FF00FC0F10B5040006E0084B186800F0B3F8074B9C46644480231B029C42F4D8044B1868604300F0A7F810BDFC0000080080FFFFF80000080B
:4042000010B5034B1B78584300F09AF810BDC046F400000801BEFEE770B50D00044C18220100200005F08EFEA5610020FFF7F2FF180B00080122014B9A607047000025402D
:40424000054B802212069A649B6C002B01DB002000E002487047C0460000274003004600054B8022120198585B68FF221A4202D08023DB021843704700002640FEE7C04687
:4042800010B50A4B0268DA6142681A6282685A62C2689A620269DA6242691A6382695A63C2699A63FFF7EAFF10BDC046180B0008F0B5002801D0192200E064228A429241F3
:4042C00052421C4BE8256D005C590327BC433A4014435C515C59184E34405C51D03D5C59BC4322435A515A5916405E51002805D010290DD921290DD8012014E01D290BD99E
:404300003A290BD957290BD978290BD803200AE0002008E0022006E0002004E0012002E0022000E00420054A13680F218B4303431360F0BD00002140FFFCFFFF0000254017
:404340000230800803D001300238FCD1C046C0467047EFF3108072B6704780F310887047042805D1094A116804230B4313600CE00006C0239B04184090239B00044AD05064
:40438000024A136804218B431360704710E000E00000214010B504000F2803D9E4210548FFF73AFFA402044B9C46644423680F20184010BDA4C100100040244030B5C0234C
:4043C0009B00C3580F242340072B07D900230FE0D024A4000459CC54013300E000239342F6D307E05C00D025AD0045590D5301339342F7D330BDC04610B51400C2239B0061
:40440000C358DB05DB0D9A4200D31C002200FFF7D5FF200010BDC04603681B0501D5802200E0402282239B00C358DB05DB0D934204D090239B00C150012000E000207047A7
:4044400030B580239B00C3580F242340072B07D900230FE0CD5C9024A4000551013300E000239342F6D307E05C00655A9024A400055101339342F7D330BDC04610B5140049
:4044800003681B0501D5802200E0402282239B00C358DB05DB0DD31AA34200D81C002200FFF7CEFF200010BD03E090239B00C150013A002AF9D1704710B5140003681B0570
:4044C00001D5802200E0402282239B00C358DB05DB0DD31AA34200D81C002200FFF7E4FF200010BD10B54A68394B9A4230D1C2239B00C358DB0516D00A6A402313430B625E
:404500000B78002B0CD0C1239B00C258802464022243C250C4582F4A2240C250C35802E0D0239B00C3580A6A202313430B620B6A102293430B62026E274B13400366002204
:40454000264BC250083B0132C250C3581F3221E08224A4000359DB05DA0D0359DB0B012423409B180A6BD21A4A630A6A120705D4CA6AD218CA628A6AD31A8B620A6A0423B2
:4045800013430B620B6A012293430B620022144BC2501032134BC4580223FF331C420ED003685B005B08036000238366C36603688024240623430360036840231A438023EA
:4045C0005B054B604B6C002B01D01000984710BD01100000FFFFFEFFFF5FFFFFC80F0000880F00004C0F000010B51C4BC3589A071DD5F02212010224845084588258520708
:4046000002D58020800301E0802040038A6802438A604868B8225203904208D00A7B002A02D0C022520301E0B02252034A60DA0504D58A688020000402438A60DA0704D571
:404640008A688020C00302438A601222FF32134202D0C0235B034B6010BDC0460C0F000000230B4A83500B4A8350836E002B04D01822FF32084BC25008E01422FF32064B7D
:40468000C25018238366B8235B034B607047C046C80F0000880F0000080F000070B53F4BC458026E3E4B1340036600233D4A83503D4A83503D4A8350F0231B011822FF3253
:4046C000C250C3588A683A4B13408B604B7B002B02D08B69CB610CE08D698226B6008359DB05DA0D8359DB0B012633409B18EB1ACB610223FF331C421ED0036E9B0F032BE6
:4047000006D10233FF331C40631E9C41E4B200E00124002C0CD003685B005B08036000238366C36603688022120613430360036880235B054B601BE00B78002B10D0C123B9
:404740009B00C258802464022243C250C458184A2240C250C358FC231B010122C250C3580B7B002B01D0134B01E080235B054B604A6C002A10D04B7B002B02D08024E402EF
:4047800001E08024A4028868F8235B04184001D0802000032043904770BDC0460C0F0000FFFEFFFFC80F0000880F0000080F0000FFFFFEFF0000101070B505000C002423F8
:4047C000CB5C002B10D1CB6A002B0DD14B6C002B01D008209847E36A5A425341DBB22422A354233A314BEA502423E35C002B16D06378002B06D02B681B0501D5802202E0B4
:40480000402200E00122FF212800FFF755FE236BC0182063226A08231343236244E0E26A012A13D96378002B01D0013A00E00122A16A2800FFF722FE236BC3182363E36AE6
:404840001B1AE362A36A9C466044A06282239B00EB58DB05DB0D802B26D0E36A012B23D1FFF777FDA36A1A7890239B00EA50F8231B014026EE50EB58FFF76FFD236B0133FD
:4048800023630023E362A36A0133A362074BEE506378002B08D0226A022313432362636C002B01D00420984770BDC046880F000070B505000C004A68A8235B039A4203D171
:4048C000C0235B034B6059E04A68A0235B039A4254D14A69012A13D94B78002B01D0013A00E0012221692800FFF7C8FDA369C318A36163691B1A636123699C466044206148
:4049000082239B00EB58DB05DB0D802B15D06369012B12D1FFF71DFD23691A7890239B00EA50F8231B014022EA50EB58FFF715FDA3690133A361002363616369002B1DD1DD
:40494000237B002B06D040220D4BEA50A8235B03636005E000220A4BEA50B0235B0363606378002B0AD0A368802292021343A360636C002B02D080204002984770BDC046F4
:40498000880F000070B504000D008A6C002A2ED00368DB0305D5504BC3585B0603D5022002E0002000E00020236E1B0506D44A4BE35880210B4000D001231843002818D030
:4049C0009047FC231B010122E250E358002809D1F4231B010F32E250E358D222FF323F4BE25007E0C222FF323C4BE25002E0002000E0002081239B00E258802149020A43E8
:404A0000E250E158364A0A40E250E358002801D1012300E00223E36600285BD1636E10261E406B6C002B05D0002E01D0013000E002209847002E0DD02A4B6B602B6A0122C4
:404A400013432B626B6B2B6300212423E954264BE2503FE0254B6B602A6A102313432B620122234BE2502B78002B1AD0EB6B002B19D0236E8022920113432366ED6B802D14
:404A800005D92B00803B802B0FD8813D0EE0013D236E80221202134323660022144BE25004E0002502E0002500E03F2523681B0501D5802300E040239D4203D30D490E48C1
:404AC000FFF7AAFBC1229200A358FF218B430D401D43A55070BDC0464C0F0000480F0000FFFFFEFF02100000880F000001100000C80F00005E020000E4C1001070B505006B
:404B00000C004B6888225203934204D09022520393421DD069E0D0239B00C3580A6913708B6901338B614B69013B4B61002B05D00B6901330B610423836656E00B7B002BA2
:404B400002D0C0235B0301E0B0235B0363604CE04A690969FFF750FCA369C318A36163691B1A63612269944660442061012B23D82A6E1E4B13402B666369012B15D12B6803
:404B80001B0501D5802300E04023002B03D118491848FFF741FBC1229200AB58FF218B43AB5088235B0363601FE00022124BEA50B0235B03636018E0402B01D89C1E00E078
:404BC0003F242B681B0501D5802300E040239C4203D307490748FFF71FFBC12189006A58FF239A43234013436B5070BDFFFEFFFF5E020000E4C10010C80F000070B50500A2
:404C00000C00CB6B002B52D00B78002B40D0C1239B00C358FF221A400132896BFFF7ECFB236CC3182364E36B1B1AE363A26B94466044A063802B06D91A00803A802A11D8D5
:404C4000813B1C000FE02B6E8022120213432B66E36B002B01D05C1E00E000240022174BEA5000E03F242B681B0501D5802300E040239C4203D312491248FFF7CDFAC121F7
:404C800089006A58FF239A43234013436B5013E00123C3660B6CD02292008258896BCA54236C01332364E36B013BE36304E00223C3660022014BC25070BDC046C80F000039
:404CC0005E020000E4C1001070B505000C001600002800D1A2E0002900D1A1E0002A00D1A0E00B78013BDBB2022B03D94A215148FFF792FA2378022B03D14F4A954200D12A
:404D000092E0032B03D14C4B9D4200D18EE0E379002B03D0484B9D4200D089E06378002B00D06379002B03D061214248FFF774FA0323E356002B03DA62213E48FFF76CFA59
:404D40002379DB0703D563213A48FFF765FA6379002B02D08022520200E00022E379002B02D080235B0000E0002313438022120113432B60A379002B00D0002223789B07F5
:404D800013432B660822FF32C0239B00EA506378002B01D0883A00E00022C1239B00EA50E3785B00FF221340227912041343C4229200AB50214A80239B00EA50A378002BD8
:404DC00001D0402200E0012281239B00EA5000231B4AAB501B4AAB501B4AAB501B4AAB501B4AAB502378022B02D0D222FF3200E00022184BEA5063783370A3787370802384
:404E00005B0573600023B360B36133623364F3633363F3627364B36400200AE00E4808E00D4806E00C4804E00B4802E00A4800E0094870BD28C2001000006940070101004E
:404E4000C80E0000880E0000C80F0000880F0000080F0000480F00000120AA0003685B005B08036080235B054B6000238B600B627047C04670B505000C1E03D117491848C5
:404E8000FFF7CAF92B6E9B0F012B11D1154A164BE31893421AD9154A154BE318934217D9144B9C466444144B9C4213D8134814E0002C11D02A6E12090F210A402B6E19405A
:404EC00051180231200003F053F906E00C4804E00C4802E0002000E0002070BD9702000028C20010405B730020AD88FF50A9AB005059E8FF004D0EFF40555C0440420F000D
:404F0000801A0600A0860100F0B55F4656464546E0B482B007000C009046002A03D160496048FFF779F9631E5F4A934203D95F495C48FFF771F93B6E9B0F012B0CD1414669
:404F40003800FFF797FFC0229200B958584B0B40BB50584B3B679CE04346002B00D195E0002C00D194E0FA218900404603F000F90190FA218900200003F0FAF88246414624
:404F80004D4803F0F5F806004C4B9C4208D94C4B9C4209D8E1239B009B46C824E40008E0484B9B461C0004E0BE235B009B469B24A4003100200003F0DBF8050000E001356C
:404FC00033006B439C4201D90F2DF8D93100584603F0CEF8040000E00134330063439B4501D90F2CF8D92919019803F0C1F800260DE0F30703D50F2C04D8013402E00F2DF5
:4050000000D8013501362919019803F0B1F8504502D92B191F2BECD9294B984209D9C0229200BB58802189000B43BB50264B3B6707E0C0229200B9581D4B0B40BB501D4B12
:405040003B67EB1F092B03D920492148FFF7E4F83B6EF022934319006A1E1201FF2313400B433B66631F0B2B04D9A621C9001848FFF7D2F8396E0F239943621E13400B430C
:405080003B662919404603F073F802E0002000E0002002B01CBC90469A46A346F0BDC0461102000028C200103F420F0012020000FFFDFFFF13102A0000CA9A3BA08601008D
:4050C000801A06008813000003002A001305000068C200108868704770B504000D001600002903D154495548FFF796F86B68002B02D0AB68002B03D151495048FFF78CF8BA
:405100000023EB56002B03DA4E494C48FFF784F800224D4BE2507368DB0000D486E02B785B00FF32134001210B431A0080204002B0606B683361AB6873610023B361F361B3
:405140002B7B33737173F0231B011821FF31E150E35881239B00E1580143E150E0583B490140E150E358716880235B05994205D190239B00E2500223A36609E0636E9B060F
:4051800001D5092300E00123A36690239B00E2503378002B28D0337B002B25D17369012B22D9236E80225200134323667569802D01D8023D00E03F2523681B0501D5802351
:4051C00000E040239D4203D321492248FFF724F8C1229200A358FF218B430D401D43A55090235B03736014E023681B0501D5802300E04023002B03D115491648FFF70CF8DD
:40520000C1229200A358FF218B43A35088235B037360FFF79EF801220F4BE2501422FF320E4BE250FFF799F8002000E00C48D222FF32054BE25070BDA504000028C20010C2
:40524000A6040000A7040000480F0000FFFFFEFF5E020000E4C10010C80F0000080F00000220AA00F8B504000D001600002903D14B494C48FEF7D0FFAB68002B07D06B6813
:40528000002B04D1B121C9004648FEF7C5FF0023EB56002B03DA44494248FEF7BDFF0022424BE2507368DB0073D52F787F00FF231F4080214902B1606B683361AB68736107
:4052C0000023B361F3612A7B32737373F0231B011822FF32E250E35881239B00E2580A43E250E158324A0A40E250E358726880235B059A420AD190239B00E750F8231B0138
:405300004022E250E3580223A36619E0636E9B0601D5092300E00123A3667369002B0CD1FFF717F890239B00E750F8231B014022E250E358FFF711F802E090239B00E7501C
:40534000A0235B0373607378002B01D0402500E0012523681B0501D5802300E040239D4203D314491448FEF757FF81229200A358FF218B432B43A350FEF7EBFF01220F4BEC
:40538000E2501422FF320E4BE250FEF7E6FF002000E00C48D222FF32044BE250F8BDC0468705000028C2001089050000480F0000FFFFFEFFC6020000E4C10010880F0000C0
:4053C000080F00000220AA0070B504000E00354BC358DB0707D580235B014B60813BFF3B0122C250C358304BE5580223FF331D420ED0336AEA0502D58022520000E0802225
:40540000134333620022294BE25010231D430EE0EB060CD5C2239B00E358DB0507D0F36B002B04D00123224AA350204AA350214BE358DB0708D531002000FFF7DFFBFC2311
:405440001B010122E250E358EB060AD531002000FFF748F8F4231B011022E250E358124BE558C0232B420DD031002000FFF78AFAE8231B010122E250E358F4231B01BF32EA
:40548000E250E3580C4BE35841221A4208D031002000FFF791F9F8231B010122E250E35870BDC0468C0E00004C0F0000C80F0000C40F0000CC0F00008C0F000070B506004B
:4054C0000D00E0231B01C458A3070CD5836E002B06D0002383668B688022520413438B60C0235B036B60E30705D529003000FFF77BF804239C43230708D529003000FFF7C1
:40550000FDFAFC231B010122F250F358630708D529003000FFF7CCF9F8231B010122F250F3586A68C0235B039A4203D129003000FFF7B4F86A68B0235B039A4203D12900AD
:405540003000FFF78DF870BD10B54B68DB0202D5FFF7B4FF01E0FFF737FF10BDF8B505000C001600002800D1C1E1002900D1C0E1C04B984200D1BEE10B78022B03D9422156
:40558000BD48FEF749FE637B023BDBB2062B03D94321B948FEF740FEA37B002B07D0022B05D0032B03D04421B348FEF735FE2123E35C012B03D94521AF48FEF72DFE28235F
:4055C000E35C012B03D94621AB48FEF725FE2378012B06D86268083A082393429B415B4208E0A37F002B05D063685A1E062393429B415B42002B03D048219F48FEF70CFEB7
:40560000A368053B042B03D949219B48FEF704FE6369FF2B03D94A219748FEF7FDFDA369FF2B03D94B219448FEF7F6FDA37C002B0FD02378002B07D1A368092B06D1A37B88
:40564000002B05D0012304E0012302E0012300E00023002B03D04D218748FEF7DDFD874B626B1A4203D04F218348FEF7D5FD844BE26B1A4203D050217F48FEF7CDFD23783E
:40568000022B02D1A37F002B02D063685A1E00E00022237F002B02D08021490200E00021A368082B02D880231B0100E0002319430F2313400B438022920413432B60236B4A
:4056C0002A68120501D5802200E04022934203D365216948FEF7A0FDA36B2A68120501D5802200E04022934203D366216248FEF793FD636A2A68120501D5802200E04022D1
:40570000934203D367215C48FEF786FD23781B06C022920413402B64637F002B01D0402200E00022A07C002802D08023DB0000E000231A43237C002B02D08021490000E068
:4057400000210A43637C002B02D08021890000E000210A43E36A013B1B04F020000303401343627B013A07210A4013431900A27B120130231A400B001343AB64237B002B04
:4057800002D08021490000E00021E27B002A04D12378022B03D1013B02E0012300E00023002B02D080239B0000E000230B43A268013A0F273A401343C02292009446AB50CF
:4057C000FF2260691040A3691A04FF2109040A400243C4239B00EA50E26A6346EB583B4003339A4201D3102A03D97D212248FEF713FDE37F002B04D02378012B03D00023F3
:4058000002E0002300E00123002B02D08021490000E00021627B013A072313401943A27B120130231A400B0013436B64237B002B02D08021490000E00021A3685A1E0F233E
:4058400013400B432278012A02D18022520200E00022134380229200AB50FF23226B1340C1229200AB502023E35C002B0AD08021890408E000006940E8C2001092F4FFFF7C
:405880008CF8FFFF00212122A25C012A02D180235B0400E000230B432822A25C012A02D18022520200E000221343FF21626A0A4013432B65A36B0B4081229200AB50104B1F
:4058C000626B13400F4AAB50E26B0F4B13400F4AAB50002E11D0002373603360B360F3603362F36233630A4B7363002006E0094804E0084802E0074800E00020F8BDC046C6
:405900006D0B0000C80F000073070000880F0000EFCDAB000160AA0070B5002800D193E0002A00D192E053681B061D0C93689B048024E40223402B43D4682504C024A402AE
:405940002C40234314692506E024E4042C402343147F002C01D0012400E0002423430C1DA4012350D368002B06D18B01C3180933FF3300241C600EE0012B06D18B01C31885
:405980000933FF3314681C6005E08B01C3180933FF3301241C601369002B0AD18B01C3181C000D34FF34556925601133FF3394691C608B01C3181533FF3314681C60936CA3
:4059C0005C1C1BD00F25966A2E40146B2502F024240125403543946B2604F024240334402543146C2407240C25431C01FF2323402B438C0104192134FF3423600324556AB8
:405A00002540D36A1E012D3434402C43536B1D02C0239B002B402343D46BA401FF252C4023431D00536C9C000C231C402B0023438901411808002530FF300360136A39310E
:405A4000FF310B60002002E0014800E0004870BD0100B600F0B5002800D1C9E0002A00D1C8E02823D35C002B01D0012400E00024137F002B01D0022300E000231C4313691A
:405A80009B048026F6023340234394682404C026B6023440234316683406E027FF043C402343546B6500146B25432D05C027BF033D402B43946BA5002B431C00052E03D18A
:405AC000D3681B061B0C02E053681B061B0C23430C1DA40123501368062B0BD18B01C3181C000934FF34012525602933FF333F241C6027E09368002B0BD18B01C3181C0078
:405B00000934FF34002525602933FF3331241C6018E0012B0BD18B01C3181C000934FF34556925602933FF331C241C600AE08B01C3181C000934FF34012525602933FF3356
:405B400012241C608B01C3181C000D34FF34156A25600434556A25600434556925601933FF3394691C60136E5C1C1BD00F25166C2E40946C2502F024240125403543146DC4
:405B80002604F024240334402543946D2407240C25431C01FF2323402B438C0104192134FF3423600324D56B2540536C1E012D3434402C43D36C1D02C0239B002B40234380
:405BC000546DA401FF252C4023431D00D36D9C000C231C402B0023438901411808002530FF300360D36A3931FF310B60002002E0014800E00048F0BD0100B60070B505001F
:405C00000C00002873D0002973D00B7A002B03D00B885A425341DBB2002B03D02F213648FEF7FAFA637A002B03D063885A425341DBB2002B03D030212F48FEF7EDFAA379B8
:405C40001F2B03D931212C48FEF7E6FA2379032B03D932212848FEF7DFFA6379032B03D933212548FEF7D8FAE379032B03D934212148FEF7D1FA63881B0422881343EB6085
:405C8000A0790006F82252051040E3791B048022520213400343227A92000420024013431800637A9B028021C9000B401A0003001343E27A002A02D08020000100E000205D
:405CC000184363791B02C02189000B401A0003001343A27A002A01D0082200E000221343227903210A4013432B61002002E0034800E0024870BDC04628C300100100D60028
:405D0000F0B54F464646C0B483B00400894690466421006802F0B2FA0F000A21380002F027FA06010A21380002F0A8FA71187F260E406421606802F0A1FA0F000A21380077
:405D400002F016FA05010A21380002F097FA4D192D02FE21C9010D402E43637B002B1DD0237B002B02D08025AD032E438025ED032E436421A06802F081FA0F000A21380030
:405D800002F0F6F905010A21380002F077FA69180904F820400301400E4313E06421A06802F06CFA0F000A21380002F0E1F905010A21380002F062FA69180904FC208003C1
:405DC00001400E436421206902F058FA0F000A21380002F0CDF905010A21380002F04EFA69180906E020C00401400E436421606902F044FA0F000A21380002F0B9F9050172
:405E00000A21380002F03AFA69183F250D406421A06902F033FA0B000A210193180002F0A7F907010A21019802F028FA79180902F820400101400D43E069642102F01EFA48
:405E40000C000A21200002F093F907010A21200002F014FA79180904FF231B04194029434B461E604346196003B00CBC90469946F0BDC04670B5041E03D18A214048FEF71F
:405E8000CBF9FEF766FA05003E4B1B69DB070BD43C4B9B689B0707D43A4E0123B360B720FEF7AEF90023B3602800FEF756FA354B59699A697F231800084000090F2528402E
:405EC00086003018460028000840301820600E0A33401B092B409800C31858003540281860608023DB030B40581E8341DBB26373002B12D0080C1F2303401B090F26334021
:405F00009D00EB185D0030402818A06080239B030B40581E834123730BE0080C3F2303401B090F2633409D00EB185D0030402818A060090E072319402161383313401B093D
:405F40000F210B409800C31858000B001340C3186361100A1F2303401B090B409D00EB185D0008402818A061120CFF2313401B090B409800C31858000A408218E26170BD29
:405F8000B0C3001000002740F0B55F4656464D46E0B48CB083468A4691461D00149C3B2804D9DA21FF318C48FEF736F953463B2B04D9ED2149008848FEF72EF94B46172B1C
:405FC00004D9DC21FF318448FEF726F9631E0B2B04D9EE2149008048FEF71EF9159B632B04D9DE21FF317C48FEF716F9159BFA22D200944663441F00661E0B2E04D9EC2100
:4060000089007648FEF708F9754BFB18642B03D974497248FEF700F9734B9E5D022C1ED16F4BFB18642B03D970496C48FEF7F4F8BB0705D16421380002F020F9002908D1C2
:40604000C8214900380002F019F9002903D1012302E0012300E00023002B00D00136002D00D1AEE0B54200D9ADE05B46049353460593FEF76EF901905D4B1B69DB070BD42A
:406080005B4B9B689B0707D4594E0123B360B720FEF7B6F80023B3600198FEF75EF9544B5B695B0205D404AB00225A734A4606921AE0012204AB5A734B460B2B0AD90C2B6E
:4060C00002D94A460C3A00E04A4604AB069201221A7309E04B46002B01D10C3300E04B4604AA0693002313736B1E1E2B04D9D92189003A48FEF790F8631E0B2B03D93D4927
:406100003648FEF789F8364BFB18642B03D93A493248FEF781F8022C03D820000C30013F00E0200001301A2358430A2102F020F82818C019BE0886196421380002F018F8E1
:40614000430018184300F618C8214900380002F00FF83018072102F091F8002900D10731089109950A94159B0B9303AA02A904A8FFF7C6FDFEF7EDF805001D4B1B69DB074E
:406180000AD41B4B9B68DB0708D4194A916802230B439360002402E0184C00E0174C002C0BD1134B029A5A61039A9A619A6802218A439A603E20FEF723F82800FEF7CDF8DA
:4061C00002E00F4C00E00E4C20000CB01CBC91469A46A346F0BDC046B0C3001074C3001030F8FFFFB103000068C30010950300000000274065030000660300000300A200CD
:406200000100A20070B50D000F4B184300040F4BD861FA24A40003E0013C0120FDF7F0FF0A4B1B6CDB0701D4002CF5D1002C08D0064B196C01220A431A64DB6A2B800020FA
:4062400000E0034870BDC0460080FFFF00003C400400160010B500040E4B184001430E4BD961FA24A40003E0013C0120FDF7C8FF094B1B6CDB0701D4002CF5D1002C06D017
:40628000054A116C01230B431364002000E0034810BDC0460000FF7F00003C4004001600F0B583B006000A24C02149017548FFF7D1FF002804D16B46991D7248FFF7A2FF88
:4062C000002C01D0013C00E06F48002805D16B46DA88C0235B019A42E6D1002825D16B46991D6A48FFF78EFF00281ED16B4606331B885B0519D40A248021C9006348FFF706
:40630000A9FF002804D16B46991D6048FFF77AFF002C01D0013C00E05B48002805D16B46DA888023DB009A42E6D1002804D16B46991D5748FFF766FF002844D16B460633D6
:406340001B883F229343B278012A15D1F178012904D88FB20222D21B95B201E000250227402213439BB2302213436A46D380494BCB40494A136013E0F178002904D18FB2E1
:406380000122D21B95B201E00025012740229343102213436A46D380404BCB403E4A13606B469C1DD9883943D9803948FFF752FFF378DB1B03221340AA0092B213432380DC
:4063C000374A38498B50B0235B055B78002B04D0B0235B055B78DBB200E02123212B4FD0314BB0225205D35A9BB2002B48D0002804D16B46991D2D48FFF704FF002824D148
:406400006B469A1DDB8860218B4318001380B0256D05254C2B5B60310B405B08034324490B401380295BC901F020C00001400B43204919401180285BC0239B000340DB006A
:40644000194311801948FFF705FF002804D16B46991D1948FFF7D6FE002811D16B469A1DD988C023994311800F4BB0204005C05A302303409B00194311800F48FFF7EAFE46
:4064800003B0F0BD021E000004001600031E0000091E00000048E801E00000080024F40064F0010000003C4016180000071E00007FF8FFFFFFE7FFFF061E000070B50C00F7
:4064C0004000084901430848FFF7C4FE051E04D106490748FFF7BEFE05006001FDF790FE280070BD01100000081E0000376800000F1E000010B5002405E02000FCF7B6FDA3
:40650000032804D00134042CF7D9002000E0012010BDC046A023DB00064AD35803221340012B03D0032B03D1012002E0012000E0002070470000264010B59CB024220021E8
:4065400013A803F09FFB154B1693154C1894154B1A931B93242200210AA803F093FB124B0D930F94114B1193114B12932422002101A803F087FB0F4B049306940E4B0893C3
:4065800013A90E48FDF7F0FA0AA90D48FDF7ECFA01A90C48FDF7E8FA1CB010BD666666660000FFFF1C1C1C1C66E6EE661C1A1A1A1A1A000066E666661A1A001C000132407D
:4065C00080013240000232400349044A8858102303438B507047C04600003C4070F00100F8B5051E00D1C1E0644B5B689B0301D5FDF7D6FD624B634AD358DB0704D5624BF0
:40660000D358DB0700D5B3E0FFF796FF5D4B5F495F4A99502A788021C9020A435D495A505D495E4A9950802252009B58DB0700D5A0E05B4B1B6F1B0709D45A4B18685A4B7F
:40664000984206D9190001F093FD013802E0012000E000204B4B1B68002803D04003534A104300E052481843464B1860434B5B695B000ED501210320FDF7EAFB3F4B5B696A
:406680005B000CD53D4A93698021C9050B43936105E03C49474A8858032303438B50394C374AA658444B3343A3504020FDF7A8FD424BE358DB070BD42700404C01233B5167
:4066C0004020FDF79DFD03233B514020FDF798FD3B4B1E403B4B1E43294B2A4AD650FA24E40003E0013C0120FDF78AFD364B374AD358DB0601D4002CF4D1002C01D0002485
:4067000000E0334C002C23D11E49324A8858082303438B500120FDF775FB002801D108231E432D4B1E4001231E43154B154AD6502A4E03E0013E0120FDF762FD124B114ABA
:40674000D358DB0701D4002EF4D1002E00D1204C002C03D12800FFF7A3FD0400002C0AD168782978FFF7AAFE040004E01C4C02E01C4C00E01C4C2000F8BDC04600002640CE
:40678000A0F0010000003C40B4F0010006000001A4F00100A8F0010001000100ACF0010000F03D40E800000800093D00041A0080040A0080C4F0010030000300B0F00100FB
:4067C000EFFFFEFF2000020010400000000032400400160068F00100FFFFFBFFF07E0E00010016000300160002001600014B18687047C046E000000870B50378012B02D08C
:40680000082B44D049E0294B1B78012B47D00320FCF712FA264B984243D0FFF76BFE012841D0022007F0BCFB0500FDF792FD214B186007F0C2FB0400062817D0022D0AD172
:40684000022009F085FA032C01D0052C10D1002810D0194C13E0012009F07AFA022C0BD000280BD1FDF756FC134C08E0002406E0114C04E0002402E00F4C00E00E4C0E4BA5
:406880009C4211D10B4B1868FDF767FD0CE0094B1868FDF762FD002406E0074C04E0064C02E0054C00E0044C200070BD8C4B000801018800103B0008FF00420010B5024888
:4068C000FDF78EFB10BDC0460401000810B5002817D00D4B5860C36A002B01D00B4A136000240B4B1C700B4B1C700B4B1C600B4B1C7000F011FC0A4B1C700A4B1C700020EB
:4069000000E0094810BDC046103B0008844B0008A44B0008A84B0008AC4B0008A94B00088B4B0008904B00080100160070B590B00CAE102510222A49300003F09AF902AC07
:4069400028220021200003F09DF9264B0293A660254BA3810423A373244A526812692261234A62611B2222836283183A227763770233A377E5771A33E5540133E554513322
:406980006384023A4C3BE2541A48FDF7EBFA07F0EDFA08A807F07EFB00281FD1164B039302A807F01FFB002815D10122134B1A700023134A1370134A13700C4B5B681A6A5A
:4069C00000929B6ADB886A46938080235B00D380684620F0CDFC00220B4B1A6010B070BDECC30010DD77001054290000103B00086610000004010008540B00088C4B000867
:406A0000944B0008954B0008AC4B0008014B024AD050704778F0010000003C40002803D0024B1860002000E001487047804B00080100160010B5254B1B68002B2CD0244B3C
:406A40009B6E9B062AD509F09BF9224B9B685B0703D5204B1B6D9B0722D41E4B9B68DB0703D51C4B1B6A9B071CD41A4B9B689B0707D5184B9B6B1B0716D4164B9B6BDB0664
:406A800014D4144B9B681B0712D5A823114AD358DB060FD400240EE000240CE000240AE0012408E0012406E0012404E0012402E0002400E001240FF07FFE044B1B68002B74
:406AC00002D0002C00D0984710BDC046804B000800F03D4000103C4010B5002809D0FA23FF33994207D80A00044903F0C2F8002002E0034800E0024810BDC0460708001608
:406B000001001600F0B55F4656464D464446F0B4B14CA54481460E00904605930B00AF4A914204D942468A18AD498A4211D9AD4A934204D94246B218AB498A4209D9AB4A52
:406B4000934200D823E14346F318A94A934200D922E1A84B5B695B0010D5A64B5B6907241C40022C25D10520FDF7F6F80190A24B9842F8D003940123049324E09F4B9D4A87
:406B8000D3581F221A40E823DB00B0214905CB5C9B1A5A1E9341DBB20493002B0FD10120FDF77CF9944B9842F9D001900523039309E00394012304930023019303E005235B
:406BC0000393002301938E4B019A9A4204D1D621FF318C48FDF720FBF0231B069C466644730A9A465C0200210320FBF799FF0028F9D100250023029399E0B4421BD3BD42A5
:406C000019D24A4652191078804606A84146C154594600290DD1802149058846A044414609786846017001781278914201D001229346013505E080225205A218127806A8BF
:406C4000C2540134013304E0002100238B46844647466D4A9342D0D959466046B846002962D0019B002B5FD1059B002B51D1C83300951D00B3465646A24680231B03F71894
:406C80007F023800FCF782FD0400013D0120FDF7B7FAA423DB0322001A409A4201D1002DEBD122000294009D5446B2465E46574B9A4205D1FCF766FD554B9842FAD00290DE
:406CC000029B002B19D1C83300971F00A34606A90098FCF79BFD0400013F0120FDF790FAA423DB0322001A409A4204D1002FEED102945C4601E002945C46444B029A9A427B
:406D000011D1FCF73FFD424B9842FAD0029001200AE0802000035044400206A9FCF7F0FC0290012000E0012001239C46E244029B019A134301D1454586D3002801D0FDF75D
:406D400079FA00210320FBF731FF0028F9D1019B002B25D1274B5B695B0009D5039B022B06D10220FCF7F8FF0190234B9842F8D0204B1B681B0213D4049B002B10D1002010
:406D8000FDF78CF801901C4B9842F8D008E000230193204B029303E0002301931D4B0293019B002B0CD11C4B029999420AD0194B994207D0002901D1002004E0174802E0DA
:406DC000174800E0174887239B009D443CBC90469946A246AB46F0BDE4FDFFFFFFFFFF0F00001010FFFFFF1300800014FF070016000A001600002640040042001CFF0000EA
:406E000003004200FCC40010FF0100000100500002005000060052000200520013001600120016000100160010B500280AD0FA23FF33994208D8F93BFF3B0A000349FFF7FB
:406E400061FE02E0024800E0014810BD070800160100160010B50023FFF754FE10BDC04670B5C0B005000C001600802252000849684602F0FEFE05E02A7872406B469E5CD1
:406E80000135013C002CF7D1300040B070BDC046FCC3001010B50022FFF7E2FF10BDC046002070470020704710B5FDF7A9F910BD064B1B685B6B00229A5E002A05DB1F23E2
:406EC0001A401E3B9340024A13607047143B000800E100E0094B1B685B6B00229A5E002A0ADB1F231A401E3B9340802204498B50BFF34F8FBFF36F8F7047C046143B0008D2
:406F000000E100E0A023DB00024AD358032018407047C04600002640024B034AD058C00F7047C0461C0500000000264010B5FCF7B7FA10BD10B5FCF7D7F910BD70B5431AFB
:406F4000DC171B196340934227D3164B164CE458A405A40D884208D9401A51084018110001F006F9201A0ED50AE0081A51084018110001F0FDF800190C4B984202D802E091
:406F8000002000E00A48084D06496B589B0A9B028205920D13436B5001E000240020201A70BDC0463C05000000002640FE030000FF03000010B5034B1A6880210902FFF72C
:406FC000BDFF10BD1C01000810B5FFF7B5FA0220FFF71CFD094C2368586B0949FBF78EFC23685B6B00229A5E002A05DB1F231A401E3B9340034A136010BDC046143B0008B0
:40700000356A001000E100E00420704710B5FDF7A0F910BD10B5FDF7A0F910BD10B5FDF779F810BD10B50021FCF712FF10BDC0467047C0467047C0460020704700487047C3
:4070400011001600004870471100160000487047110016000048704711001600004870471100160000487047110016000048704711001600004870471100160000487047E0
:4070800011001600004870471100160000487047110016007047C04670B5002908D11D4B1B681B689C68E67F00230021002513E0184B1B681B68DC68E67FF5E7E15C0029F2
:4070C0000ED00133DBB2E25C083AD2B2012A02D9CB18DBB200E00125B34201D2002DEDD0002D15D0C918C9B20133DBB21A0001E0A55401320E008A4208D2D51A455D002DF7
:40710000F6D103E0A318002119700132B242F9D370BDC046143B000810B5024800F0EEFE10BDC046B8040008F0B5474680B4071E02D0C368012B03D9364A374B1A6063E0F2
:4071400006684368F0221206944663441D00324B1B68324A93420FD002D8002B16D105E02C4A934202D02E4A93420FD12A4BBA685A600023984640E0274B5B68002B08D138
:407180000022254B1A600123984636E00023984633E08268D31AF618ED18002398462CE06B0A5B025B1B80229200944663449C4200D91C00002322008021490569183000EB
:4071C000FFF7A0FC144B1860830301D50123984636192D19104B5A68141B5C60FB68012B09D1002805D10D4A0B4B1A600123984601E00123984606F0CFFE074B5C68002CB3
:4072000002D04346002BCBD0034B186804BC9046F0BDC04601001600243B00080100140013001600F0B5ADB05D4B1B78DB070FD505A80723037018F0D5FC041E09D1584A96
