:020000041000EA
:4000000000400208310100100D000000950100100000000000000000000000000000000000000000000000000000000091010010000000000000000091010010910100109B
:4000400091010010E52600109101001091010010910100109101001091010010910100109101001091010010910100109101001091010010910100109101001091010010E7
:400080009101001091010010910100109101001091010010910100109101001091010010910100109101001091010010910100109101001091010010910100109101001020
:4000C00010B5064C2378002B07D1054B002B02D0044800E000BF0123237010BDE0360008000000005CFF0010084B10B5002B03D00749084800E000BF07480368002B00D1FB
:4001000010BD064B002BFBD09847F9E700000000E43600085CFF001010080008000000007047EFF3108072B6704780F310887047FFF7F6FF72B6104C104DAC4209DA21684F
:400140006268A368043B02DBC858D050FAE70C34F3E70B490B4A0020521A02DD043A8850FCDC094809490860BFF34F8F02F060FA02F09AF8FEE700004C1203106412031007
:40018000E0360008944D00080000000808ED00E0FEE7FEE700B504207146084202D0EFF3098001E0EFF30880043004F03DF9FEE710B584B0C64B1A78072A00D900E19300D2
:4001C000C44AD3589F46C4480AF0D0FBC348822189004358DB05DA0D4358DB0B01210B409B18002BF2D10122B94B5A70E8E0BC480AF0BCFBB948822189004358DB05DA0DEB
:400200004358DB0B01210B409B18002BF2D102F023F9002800D1D3E00222AD4B5A70CFE0B0480AF0A3FBAD48822189004358DB05DA0D4358DB0B01210B409B18002BF2D13E
:4002400002F06EF8002802D00022A14B9A70A04B9B78002B02D002F0FFF8B1E002F058F8002800D1ACE002F0F7F8002803D00322974B5A70A4E00122954B5A70A0E09A4878
:400280000AF074FB9548822189004358DB05DA0D4358DB0B01210B409B18002BF2D102F04DF8002803D00722894B5A7088E002F03FF8002800D083E00422854B5A707FE0D7
:4002C0008A480AF053FB8548822189004358DB05DA0D4358DB0B01210B409B18002BF2D102F02CF8002803D00722794B5A7067E002F01EF8002863D102F0AEF8002803D0F4
:400300000422734B5A705BE00122714B5A7057E077480AF02BFB7148822189004358DB05DA0D4358DB0B01210B409B18002BF2D101F0EEFF002843D002F08EF8002814D0A2
:4003400001AC200001F0D6FFE3886A4A1288934207D9684A5288934203D205225C4B5A702EE006225A4B5A702AE00122584B5A7026E061480AF0FAFA58488221890043586B
:40038000DB05DA0D4358DB0B01210B409B18002BF2D107224E4B5A7012E058480AF0E6FA4E48822189004358DB05DA0D4358DB0B01210B409B18002BF2D10722444B5A70BA
:4003C000434B1A78072A00D90EE193004C4AD3589F463F4B5B78012B00D005E1FE3319220221022002F040F8FEE0394B5B78022B00D0F9E0434B08229A6018329A6020323E
:40040000414B5A60414801F07BFFFA20000101F07BFF01222E4B9A70E6E02D4B5B78012B02D0032B09D0DFE0364B08225A6018325A602032344B9A60D6E0324B08229A60F6
:4004400018329A602032304B9A602A4C2279FF230121042002F008F8E088322101F074FFC2E01B4B5B78042B05D0072B1BD0012B00D0B9E023E0234B08229A6018325A60BD
:400480002032214B5A601B4C217A022001F0F4FF227AFF230021002001F0E6FF6089322101F052FFA0E0174B08225A6018329A602032154B5A60052001F022FF94E0114BEC
:4004C00008225A6018325A6020320F4B9A608BE0FC360008C0CD001000CE00100000664010CE00101CCE001030CE001044CE001050CE0010C00000085CCE001068CE00101A
:40050000E0CD0010800232400006324010270000404B5B78042B16D0072B24D0012B63D13D4B08225A6018325A6020323B4B9A600021022001F0A0FF0023002200210620C1
:4005400001F092FF50E0364C217B022001F094FF227AFF230021002001F086FF6089322101F0F2FE40E0052001F0CAFE3CE0294B5B78052B04D0062B09D0012B34D111E0E2
:40058000002300220321062001F06EFF2CE0FF231E220321062001F067FFFF21062001F067FF21E01C4B08225A6018325A6020321A4B9A60002300220321062001F054FFCE
:4005C00001F03EFF10E0134B5B78072B0CD1144BD86801F095FE07E00E4B5B78072B03D10F4BD86801F08CFE0A4B19785A781A70914200D0DEE50B4B00229A5E002A07DB28
:400600001F231A401E3B9340C022520006498B5004B010BDFC3600088002324000063240C000000884D4001000E100E030B58DB062480AF09BF96248822189004358DB05D1
:40064000DA0D4358DB0B01210B409B18002BF2D164220F336B441A7009AC200001F04AFE638906AA52899B1ADA179B185340012B13DD0F246C442100012001F0E9FE06AAC9
:4006800009AB23CB23C22378002B02D0013BDBB200E064230F226A44137004A9072001F0D3FE0028D8D004AB1B78022B20D002D8002B05D0D0E7032B30D0052B46D0CBE70D
:4006C00040480AF053F904AA137991785078FF2201F0CAFE3A48822189004358DB05DA0D4358DB0B01210B409B18002BF2D1B3E735480AF03BF904AB9978587801F0BCFE28
:400700002F48822189004358DB05DA0D4358DB0B01210B409B18002BF2D19DE72B480AF025F90E216944FF230B70012001F090FE2348822189004358DB05DA0D4358DB0B83
:4007400001210B409B18002BF2D185E720480AF00DF904AC2379E278A1786078A57901956579009501F0BAFD1A480AF083F8217819480AF07FF8617818480AF07BF8A17830
:4007800017480AF077F8E17816480AF073F8217915480AF06FF8617914480AF06BF80848822189004358DB05DA0D4358DB0B01210B409B18002BF2D14EE7C04674CE001070
:4007C000000066408CCE00109CCE0010ACCE0010BCCE0010CCCE0010E0CE0010F0CE001014CF001038CF00105CCF001080CF001070B582B006000D0014001A0006AB197897
:4008000007AB187801960095230005F091FC02B070BDC04610B58AB0040002A805F0FEFB099B01936B469B882380089B01936B469B886380079B01936B469B88A380049BBC
:4008400001936B469B88E380039B2381029B638120000AB010BDC046F0B595B00023002400252EE01A005E00F618B1005C4E71188E6801000A31B1420CD35E00F618B1004E
:40088000574E71184E688E606E1CAD006F46E951F5B206E0361A5F00FF18B900504F79188E604F4E51008A18910071188F68610009198A00B2189268974200D21C000133A9
:4008C000DBB2484A12789342CCD3620012199300434AD3189E68444B9E422CD8434B1B69042213405A1E9341DBB2002B02D073427341DBB2002B03D03D493E4803F060FD19
:400900003A4CE3681B0C1B043604360C1E43E6603E2003F049FD23695B0503D53449354803F04EFD314AD3681B041B0CD3603E2003F03AFD30E02D4E3369F3681B0C1B046B
:400940002D4F3B43F3603E2003F02EFD63001C19A300234AD3189868390007F0D7FC441E32698023DB0013405A1E9341DBB2002B02D063426341DBB2002B03D01C491D48D6
:4009800003F01EFD194BD8680004000C24040443DC603E2003F008FD144A5368D268120C1B0C9A420DD8114C6369144E334363613E2003F0F9FC6369334363613E2003F0B9
:4009C000F3FC002407E0A3006A469B58187800F021F90134E4B2A542F5D815B0F0BDC046984B0008FF360008FEFF000000022640F7020000A4CF0010FFFF0000080800000F
:400A000070B5174B9B699B071BD5154D0223AB61AB69E868EC682404230C040C01345C436B698026360133436B613E2003F0BCFC6B6933436B613E2003F0B6FC601CFFF78C
:400A40000BFF084B00229A5E002A07DB1F231A401E3B9340C022520003498B5070BDC04600022640BCD4001000E100E0F0B5474680B4060014001D00130C2904194310047B
:400A8000001BA941FA22D200002307F0B5FD00230121494209E05A00D2189200414FD25DB24200D159B20133DBB23F4A1778BB42F1D323002B4309D04B1C07D0394C4B0047
:400AC0005A189200A2185060906041E023002B431AD04B1C18D133497B00DA1992005654DA1992008A18506090607A1C2E4B1A70002F2DD12D4A53690221FF310B43536171
:400B00003E2003F051FC23E02C4343D14B1C43D0C8B20DE0421C234B4100091889005400A218920059189B1834CB34C10130C0B27B1E9842EEDBDFB21B4B1F70002F07D1D5
:400B40001A4A51691A4B0B4053613E2003F02CFC164D6F686E683604360CEC682404240C6B69144A904613436B613E2003F01CFC6B69424613436B613E2003F015FC3F0C84
:400B80007C43A019084B1B78002B07D0FFF764FE012004E0002002E0002000E0012004BC9046F0BD984B0008FF36000800022640FEFEFFFF0808000010B51149114802F00E
:400BC000DBF800281BD10F4B00229B5E002B07DB1F21194001228A40C02149000A484250002B06DB1F2213401E3A9A401300064A1360064802230362054905F0D3F810BD9D
:400C0000010A0010BCD4001000E100E00002264068ED001010B5A22822D004D80E2855D0A12807D048E0BA2850D0EE284ED0A3282CD041E00122264B1A7000220023A120A9
:400C4000FFF714FF234B00229A5E002A3EDB1F231A401E3B9340802252001F498B5035E001221E4B1A7000220023A220FFF7FEFE184B00229A5E002A28DB1F231A401E3BDE
:400C800093408022520014498B501FE00122144B1A7000220023A320FFF7E8FE0D4B00229A5E002A12DB1F231A401E3B93408022520009498B5009E00F2302009A431300C7
:400CC000C02A03D1B13B184000F0EAFB10BDC046D94C000884D4001000E100E0D84C0008DA4C000830B583B006AC247807AD2D7801950094FFF77CFD03B030BD10B50400D9
:400D0000FFF788FD200010BD10B502000023A120FFF7ACFE10BDC04610B502000023A220FFF7A4FE10BDC04610B5FFF745FF084809F01CFE0748822189004358DB05DA0DD7
:400D40004358DB0B01210B409B18002BF2D110BDE4CF001000006640F0B583B0234B9C68FF231B1B93423DD3A418204B9C601F68DC683B199C461B78DD099B09012633404C
:400D8000002D03D1002B03D0002602E0002600E001260196002E21D080235B4219436346197006680134114BDC60FF2C01D10021D96000210BE00D4CE3680131755CFD54E5
:400DC0000133E360FF2B02D10024084BDC60531E9942F0D363460360019804E000230360019800E0002003B0F0BDC04600370008026813783F2003408B4208D14023194374
:400E00001170044A137C013313743E3800E000207047C0460037000801398900014BC8507047C046B04C000801398900014BC8507047C046884C000810B5FF2008F0CEFFD6
:400E40000F4B1860002304E0C218002111700133DBB2FF2BF8D10A4B00221A74DA605A609A60012409E021000120FFF7D5FF21000120FFF7D9FF0134E4B20A2CF3D910BDB2
:400E800000370008F0B55F4656464D464446F0B483B04B4B28215A5E92462A215A5E91462C215A5E904638229A5C12023921585C024312B21A8501315D5C2D020131585CDB
:400EC00005432DB25D8501315C5C24020131585C044324B29C853B4B1B78002B03D00022384B1A7065E0364B9E6CDF6C196A5B6A9F4257D801D18E4254D836B20BB25146F2
:400F0000501A70430193190007F08AFA504482B292462B4F40229346BB445A46514611824A46A81A7043019907F07AFA484485B25A4655824246A01A7043019907F070FA1A
:400F4000404480B25B4698823B6E52465A809D80D8807B663800643008220221FFF7FCFE002804D0022116486430FFF741FF14498A6E00238C6CCD6C12196B418A64CB64A2
:400F8000086A496A994202D804D1904202D9FFF779FF0EE00A4CE06E0021121A8B41A264E36406E00649CA6E0023B61A9F418E64CF6403B03CBC90469946A246AB46F0BD24
:400FC00018380008D000000810B59A4A7023D15A072900D92CE18B00974AD3589F4601217023944AD152954B5B78002B5FD0934B00225A709A78082A4AD89300904AD3583D
:401000009F468C4B20217422995474337C325A703EE0884B20217422995474336C325A7036E0844B20217422995474335C325A702EE0804B20217422995474334C325A7019
:4010400026E07C4B20217422995474333C325A701EE0784B20217422995474332C325A7016E0744B20217422995474331C325A700EE0704B20217422995474330C325A7058
:4010800006E06C4B202174229954743300225A706C49684B74338B600223CB6000230B740431694A694804F0B1F90020C1E0614C00227623E2526349604B04338B6001231F
:4010C000CB600B740431604A604804F09FF902227023E2520020ACE05A490B0014338B600123CB6000230B740431574A574804F0C7F8032170234F4AD152002099E0514BFB
:401100001B7D9B0609D54B4B8021490076229952FB39063A995200208BE04A49474B08338B600123CB600B740431474A474804F06DF9042170233F4AD152002079E041497C
:401140000B0014338B600123CB6000230B7404313D4A3E4804F094F805217023354AD152002066E07623334AD25A8A339A420AD0344B1C7D0621200007F04EF9C9B2641A73
:4011800076232C4AD4522F492C4B0C338B600123CB600B7404312C4A2C4804F037F906217023244AD152002043E026490B0014338B60204C7623E35ACB6000230B74043152
:4011C000214A224804F05CF807227023E25200202FE01C4A1319187D164B39215854611C5118087D38215854A11C5118087D3B215854E11C5118087D3A215854211D511869
:40120000087D3D215854611D5218117D3C229954FFF738FE0634A4B200E000247623054AD35A9C42D5D300217023D152012000E0002010BD18380008F8CF0010D000000837
:4012400018D0001018370008444D00080000674010B5174B1B78072B14D1164809F086FB1548822189004358DB05DA0D4358DB0B01210B409B18002BF2D100220C4B1A70B9
:40128000012014E00D4809F071FB0B48822189004358DB05DA0D4358DB0B01210B409B18002BF2D1024A137801331370002010BD983800083CD000100000664060D000109A
:4012C00010B52149087089600123CB600B7404311E4A1F4804F09AF8002408E00134A4B2FA239B009C422AD8012003F05DF81749174803F0C3FFC303F0D413490B001433C2
:401300008B600223CB6000230B7404310F4A104803F0B6FF0D490E4803F0B0FFC303F9D40134FA239B00A4B29C420AD8012003F03BF8054B187D00025B7D184302E00020FB
:4013400000E0002010BDC0469C380008444D00080000674010B50C4B18700A0A5A7099709B600322DA6000221A74191D074A084804F04CF80549064803F080FFC303F9D439
:40138000012003F011F810BD9C380008444D00080000674010B544220B4B1A717F20FFF78FFF0A4B984202D0012002F0FDFF08490220FFF7CFFF07490320FFF7CBFF06492F
:4013C0000120FFF7C7FF10BD9C38000801300000451A00009A3300000ACC000010B50549054803F04BFF80235B021840431E9841C0B210BD444D00080000674010B5FFF7CB
:40140000EDFF002839D11D4B1B78002B35D01B4B5B78002B08D10122184B5A70184A1368802109060B431360144AD37BD3181B79012B02D0062B05D008E0FFF7C5FD002891
:4014400004D11AE0FFF704FF002816D00B4CE07B231800221A7101300B2107F0C7F8E1732378013B23706378002B06D00549044803F0C8FD0022014B5A7010BDB039000807
:4014800000006740444D000810B5C023DB02184205D0FFF7A3FF002801D1FFF7AFFF10BD70B5094B1C780A2C0CD81D001B7CEA181071581C0B2107F099F8297401342C7041
:4014C000FFF79CFF70BDC046B039000870B5FFF7B3FC124C0123637006F01CFE104D114B6B64FFF757FF29000F4803F08BFD002363700A2002F03EFF0C4809F037FA0C4818
:40150000822189004358DB05DA0D4358DB0B01210B409B18002BF2D170BDC046B0390008444D000889140010000067407CD000100000664030B50E4B1A6864239B1A8342BA
:4015400014D312180A4B1A605B68002208E0084CA4688D5CE5540133642B00D1002301328242F4D3024A5360012000E0002030BDC439000810B50D4B1B68834214D31B1A34
:401580000A4A1360D368002208E0084CA468E45C8C540133642B00D1002301328242F4D3024AD360012000E0002010BDC439000810B5642008F012FC064B986000225A6044
:4015C000DA60002303E0C218002111700133632BF9D910BDC439000830B5104B1A68FA239B009B1A834216D312180C4B1A605B6800220AE0094CA4688D5CE5540133FA244D
:40160000A400A34200D1002301328242F2D3034A5360012000E0002030BDC046D439000810B50E4B1B68834216D31B1A0B4A1360D36800220AE0094CA468E45C8C54013300
:40164000FA24A400A34200D1002301328242F2D3024AD360012000E0002010BDD439000810B5FA20800008F0B9FB074B986000225A60DA60002303E0C21800211170013370
:40168000024A9342F8D910BDD4390008E7030000F0B557464E464546E0B48EB000AFC04B1C785D78BF4B984231D8BF4B984200D35AE1BE4B984200D156E111D8BC4B984282
:4016C00000D151E103D8013B984244D03BE1B94B984200D148E1B84B984200D033E143E1B64B984200D13FE108D8B54B984200D13AE1B44B984200D113E124E1B24B98421D
:4017000000D18EE0B14B984200D1A9E01BE1B04B984200D19EE00FD8AE4B984200D1A3E004D8AD4B984200D00DE11DE1AB4BC318012B00D907E117E1A94B984200D1C1E0AC
:4017400004D8A84B984200D9FDE00DE1A64B984200D0F8E008E118230822BA18D0180023C37523F0EBFE28230822BA18D0183B6B190A1A0CFB6086883E828079B874D8B254
:401780008446C8B2D2B21B0E9846310A0002634618431204104343461B061843F6B209023143924A002306F027FF96B2300B092106F01CFF3031CBB29A4630120F2398469B
:4017C0001840092106F012FF3031CBB29946301143461840092106F009FF3031CBB298460F203040092106F001FF30314B233B751E337B756E22BA750132FA75173A3A76BC
:401800007B763C3BBB765346FB764B463B7743467B77B9770C23503ABA18D01805F040FFA2E0734B197802394A424A41D1B25C4B1970704809F01EF86F4882218900435855
:40184000DB05DA0D4358DB0B01210B409B18002BF2D189E0524B00221A7001325A7083E000224F4B5A707FE0644825F069FA002816D1624B1E79002E0DD1002313E0604AD8
:4018800011785E4A1068DA008218D279914209D00133DBB200E00023B342F0D3002302E0002300E00123002B5ED1564B1B685A6A1178090758D0524909785171586A25F0B4
:4018C00005FA51E00B89122B23D16B467B608888C31DDB08DB006A46D31A9D466E46002303E00A68D25CF25401338342F9D33100FFF720FE444B00229A5E002A07DB1F2398
:401900001A401E3B93408022520040498B507B689D463B4A137850780002184327F0E0F822E0384B1B684A79596A4A71586A25F091F9002818D025F01DFA324B1B68586A37
:4019400025F088F910E00100314808F093FF2A48822189004358DB05DA0D4358DB0B01210B409B18002BF2D10D4B1B789C4203D10B4B5B789D420CD0234B00229A5E002A1B
:4019800007DB1F231A401E3B9340802252001F498B50BD460EB01CBC90469946A246F0BDE43900080A400000094000000230000001100000041000000420000004400000EC
:4019C0000630000001400000064000000840000001500000104000000C400000EEBFFFFF0C5000000350000017500000F5260000E94C000890D0001000006640E0000008DE
:401A0000DC4C0008703C000884D4001000E100E0C0D0001000B585B00EF03CFC164B5B78002B21D0154B5B78154AD35C002B1BD1114904310120FFF7F3FD002814D01022DD
:401A40000021684608F0ECF90B4B0433009301236A469380133313810222084903A808F0D6F9684627F02EF8064B1B78002B01D005F082FC05B000BDE4390008DC4C0008ED
:401A8000FC4C0008DF4C000810B5FFF773FD10BD10B5FFF7A1FD10BD70B505000C0013292AD9FA218900200006F030FC80B2A84224D8134B5B78002B1BD1114B1B78002BB0
:401AC00017D1FA20800060430E4906F01FFC0E4B1A681582526880B210801B685B68013058800021022005F019FD002801D10EF0D1FB034B187802E0002000E0002070BDFD
:401B0000E4390008710200003401000800B583B001A813230370054B1B78437023F0E4FC43425841C0B203B000BDC046DC4C000810B5FFF795FDFFF73BFD0D4806F0BEFA59
:401B4000002804D10EF0A6FB0A4805F03DF80A4808F00CFF0948822189004358DB05DA0D4358DB0B01210B409B18002BF2D110BD91160010151A0010D4D00010000066406D
:401B8000114B5A6904225A615B69033A0F4B1A700F4B00229A5E002A07DB1F231A401E3B9340802252000B498B500B4B00229A5E002A07DB1F231A401E3B9340C02252005D
:401BC00004498B507047C046000332407F3A000884D4001000E100E07CD4001010B50D4C0D49200001F0C8F80022A35E002B07DB1F21194001228A40C0214900074842503B
:401C0000002B06DB1F2213401E3A9A401300034A136010BD7CD40010811B001000E100E0114B5A6904225A615B69033A0F4B1A700F4B00229A5E002A07DB1F231A401E3B0B
:401C40009340802252000B498B500B4B00229A5E002A07DB1F231A401E3B9340C022520004498B507047C04680033240823A000884D4001000E100E0C4D4001010B5104C66
:401C80001049200001F078F80F4B5A6904225A615B690022A35E002B07DB1F21194001228A40C021490009484250002B06DB1F2213401E3A9A401300044A136010BDC0464C
:401CC000C4D40010211C00108003324000E100E0F8B5284BFC2252009958083A99509B58254B1B78282B1AD1244A1378013BDBB21370002B0DD108221E4B5A60204B002132
:401D00008532FF329950893AFF3A5A60002000F08BFA194B00221A709A785A701BE006F0DDFA06F0C3FA144C63782078154D9A00D618F100091849004F5B1149CA2676009E
:401D40008F517B08C62252008B500022C4235B00CA50013020700C4B00229A5E002A07DB1F231A401E3B9340C022520007498B50F8BDC046000038406C3A0008E800000837
:401D800000003940ECD0001094D4001000E100E010B51E491E4800F0EFFF002835D11D4BFC2252009958083A99509B58184B00229B5E002B07DB1F21194001228A40C0212E
:401DC000490015484250002B06DB1F2213401E3A9A401300104A13600D4B00229A5E002A07DB1F231A401E3B9340802252000A498B5006F073FA06F059FA084B0021C62289
:401E000052009950893AFF3A5A6010BDD11C001094D400100000384000E100E00000394070B505000C00124B9870124B1B78002B0DD100290BD0012000F0F6F90C4B5D7001
:401E40000C4B1C7006F032FA06F048FA0EE0002B05D0002C03D10122064B1A7006E0002B04D0002C02D00134024B1C7070BDC0466C3A0008E8000008F0B557464E46454616
:401E8000E0B44F4BDC2252009958083A99509B584C4B1F783C2F28D14B4A1378013BDBB21370002B16D1464B04225A615A600022A62149005A508131FF315A50C139FF39BF
:401EC0005A5002325A607E325A607F3A5A60002000F0AAF93B4B00221A709A785A701A79DA70394B9A785A7058E0374B5B789846344C6378354A91465D00ED18A85C434664
:401F00005843FF2106F08CFA80B2E3789A461E01F31A9B004B44DB191B7E5843FF2106F07FFAE0804D44687843465843FF2106F077FA80B25346F31A9B004B44DE19367EC7
:401F40007043FF2106F06CFA2081A87843465843FF2106F065FA80B27043FF2106F060FA608106F02BF906F059F906F00FF91849E388CB18187A124BA622520098506289B7
:401F80008A18107AB3229200985022898A18117A8622520099502378013323700D4B00229A5E002A07DB1F231A401E3B9340C022520009498B501CBC90469946A246F0BDC0
:401FC00000003840703A0008E9000008DCD10010DCD200109CD4001000E100E070B51F491F4800F0C9FE002837D11E4BDC2252009958083A99509B58194B00229B5E002BBD
:4020000007DB1F21194001228A40C021490016484250002B06DB1F2213401E3A9A401300114A136006F0E2F806F0C8F80D4C0025A6235B00E5504B3BFF3B636006F0EEF8AF
:40204000B3239B00E5508023636006F09FF886235B00E5500C3BFF3B636070BD791E00109CD400100000384000E100E0F8B507000E0014001D00164B98701971154B9D706A
:402080001B78002B13D1002A11D0012000F0CCF80F4B5F70DE700F4B1C705D7006F08EF806F0BCF806F072F806F0A0F80EE0002B05D0002C03D10122064B1A7006E0002B63
:4020C00004D0002C02D00134024B1C70F8BDC046703A0008E9000008044BDB78032B03D1024B5870024B59707047C046703A0008E900000810B5234B9E2292009958083ABB
:4021000099509B58204B1B78142B1AD11F4A1378013BDBB21370002B0DD11A4B20225A615A600021ED32FF329950FD3AFF3A5A60002000F079F8144B00221A709A785A704A
:4021400012E006F09BF806F081F80F48027843789900CB1899000E4B59188C5C83239B000849CC50013202700A4B00229A5E002A07DB1F231A401E3B9340C0225200064909
:402180008B5010BD000038407C3A0008EC000008E4D300108CD4001000E100E010B51E491E4800F0E9FD002835D11D4B9E2292009958083A99509B58184B00229B5E002B4D
:4021C00007DB1F21194001228A40C021490015484250002B06DB1F2213401E3A9A401300104A13600D4B00229A5E002A07DB1F231A401E3B9340802252000A498B5006F04E
:402200003DF806F023F8064B0021832292009950FD3AFF3A5A6010BDF52000108CD400100000384000E100E0002804D0074A13780133137003E0054A1378013B1370034AA9
:402240001378591E8B4153707047C046ED00000810B5FFF70BFF10BD10B5FFF73DFF10BD10B5FFF7DDFD10BD10B5FFF707FDFFF7B5FCFFF7B3FEFFF78BFDFFF78FFF084804
:4022800008F074FB0748822189004358DB05DA0D4358DB0B01210B409B18002BF2D110BD20D400100000664010B500F051F8002010BDC04670B50C001600002507E02178F7
:4022C000054802F07DF90128F9D101340135B542F5DB300070BDC0460000664030B583B006AC247807AD2D7801950094FEF7FAFC03B030BD10B50400FEF700FD200010BDDF
:4023000010B5FEF701FD10BD10B5FEF705FD10BD024B187800221A707047C046D94C0008024B187800221A707047C046D84C0008014B18787047C046E4390008014B187810
:402340007047C046E539000810B5FFF7A5FB10BD10B5334C334A3449200003F0D3F923688022120613432360304808F0FFFA2C48822189004358DB05DA0D4358DB0B012109
:402380000B409B18002BF2D1294808F0EFFA2448822189004358DB05DA0D4358DB0B01210B409B18002BF2D162B6FEF7BDFCFFF78DF8FFF7BDFBFFF757FF32213C20FFF776
:4023C000C3FFFA20800001F0D5FF1A4C1A49200000F0D2FC0022A35E002B07DB1F21194001228A40C021490014484250002B06DB1F2213401E3A9A401300104A13600D4B3D
:4024000000229A5E002A07DB1F231A401E3B93408022520009498B50FEF708F910BDC046000066400C4D000844E70010E8D0001038D4001084D40010B101001000E100E0B3
:4024400010B5FFF763FB10BD10B5FFF71DFB10BD10B5FFF71DFB10BD024B187800221A707047C0467F3A000810B5FFF7F1FE10BD10B5FFF7F1FE10BD10B5FFF7F1FE10BDCA
:4024800070B56249E0239B00CB580F2213401A00D0329200525807210A40032A05D0042A06D0002A12D15A4814E05A4A106811E01A00C0329200554952581F210A40112ADC
:4024C00006D0132A04D0FA20C00103E0524801E080200002002B36D14C4BB222D2009A5801211140B125ED005A59120F032422405B591B0F1C4207D0444C63591B0F032476
:402500002340012B02D102E0012300E00023002B01D0002901D1032A4BD13C4BB022D2009D58AD03AD0B3D495958C904C90C9C58240E01231C40013405F0E8FE684321000D
:4025400005F0E4FE35E0012B33D1304BC822D2009A5801251540C024E4001A59120F03210A401B591B0F194207D028490B591B0F03210B40012B02D102E0012300E000238B
:40258000002B01D0002D01D1032A12D11F4DC022D200AB587F210B40A958090A1F263140AC58240C3440584305F0B0FE210005F0ADFEE0239B00154AD3581B0903221340CD
:4025C000D840144C6060164B1D692D0AFC32154001351969090E013105F098FEA060290005F094FE0500E06020610E4BC0180E4905F08CFE20750D4BE818FA21890005F073
:4026000085FEA061C003E06170BDC0460000264000127A00F000000800366E0184050000000021403F420F0040420F00E703000010B5234BB021C9005A58520052085A5086
:40264000E02080001A583024A2431A50802252045A501C491C4A9950A021890104329950FF211A4A995081315A58920092088020C00502435A505A588020000602435A506D
:402680005A58012082435A5000F0E8F9FFF7F8FE00F030F800F038F801F066FAB0235B055B78002B04D0B0235B055B78DBB200E02123212B03D1064B0022DA605A6010BD82
:4026C0000000264001000200840500008C050000E00023408023024AD3580320184070470000214010B5024800F074FE10BDC046843A000810B5034A60328021042000F004
:40270000F1FB10BD843B000810B501F0F6FE0400044800F0EDFC044800F05CFD200001F0F0FE10BD843A000848D40010FEE7C046F0B50025002711E0BB00C658F3B2FF2287
:40274000964308E06A008A181478A419527822700135013BDBB2002BF4D10137002FEBD0F0BDC046F0B587B08C4C8D4EA35980252D062B43A351012001F0FCFDA359C02275
:40278000D2051343A351A021C900625803239A4313436350834A9020135883490B40135013691B021B0A8020400403431361136919401161E0239B00E2580F218A43E2509C
:4027C000E25821318A43E250E2581543E5500021012000F061FE0021022000F05DFE0021032000F059FE0021042000F055FE0021002000F051FE01A86C4903000A0032CA6E
:4028000032C312CA12C300F08FFE002802D00420FFF78CFF6149664A8B588020000603438B50644800F038FF002802D00420FFF77DFF5A4C604BE158604A0A4001252A435E
:40284000E250E1585E4A0A40E250E258802636063243E250043BE1585A4A0A40E250E158594A0A40802149010A43E250E258802109020A43E250554A1168554B0B408021D5
:4028800049000B431360002001F03EFE514AA3581E43A650A358AB432B43A3503221002001F0DAFD4C4B05214C4A99504C481A583D490A408824640122431A508022D200E9
:4028C000484898509858042447481C508124240118590840F026360130431851434898509858022442481C50424C1859084018514148985098580024C52000011C508024F7
:4029000024011859084018513C489850985842243B481C503B4FDC593B4804403B4E3443DC513B4C9C509C5841273A4C1F513A4FDC5904403443DC51384C9C509C580327F3
:40294000374C1F51374FDC590C40DC51364C9C509C584027C62424011F51902424011F5938403043185131489850985830481D50304C1859084018512F48985098580624F6
:402980002E481C502E481C582140C0246401214319502C4999509B5807B0F0BD000026403C05000000002140FF00FFFFCCD40010087F0000400D030004050000FEFCFFFF92
:4029C000FFFF00FFFFF0FFFFFF8FFFFF00002740FFFCFFFF0C05000000000140140C00001408000005FF0080180C000004FF00804C0C00000808000002FF008000FF0080E0
:402A0000540C000008090000FF0000FF004A4C0042FF0080580C00000409000041FF00805C0C00000C08000003FF008040FF0080680C00000408000001FF0080740C000062
:402A40001808000006FF008010B50A00002107F0E7F910BD10B507F0DAF910BD70B58AB09621002001F0F8FC01F0CEFC002801D101F0BAFC012001F0E5FA584A516C584B57
:402A80000B40E82189010B435364536C1B0AFF2213403A2B07D1514A516C524B0B40E82189010B435364FFF75DFE4F4A4F4B1A6000240CE06200121953004D4AD318198BB2
:402AC0009A8AD88A00041043FFF7BEFF01340B2CF0D900240AE0620012199300444AD3185A6E196ED86DFFF7B5FF0134112CF2D9404D2900343128003830FFF719FE0F2206
:402B00003D4B1A603D4A3E4B1A6001223D4B1A6002323D4B1A603D4A116802230B43136001AC22002B003C3343CB43C243CB43C243CB43C22100364801F0EAF822002B0067
:402B4000603323CB23C223CB23C223CB23C22100304801F0DDF8304D22002B1D43CB43C243CB43C243CB43C221002C4801F0D0F822002B00283343CB43C243CB43C243CBA0
:402B800043C22100264801F0C3F822002B004C3343CB43C243CB43C243CB43C22100214801F0B6F822002B00703323CB23C223CB23C223CB23C221001B4801F0A9F8220006
:402BC0001A4B143323CB23C223CB23C223CB23C22100174801F09CF80AB070BD00002740FF00FFFFFFC5FFDF0300FA05F0012140CCD40010CCD50010000067400701010059
:402C00000002674004793440087934400079344000003240800232404CD6001000033240800332408004324000053240CCD600100006324010B583089A00801AC000FF221A
:402C40008240D44381400A40072B32D89B001949CB589F46184B196A0C4022431A6228E0154B596A0C4022435A6222E0124B996A0C4022439A621CE00F4BD96A0C4022432B
:402C8000DA6216E00C4B196B0C4022431A6310E0094B596B0C4022435A630AE0064B996B0C4022439A6304E0034BD96B0C402243DA6310BD34E000100000214083089A009B
:402CC000801AC100FF228A40072B2BD89B001748C3589F46164B186A1040C84023E0144B586A1040C8401EE0114B986A1040C84019E00F4BD86A1040C84014E00C4B186B39
:402D00001040C8400FE00A4B586B1040C8400AE0074B986B1040C84005E0054BD86B1040C84000E00020C0B27047C04654E000100000214070B504000D000B4B9A680B4BBD
:402D40009A420BD1002903D1FC21094801F038FB1034064BA400E058E55003E01034A400044BE05870BDC04600ED00E00000000874E0001000000010F0B583B0041E01910C
:402D800050D04368032B03D93621294801F018FB0023E05E002802DBA178FFF74BFF0023E25E6368002A12DB9008224EC0308000875903210A40D200FF25290091408F43E6
:402DC00099012B000B4093403B43835117E092B20F21114008398908063189001648844661444E6803200240D200FF2738009040864398013B000340934033434B600E4B3B
:402E00009A680E4B9A420FD1019B002B03D14521074801F0D5FA0023E05E0199FFF78AFF002002E0064800E0002003B0F0BDC04674E0001000E100E000ED00E00000000841
:402E40000100560070B504000D000369002B0ADA0B0C03D00549064801F0B2FA2D042D0C6560002000E0034870BDC046B3020000B8E0001001008A0070B505000C000368F1
:402E8000002B01DA002300E0084B002B0BD1EA60230C03D00649074801F092FA2404240CAC60002000E0014870BDC04601008A009A020000B8E0001070B505000C1E03D171
:402EC0009921064801F07CFA2B69002B03DAEB682360002000E0024870BDC046F8E0001001008A00F8B504000E0015000F283FD8002A10D100290ED10F2804D9AA21FF31BD
:402F0000214801F05DFA6401204B9C466444204B1C60002037E0002D2CD0002E2CD0F3062CD10F2C04D9AA21FF31174801F048FA6401164B9C466444154F3C607E60BD602F
:402F4000F2080021280006F06BFF00212000FFF779FF3A0001CA0021FFF78EFF00280FD10B4B18680021FFF76DFF00280AD10AE0084808E0074806E0064804E0054802E03A
:402F8000054800E00448F8BD38E1001000002340143C000803018A0001018A00F0B583B00D001C4B1B68DC68236883422DD947097B01C01A012383401E00002903D101F0E3
:402FC0009CFA019001E000230193124B18680368002B01DA002300E00F4B002B0ED16368BF00DF193B68334203D133433B60002400E00A4C0021FFF725FF00E0084C002DE8
:4030000004D1019801F07DFA00E0064C200003B0F0BDC046143C000801008A00020188000301880004018A00F0B583B00D001C4B1B68DC68236883422DD947097B01C01A6A
:40304000012383401E00002903D101F056FA019001E000230193124B18680368002B01DA002300E00F4B002B0ED16368BF00DF193B68334203D0B3433B60002400E00A4CD7
:403080000021FFF7DFFE00E0084C002D04D1019801F037FA00E0064C200003B0F0BDC046143C000801008A00020188000301880004018A000A4B1B68DA68136883420BD9AC
:4030C00043095901401A0121814052689B009B580B4203D0034802E0034800E003487047143C00080101880004018A0000018800034B1B68002B01D1014B18607047C046E2
:40310000203C0008F0B5474680B404000F0090461E002B4B1B68002B03D1B421294801F04FF9072C03D9B521264801F049F9244B1B682C2060431C18FF221500354025607C
:40314000330A13406360330CA3600F2D04D9AA21FF311D4801F034F96B011C4A94466344236165680F2D04D9E2214900164801F027F96D01164B9C4665446561A668330C3E
:4031800004D0F1214900104801F01AF9330C04D0E421FF310C4801F013F93604330C1E43AE604346E36127620023A361069B002B02D000229B5EA38104BC9046F0BDC04660
:4031C000203C000878E1001038E100100000234000102340F0B58FB0041E03D150212E4801F0EEF86368032B03D952212A4801F0E7F8E36A002B03D15621274801F0E0F8E6
:40320000E368072B03D95721234801F0D9F8236A072B03D95821204801F0D2F8236B002B03D159211C4801F0CBF807AA1300210061C961C321C921C302AD290023001433F7
:40324000C1CBC1C141CB41C10821535E0CAE3380079B1933B370089B0D930B9B0A980096A26AE16AFFF74EFF2B69E868002200920021FFF747FF216B3000FFF77DFD0023DB
:40328000F25E002A05DB1F231A401E3B9340034A13600FB0F0BDC04678E1001000E100E0F8B504000F0016001D00002A03D1FD21284801F085F8284B1B68002B03D1FE218F
:4032C000244801F07DF8072C03D9FF21214801F077F8072F04D9802149001E4801F070F81D4B1B682C2120004843181879435918012213004C68A3401B044468A24014007A
:403300000269002A20D08F69002F1FD11268002A01DA002200E0114A002A19D132681204120C134333600369DE6001238B614D620569230C03D00A490A4801F041F822047C
:40334000120CAA60002004E0074802E0074800E00648F8BD78E10010203C000801008A009A02000038E1001004028A0007028A0070B504000D001600134B1B68002B04D151
:403380006221FF31114801F01BF8072C04D9B12149000E4801F014F80B4B1B682C2060431C18236A002B04D1B3214900074801F007F8E369B34204D9236AB6009D5100202B
:4033C00000E0034870BDC046203C000878E100100A028A0070B582B0040000230193002804D1EA2149002B4800F0EAFF2369002B04D1D621FF31274800F0E2FF6369002B73
:4034000004D1EB214900234800F0DAFF236A002B04D1D821FF311F4800F0D2FF6269D5682B0C1FD01B041360136820690369002B18DA01A9FFF740FD00280ED1019803681B
:403440001E0CFF221340E269934207D29B00226AD358002B02D0984700E0002631002069FFF7F0FC2D042D0C0FD063691D601B68636A002B03D098470023636203E0A36A4E
:40348000002B00D098470023A36163691B6802B070BDC04678E1001004281DD8042904D94B1EFF3B9BB2132B18D8FF290CD91F2319400B4A0300C0339B009950D03080002E
:4034C0000423835000200AE007231940D0308000034BC150002002E0024800E0014870470000264001004A0010B50400042804D91621FF310A4800F063FF2300D0339B00EB
:40350000084A985807231840042807D1C034A400A3581B30184080235B00184310BDC046B8E100100000264070B5041E04D1E221FF314C4800F044FFB023DB004A4AD358CF
:40354000002B01DB002500E0484D002D00D086E0474B22689A4204D9F8214900414800F02FFF23689B03990BE3791B068022520413400B43B022D2003B498B50A2883D4BD1
:403580009A4204D9F821FF31364800F019FF2289394B9A4204D9FC214900324800F010FFA388DB04D90C23891B04344A13400B43334A2D498B50A37A0F2B04D9FF21490078
:4035C000284800F0FDFEE37A0F2B03D92A49254800F0F6FEA289274B9A4204D980218900204800F0EDFEA37A0F211940E27A1201FF2313400B43A289120222490A40134354
:40360000A27B1207C02189050A401343B122D20015498B50A379072B04D982218900114800F0CEFE228A144B9A4203D916490D4800F0C6FE0C4815494658154B1E40A379A6
:403640001B02E022D2001340334343504658114B1E40238A1B04094A134033434350280070BDC046B8E100100000264003004A00FFFF0300FF1F0000FF0100000000FF0154
:403680008405000000FF1F00090200008C050000FFF8FFFFFFFF00FE70B505002D492E4A8B588020000603438B502C0003E0012000F07AFE013CB223DB00264AD3585B0792
:4036C00001D4002CF3D12349B122D2008858234B03408020800503438B50002D02D00ED0002C0CD01B49B022D2008B588020000603438B5003E0012000F056FE013CB2232C
:40370000DB00144AD358DB0701D4002CF3D1002D0ED0002C0CD10F4AB021C90053585B005B0853500C4953585B005B0853500BE0084B0221B222D2009950B121C9005A58CD
:40374000C020800502435A50002C01D1044800E0002070BD000026408C050000FFFFFFCF02004A00F0B5474680B45B4B98426FD89A4274D8594B994278D80124584B1C70F7
:40378000FF2806D80E3404400F250F239C46072021E0544B984206D80F2630400F2500239C46002417E0030A0F2633404E4CA04208D80001F03630401843FF2500239C4692
:4037C000002408E00002F026360130401843474D00239C460024FF2A10D81201FF231A401443E022D202024316000F3B62461A439446F0273F032F4300203DE0394B9A422D
:4038000008D81204F0273F033A40104306002F43002031E0160A3604F0231B031E403043314B9A420AD81205F0231B041A4010430600FF273F042F4300201DE01206F0260B
:403840003605324010430600294F2F43002013E0002700239C460026002426480CE0002700239C4600260024224805E0002700239C46002600241F4800282AD11E4B1B68C4
:40388000002BFBDA164B5B78002B04D01B4B1C4AD358002B19DA1B4A1B4B1A601B4A1C4B1A60174BA322D20090469D58624695432C4342469C50174C1A59BA4332431A515B
:4038C000074A51600D4A995000E0134800220A4B5A6004BC9046F0BD0F060000FFFFFF00243C0008FF040000FF0500000F0F000000000F0F01004A00E00023401C0500006B
:40390000000026401F1F0000080126403D3D0000040126401405000003004A0070B582B000220023009201932C4B1A702C4B1B68002BFBDA2B4B1A682B4B9A4206D12B4BD5
:403940001A682B4B9A4203D0002502E0002500E00125A423DB00274AD4582402220A0023009201931E4B00225A60002D2DD0009A019B1A4329D0002815D1184B58680A005E
:403980000023002104F058FE009C019DEE07620832436B0880185941009A019B04F02CFE0090019115E0009A019B0800002104F043FE0A4B5A685408002500196941002349
:4039C00004F01AFE0090019103E000220023009201930098019902B070BDC046243C0008E0002340080126401F1F0000040126403D3D000000002640F0231B06C3180F4A29
:403A0000934201D8580A18E0EC231B06C3180C4A934204D85B0A8020400218430DE0EA231B069C466044064B984204D8400A80229202104301E0012040427047FFFF0F0007
:403A4000FF7F000010B50400FFF7D6FF431C03D0E40503D0002002E0002000E0012010BD214B984230D00ED8402831D004D800281FD010282AD031E080282BD080235B00EA
:403A8000984229D02AE0194B984229D007D8A0231B0698420DD0164B984212D01EE0154B98420AD0144B984209D0144B984215D101E0002016E0124814E0124812E012482D
:403AC00010E0A020C0030DE007480BE00F4809E00F4807E00F4805E0034803E00E4801E0A420C0037047C04606005200010000F0090000A0040000F0050000F0030000F0FB
:403B0000010052000200520003005200010050000200500005005200FF00520010B50C4B1B69002B11DB0B4B1868FFF799FF0121094B0A4AD150084B084AD358002BFAD172
:403B4000074BD358002BF6D100E0064810BDC04600002340303C00080C040000000025408C0400000200500010B5022202490020FFF7FEFB10BDC0466908000870B50400EF
:403B80000D00FFF75FFF002827D0002D27D0FEF777FC144B144A1A6000225A609C60DD60124B19691A69120AFF2313405A1C0B0E013353430E4C5C430E4B1868FA218900EB
:403BC00004F0A4FB0100200004F0A0FB0A4BC1188020400009F0ECF802E0084800E0074870BDC046303C00080001000500002140C0EA2101F400000848260000060052009A
:403C000010B5FFF78BFF10BD10B50400FFF71AFF00282AD0FEF734FC154BE02252051A601A68802149000A431A605C6000229A60DA60104B19691A69120AFF2313405A1C74
:403C40000B0E013353430C4C5C430C4B1868FA21890004F05BFB0100200004F057FB084BC118002009F0A4F800E0064810BDC046303C00080000214060F59000F4000008A6
:403C8000980800000600520070B504000D00FFF7D9FE00282ED0002D2ED0FEF7F1FB174BC022D2041A601A68802149000A431A60832252005A609C60DD60114B19691A69C5
:403CC000120AFF2313405A1C0B0E013353430D4C5C430D4B1868FA21890004F017FB0100200004F013FBE1239B00C118002009F05FF802E0054800E0044870BD303C000859
:403D000000002140808D5B00F40000080600520070B505000C00002848D0002948D0FF230A689A4303D08D21224800F049FBFF2322699A4303D08E211E4800F041FBA36876
:403D40005B0D03D08F211B4800F03AFB63685B0A03D09021174800F033FBE3695B0F03D09121144800F02CFB236A5B0F03D09221104800F025FB104BEB18DB090F4A944697
:403D800063441B0122682A60E268AA622269EA6262692A63A2686A626268AA61A2696A63E2691A60226A5A60002002E0044800E0034870BD40E200100000CEBF001003049D
:403DC00001005A0010B5074A074813580F24A34302210B43135004381358A3431943115010BDC0460000214004F0000010B5074A074813580F24A34303210B43135004383F
:403E00001358A3431943115010BDC0460000214004F000000449054A8858054B0340C020C00103438B5070470000214004F00000FF8FFFFF0449054A8858054B0340802034
:403E4000C00103438B5070470000214004F00000FF8FFFFF10B5002000F070FBB0235B055B78002B04D0B0235B055B78DBB200E02123222B03D8002803D1013002E0012074
:403E800000E0002010BDC04610B50400002000F055FB00280AD114498A69144B1A40240680235B041C4014438C611BE0002C01D00F4A00E00F4A01210F48FEF7DDFF002832
:403EC0000DD10D4B1B69002BFBDB0B4BDB681B0E1B06A0221206934203D0084802E0074800E0002010BDC04600F02540FFFFFFFE01010030010000300000234004004200F2
:403F000070B50400022805D0052803D02349244800F056FAFFF79EFF00283CD000F0EDFA0600022C10D10120FFF7AEFF051E18D1FFF748FF1B494B6907229343043A1343D6
:403F40004B61FFF767FF0CE016494B6907229343043A13434B61C82000F026FAFFF76AFF0025002D13D10F494B69072293431A000723234013434B61052C08D1C82000F0D8
:403F800013FAFFF733FF0020FFF77EFF0500300000F0B7FA00E0044D280070BD37060000C0E20010000026400300420010B50400012803D90D490E4800F002FA002C03D1DD
:403FC0000C4B5869C00F00E00020012C0CD1094B9B695B0005D4074B9B69002B03DA012002E0012000E0002010BDC0469C060000C0E200100000264070B504000D000728D0
:4040000003D90D490D4800F0DBF90D4B9B690722134021009C420DD0094882690726B243344014438461002D04D0994202D9C82000F0BAF970BDC046FC060000C0E200104A
:4040400000002640F8B50500012804D9EA21C900294800F0B5F9FFF7FDFE002848D000F04CFA0700002D17D1E823DB00B0225205D65CF6B20120FFF707FF041E1FD1FFF7AE
:40408000A1FE1E481E4943581F229343143A13434350FFF7BFFE12E01A4BB0225205D65CF6B21648164943581F229343143A13434350092000F078F9FFF7BCFE0024002C6E
:4040C00012D10E490E4A8B581F20834306401E438E50012D08D1163800F066F9FFF786FE0020FFF7D1FE0400380000F00AFA00E0054C2000F8BDC046C0E20010000026406A
:404100001CFF0000410700000300420070B5040000F0F3F9002C05D01A4B1B681F2B03D9002502E0002500E00125002D25D0E368002B1FD02368002B1ED0124B59680B003D
:40414000002203E0A34204D01A005B69002BF9D100E00025002D10D0002902D1094B5C6000E05461226100236361064A13680133136002E0002500E0002500F0C2F9280040
:4041800070BDC046403C000870B5040000F0B5F9174B1A68002A25D059680B0002E0A34204D05B69002BFAD1002500E00125002D19D0A14207D14B69002B0CD00C494B60A6
:4041C0000021196107E019695C694C615969002901D01B690B61013A054B1A60002A02D15A6000E0002500F08CF9280070BDC046403C000870B584B005000E00042803D914
:4042000029492A4800F0DCF8731EDBB2012B07D9042E05D0082E03D02549244800F0D0F8042E01D0012E1DD1224B5C68002013E023799D420FD1A368002B01D01E420AD109
:40424000E36801A85A6842609B688360067023689847184B9C606469002C23D0164B9842E6D11FE0134B9C68022E02D1002C00D02469002011E023799D420DD1A368002B56
:4042800001D01E4208D1E36801A85A6842609B6883600670236898472469002C02D0064B9842E8D104B070BD95080000C0E2001096080000403C0008FF00420070B50500AA
:4042C000012804D94E21FF311B4800F079F81B4B1B68002B05D001210020FFF78BFF040000E00024002C20D100F007F90600134B1B68002B03D004210020FFF77BFF104AA1
:40430000136904218B431361012D01D030BF00E020BF300000F0F5F8084B1B68002B09D008210020FFF766FF04E002210020FFF761FF044C200070BDC0E20010403C000812
:4043400000ED00E0FF00420010B500F0D6F8074B5A6807490A40E824A40122435A605A68114059605B6800F0CCF810BD00002640FF00FC0F10B5040006E0084B186800F03C
:40438000B3F8074B9C46644480231B029C42F4D8044B1868604300F0A7F810BD0C0100080080FFFF0801000810B5034B1B78584300F09AF810BDC0460401000801BEFEE753
:4043C00070B50D00044C18220100200006F0F1FAA5610020FFF7F2FF600B00080122014B9A60704700002540054B802212069A649B6C002B01DB002000E002487047C046DD
:404400000000274003004600054B8022120198585B68FF221A4202D08023DB021843704700002640FEE7C04610B50A4B0268DA6142681A6282685A62C2689A620269DA628A
:4044400042691A6382695A63C2699A63FFF7EAFF10BDC046600B0008F0B5002801D0192200E064228A42924152421C4BE8256D005C590327BC433A4014435C515C59184E55
:4044800034405C51D03D5C59BC4322435A515A5916405E51002805D010290DD921290DD8012014E01D290BD93A290BD957290BD978290BD803200AE0002008E0022006E07C
:4044C000002004E0012002E0022000E00420054A13680F218B4303431360F0BD00002140FFFCFFFF000025400230800803D001300238FCD1C046C0467047EFF3108072B680
:40450000704780F310887047042805D1094A116804230B4313600CE00006C0239B04184090239B00044AD050024A136804218B431360704710E000E00000214010B50400E6
:404540000F2803D9E4210548FFF73AFFA402044B9C46644423680F20184010BD00E300100040244030B5C0239B00C3580F242340072B07D900230FE0D024A4000459CC5465
:40458000013300E000239342F6D307E05C00D025AD0045590D5301339342F7D330BDC04610B51400C2239B00C358DB05DB0D9A4200D31C002200FFF7D5FF200010BDC04697
:4045C00003681B0501D5802200E0402282239B00C358DB05DB0D934204D090239B00C150012000E00020704730B580239B00C3580F242340072B07D900230FE0CD5C90249E
:40460000A4000551013300E000239342F6D307E05C00655A9024A400055101339342F7D330BDC04610B5140003681B0501D5802200E0402282239B00C358DB05DB0DD31A07
:40464000A34200D81C002200FFF7CEFF200010BD03E090239B00C150013A002AF9D1704710B5140003681B0501D5802200E0402282239B00C358DB05DB0DD31AA34200D87C
:404680001C002200FFF7E4FF200010BD10B54A68394B9A4230D1C2239B00C358DB0516D00A6A402313430B620B78002B0CD0C1239B00C258802464022243C250C4582F4AEA
:4046C0002240C250C35802E0D0239B00C3580A6A202313430B620B6A102293430B62026E274B134003660022264BC250083B0132C250C3581F3221E08224A4000359DB057E
:40470000DA0D0359DB0B012423409B180A6BD21A4A630A6A120705D4CA6AD218CA628A6AD31A8B620A6A042313430B620B6A012293430B620022144BC2501032134BC45801
:404740000223FF331C420ED003685B005B08036000238366C36603688024240623430360036840231A4380235B054B604B6C002B01D01000984710BD01100000FFFFFEFF8F
:40478000FF5FFFFFC80F0000880F00004C0F000010B51C4BC3589A071DD5F02212010224845084588258520702D58020800301E0802040038A6802438A604868B82252030E
:4047C000904208D00A7B002A02D0C022520301E0B02252034A60DA0504D58A688020000402438A60DA0704D58A688020C00302438A601222FF32134202D0C0235B034B6072
:4048000010BDC0460C0F000000230B4A83500B4A8350836E002B04D01822FF32084BC25008E01422FF32064BC25018238366B8235B034B607047C046C80F0000880F000072
:40484000080F000070B53F4BC458026E3E4B1340036600233D4A83503D4A83503D4A8350F0231B011822FF32C250C3588A683A4B13408B604B7B002B02D08B69CB610CE025
:404880008D698226B6008359DB05DA0D8359DB0B012633409B18EB1ACB610223FF331C421ED0036E9B0F032B06D10233FF331C40631E9C41E4B200E00124002C0CD00368CF
:4048C0005B005B08036000238366C36603688022120613430360036880235B054B601BE00B78002B10D0C1239B00C258802464022243C250C458184A2240C250C358FC239C
:404900001B010122C250C3580B7B002B01D0134B01E080235B054B604A6C002A10D04B7B002B02D08024E40201E08024A4028868F8235B04184001D08020000320439047F4
:4049400070BDC0460C0F0000FFFEFFFFC80F0000880F0000080F0000FFFFFEFF0000101070B505000C002423CB5C002B10D1CB6A002B0DD14B6C002B01D008209847E36A59
:404980005A425341DBB22422A354233A314BEA502423E35C002B16D06378002B06D02B681B0501D5802202E0402200E00122FF212800FFF755FE236BC0182063226A0823D4
:4049C0001343236244E0E26A012A13D96378002B01D0013A00E00122A16A2800FFF722FE236BC3182363E36A1B1AE362A36A9C466044A06282239B00EB58DB05DB0D802BB6
:404A000026D0E36A012B23D1FFF777FDA36A1A7890239B00EA50F8231B014026EE50EB58FFF76FFD236B013323630023E362A36A0133A362074BEE506378002B08D0226A12
:404A4000022313432362636C002B01D00420984770BDC046880F000070B505000C004A68A8235B039A4203D1C0235B034B6059E04A68A0235B039A4254D14A69012A13D91A
:404A80004B78002B01D0013A00E0012221692800FFF7C8FDA369C318A36163691B1A636123699C466044206182239B00EB58DB05DB0D802B15D06369012B12D1FFF71DFD83
:404AC00023691A7890239B00EA50F8231B014022EA50EB58FFF715FDA3690133A361002363616369002B1DD1237B002B06D040220D4BEA50A8235B03636005E000220A4B07
:404B0000EA50B0235B0363606378002B0AD0A368802292021343A360636C002B02D080204002984770BDC046880F000070B504000D008A6C002A2ED00368DB0305D5504B64
:404B4000C3585B0603D5022002E0002000E00020236E1B0506D44A4BE35880210B4000D001231843002818D09047FC231B010122E250E358002809D1F4231B010F32E250CD
:404B8000E358D222FF323F4BE25007E0C222FF323C4BE25002E0002000E0002081239B00E258802149020A43E250E158364A0A40E250E358002801D1012300E00223E36662
:404BC00000285BD1636E10261E406B6C002B05D0002E01D0013000E002209847002E0DD02A4B6B602B6A012213432B626B6B2B6300212423E954264BE2503FE0254B6B6028
:404C00002A6A102313432B620122234BE2502B78002B1AD0EB6B002B19D0236E8022920113432366ED6B802D05D92B00803B802B0FD8813D0EE0013D236E8022120213435E
:404C400023660022144BE25004E0002502E0002500E03F2523681B0501D5802300E040239D4203D30D490E48FFF7AAFBC1229200A358FF218B430D401D43A55070BDC0460E
:404C80004C0F0000480F0000FFFFFEFF02100000880F000001100000C80F00005E02000040E3001070B505000C004B6888225203934204D09022520393421DD069E0D0238D
:404CC0009B00C3580A6913708B6901338B614B69013B4B61002B05D00B6901330B610423836656E00B7B002B02D0C0235B0301E0B0235B0363604CE04A690969FFF750FCD2
:404D0000A369C318A36163691B1A63612269944660442061012B23D82A6E1E4B13402B666369012B15D12B681B0501D5802300E04023002B03D118491848FFF741FBC1220B
:404D40009200AB58FF218B43AB5088235B0363601FE00022124BEA50B0235B03636018E0402B01D89C1E00E03F242B681B0501D5802300E040239C4203D307490748FFF74C
:404D80001FFBC12189006A58FF239A43234013436B5070BDFFFEFFFF5E02000040E30010C80F000070B505000C00CB6B002B52D00B78002B40D0C1239B00C358FF221A401B
:404DC0000132896BFFF7ECFB236CC3182364E36B1B1AE363A26B94466044A063802B06D91A00803A802A11D8813B1C000FE02B6E8022120213432B66E36B002B01D05C1EB5
:404E000000E000240022174BEA5000E03F242B681B0501D5802300E040239C4203D312491248FFF7CDFAC12189006A58FF239A43234013436B5013E00123C3660B6CD0228F
:404E400092008258896BCA54236C01332364E36B013BE36304E00223C3660022014BC25070BDC046C80F00005E02000040E3001070B505000C001600002800D1A2E000295B
:404E800000D1A1E0002A00D1A0E00B78013BDBB2022B03D94A215148FFF792FA2378022B03D14F4A954200D192E0032B03D14C4B9D4200D18EE0E379002B03D0484B9D4278
:404EC00000D089E06378002B00D06379002B03D061214248FFF774FA0323E356002B03DA62213E48FFF76CFA2379DB0703D563213A48FFF765FA6379002B02D0802252020D
:404F000000E00022E379002B02D080235B0000E0002313438022120113432B60A379002B00D0002223789B0713432B660822FF32C0239B00EA506378002B01D0883A00E040
:404F40000022C1239B00EA50E3785B00FF221340227912041343C4229200AB50214A80239B00EA50A378002B01D0402200E0012281239B00EA5000231B4AAB501B4AAB50F7
:404F80001B4AAB501B4AAB501B4AAB502378022B02D0D222FF3200E00022184BEA5063783370A378737080235B0573600023B360B36133623364F3633363F3627364B3647C
:404FC00000200AE00E4808E00D4806E00C4804E00B4802E00A4800E0094870BD84E300100000694007010100C80E0000880E0000C80F0000880F0000080F0000480F0000A0
:405000000120AA0003685B005B08036080235B054B6000238B600B627047C04670B505000C1E03D117491848FFF7CAF92B6E9B0F012B11D1154A164BE31893421AD9154A5F
:40504000154BE318934217D9144B9C466444144B9C4213D8134814E0002C11D02A6E12090F210A402B6E194051180231200003F04DF906E00C4804E00C4802E0002000E03B
:40508000002070BD9702000084E30010405B730020AD88FF50A9AB005059E8FF004D0EFF40555C0440420F00801A0600A0860100F0B55F4656464546E0B482B007000C000C
:4050C0009046002A03D160496048FFF779F9631E5F4A934203D95F495C48FFF771F93B6E9B0F012B0CD141463800FFF797FFC0229200B958584B0B40BB50584B3B679CE0B6
:405100004346002B00D195E0002C00D194E0FA218900404603F0FAF80190FA218900200003F0F4F8824641464D4803F0EFF806004C4B9C4208D94C4B9C4209D8E1239B00B2
:405140009B46C824E40008E0484B9B461C0004E0BE235B009B469B24A4003100200003F0D5F8050000E0013533006B439C4201D90F2DF8D93100584603F0C8F8040000E06A
:405180000134330063439B4501D90F2CF8D92919019803F0BBF800260DE0F30703D50F2C04D8013402E00F2D00D8013501362919019803F0ABF8504502D92B191F2BECD9D2
:4051C000294B984209D9C0229200BB58802189000B43BB50264B3B6707E0C0229200B9581D4B0B40BB501D4B3B67EB1F092B03D920492148FFF7E4F83B6EF02293431900C6
:405200006A1E1201FF2313400B433B66631F0B2B04D9A621C9001848FFF7D2F8396E0F239943621E13400B433B662919404603F06DF802E0002000E0002002B01CBC904631
:405240009A46A346F0BDC0461102000084E300103F420F0012020000FFFDFFFF13102A0000CA9A3BA0860100801A06008813000003002A0013050000C4E300108868704799
:4052800070B504000D001600002903D154495548FFF796F86B68002B02D0AB68002B03D151495048FFF78CF80023EB56002B03DA4E494C48FFF784F800224D4BE250736889
:4052C000DB0000D486E02B785B00FF32134001210B431A0080204002B0606B683361AB6873610023B361F3612B7B33737173F0231B011821FF31E150E35881239B00E15816
:405300000143E150E0583B490140E150E358716880235B05994205D190239B00E2500223A36609E0636E9B0601D5092300E00123A36690239B00E2503378002B28D0337BEE
:40534000002B25D17369012B22D9236E80225200134323667569802D01D8023D00E03F2523681B0501D5802300E040239D4203D321492248FFF724F8C1229200A358FF212C
:405380008B430D401D43A55090235B03736014E023681B0501D5802300E04023002B03D115491648FFF70CF8C1229200A358FF218B43A35088235B037360FFF79EF80122AD
:4053C0000F4BE2501422FF320E4BE250FFF799F8002000E00C48D222FF32054BE25070BDA504000084E30010A6040000A7040000480F0000FFFFFEFF5E02000040E3001026
:40540000C80F0000080F00000220AA00F8B504000D001600002903D14B494C48FEF7D0FFAB68002B07D06B68002B04D1B121C9004648FEF7C5FF0023EB56002B03DA444932
:405440004248FEF7BDFF0022424BE2507368DB0073D52F787F00FF231F4080214902B1606B683361AB6873610023B361F3612A7B32737373F0231B011822FF32E250E3585E
:4054800081239B00E2580A43E250E158324A0A40E250E358726880235B059A420AD190239B00E750F8231B014022E250E3580223A36619E0636E9B0601D5092300E00123CA
:4054C000A3667369002B0CD1FFF717F890239B00E750F8231B014022E250E358FFF711F802E090239B00E750A0235B0373607378002B01D0402500E0012523681B0501D502
:40550000802300E040239D4203D314491448FEF757FF81229200A358FF218B432B43A350FEF7EBFF01220F4BE2501422FF320E4BE250FEF7E6FF002000E00C48D222FF327A
:40554000044BE250F8BDC0468705000084E3001089050000480F0000FFFFFEFFC602000040E30010880F0000080F00000220AA0070B504000E00354BC358DB0707D5802364
:405580005B014B60813BFF3B0122C250C358304BE5580223FF331D420ED0336AEA0502D58022520000E08022134333620022294BE25010231D430EE0EB060CD5C2239B00F3
:4055C000E358DB0507D0F36B002B04D00123224AA350204AA350214BE358DB0708D531002000FFF7DFFBFC231B010122E250E358EB060AD531002000FFF748F8F4231B01A0
:405600001022E250E358124BE558C0232B420DD031002000FFF78AFAE8231B010122E250E358F4231B01BF32E250E3580C4BE35841221A4208D031002000FFF791F9F823DC
:405640001B010122E250E35870BDC0468C0E00004C0F0000C80F0000C40F0000CC0F00008C0F000070B506000D00E0231B01C458A3070CD5836E002B06D0002383668B6847
:405680008022520413438B60C0235B036B60E30705D529003000FFF77BF804239C43230708D529003000FFF7FDFAFC231B010122F250F358630708D529003000FFF7CCF986
:4056C000F8231B010122F250F3586A68C0235B039A4203D129003000FFF7B4F86A68B0235B039A4203D129003000FFF78DF870BD10B54B68DB0202D5FFF7B4FF01E0FFF7A5
:4057000037FF10BDF8B505000C001600002800D1C1E1002900D1C0E1C04B984200D1BEE10B78022B03D94221BD48FEF749FE637B023BDBB2062B03D94321B948FEF740FE8A
:40574000A37B002B07D0022B05D0032B03D04421B348FEF735FE2123E35C012B03D94521AF48FEF72DFE2823E35C012B03D94621AB48FEF725FE2378012B06D86268083AC1
:40578000082393429B415B4208E0A37F002B05D063685A1E062393429B415B42002B03D048219F48FEF70CFEA368053B042B03D949219B48FEF704FE6369FF2B03D94A2188
:4057C0009748FEF7FDFDA369FF2B03D94B219448FEF7F6FDA37C002B0FD02378002B07D1A368092B06D1A37B002B05D0012304E0012302E0012300E00023002B03D04D21FD
:405800008748FEF7DDFD874B626B1A4203D04F218348FEF7D5FD844BE26B1A4203D050217F48FEF7CDFD2378022B02D1A37F002B02D063685A1E00E00022237F002B02D01A
:405840008021490200E00021A368082B02D880231B0100E0002319430F2313400B438022920413432B60236B2A68120501D5802200E04022934203D365216948FEF7A0FDB4
:40588000A36B2A68120501D5802200E04022934203D366216248FEF793FD636A2A68120501D5802200E04022934203D367215C48FEF786FD23781B06C022920413402B6481
:4058C000637F002B01D0402200E00022A07C002802D08023DB0000E000231A43237C002B02D08021490000E000210A43637C002B02D08021890000E000210A43E36A013BC1
:405900001B04F020000303401343627B013A07210A4013431900A27B120130231A400B001343AB64237B002B02D08021490000E00021E27B002A04D12378022B03D1013B9C
:4059400002E0012300E00023002B02D080239B0000E000230B43A268013A0F273A401343C02292009446AB50FF2260691040A3691A04FF2109040A400243C4239B00EA5022
:40598000E26A6346EB583B4003339A4201D3102A03D97D212248FEF713FDE37F002B04D02378012B03D0002302E0002300E00123002B02D08021490000E00021627B013A04
:4059C000072313401943A27B120130231A400B0013436B64237B002B02D08021490000E00021A3685A1E0F2313400B432278012A02D18022520200E00022134380229200CB
:405A0000AB50FF23226B1340C1229200AB502023E35C002B0AD08021890408E00000694044E4001092F4FFFF8CF8FFFF00212122A25C012A02D180235B0400E000230B43C2
:405A40002822A25C012A02D18022520200E000221343FF21626A0A4013432B65A36B0B4081229200AB50104B626B13400F4AAB50E26B0F4B13400F4AAB50002E11D000239E
:405A800073603360B360F3603362F36233630A4B7363002006E0094804E0084802E0074800E00020F8BDC0466D0B0000C80F000073070000880F0000EFCDAB000160AA0026
:405AC00070B5002800D193E0002A00D192E053681B061D0C93689B048024E40223402B43D4682504C024A4022C40234314692506E024E4042C402343147F002C01D00124D2
:405B000000E0002423430C1DA4012350D368002B06D18B01C3180933FF3300241C600EE0012B06D18B01C3180933FF3314681C6005E08B01C3180933FF3301241C60136973
:405B4000002B0AD18B01C3181C000D34FF34556925601133FF3394691C608B01C3181533FF3314681C60936C5C1C1BD00F25966A2E40146B2502F024240125403543946B5E
:405B80002604F024240334402543146C2407240C25431C01FF2323402B438C0104192134FF3423600324556A2540D36A1E012D3434402C43536B1D02C0239B002B40234385
:405BC000D46BA401FF252C4023431D00536C9C000C231C402B0023438901411808002530FF300360136A3931FF310B60002002E0014800E0004870BD0100B600F0B50028BF
:405C000000D1C9E0002A00D1C8E02823D35C002B01D0012400E00024137F002B01D0022300E000231C4313699B048026F6023340234394682404C026B602344023431668E7
:405C40003406E027FF043C402343546B6500146B25432D05C027BF033D402B43946BA5002B431C00052E03D1D3681B061B0C02E053681B061B0C23430C1DA401235013686E
:405C8000062B0BD18B01C3181C000934FF34012525602933FF333F241C6027E09368002B0BD18B01C3181C000934FF34002525602933FF3331241C6018E0012B0BD18B013B
:405CC000C3181C000934FF34556925602933FF331C241C600AE08B01C3181C000934FF34012525602933FF3312241C608B01C3181C000D34FF34156A25600434556A256071
:405D00000434556925601933FF3394691C60136E5C1C1BD00F25166C2E40946C2502F024240125403543146D2604F024240334402543946D2407240C25431C01FF23234084
:405D40002B438C0104192134FF3423600324D56B2540536C1E012D3434402C43D36C1D02C0239B002B402343546DA401FF252C4023431D00D36D9C000C231C402B002343F4
:405D80008901411808002530FF300360D36A3931FF310B60002002E0014800E00048F0BD0100B60070B505000C00002873D0002973D00B7A002B03D00B885A425341DBB218
:405DC000002B03D02F213648FEF7FAFA637A002B03D063885A425341DBB2002B03D030212F48FEF7EDFAA3791F2B03D931212C48FEF7E6FA2379032B03D932212848FEF78E
:405E0000DFFA6379032B03D933212548FEF7D8FAE379032B03D934212148FEF7D1FA63881B0422881343EB60A0790006F82252051040E3791B048022520213400343227A5C
:405E400092000420024013431800637A9B028021C9000B401A0003001343E27A002A02D08020000100E00020184363791B02C02189000B401A0003001343A27A002A01D08E
:405E8000082200E000221343227903210A4013432B61002002E0034800E0024870BDC04684E400100100D600F0B54F464646C0B483B00400894690466421006802F0ACFAE1
:405EC0000F000A21380002F021FA06010A21380002F0A2FA71187F260E406421606802F09BFA0F000A21380002F010FA05010A21380002F091FA4D192D02FE21C9010D40BC
:405F00002E43637B002B1DD0237B002B02D08025AD032E438025ED032E436421A06802F07BFA0F000A21380002F0F0F905010A21380002F071FA69180904F8204003014062
:405F40000E4313E06421A06802F066FA0F000A21380002F0DBF905010A21380002F05CFA69180904FC20800301400E436421206902F052FA0F000A21380002F0C7F90501E0
:405F80000A21380002F048FA69180906E020C00401400E436421606902F03EFA0F000A21380002F0B3F905010A21380002F034FA69183F250D406421A06902F02DFA0B006F
:405FC0000A210193180002F0A1F907010A21019802F022FA79180902F820400101400D43E069642102F018FA0C000A21200002F08DF907010A21200002F00EFA7918090452
:40600000FF231B04194029434B461E604346196003B00CBC90469946F0BDC04670B5041E03D18A214048FEF7CBF9FEF766FA05003E4B1B69DB070BD43C4B9B689B0707D430
:406040003A4E0123B360B720FEF7AEF90023B3602800FEF756FA354B59699A697F231800084000090F25284086003018460028000840301820600E0A33401B092B40980061
:40608000C31858003540281860608023DB030B40581E8341DBB26373002B12D0080C1F2303401B090F2633409D00EB185D0030402818A06080239B030B40581E8341237354
:4060C0000BE0080C3F2303401B090F2633409D00EB185D0030402818A060090E072319402161383313401B090F210B409800C31858000B001340C3186361100A1F230340A3
:406100001B090B409D00EB185D0008402818A061120CFF2313401B090B409800C31858000A408218E26170BD0CE5001000002740F0B55F4656464D46E0B48CB083468A46FF
:4061400091461D00149C3B2804D9DA21FF318C48FEF736F953463B2B04D9ED2149008848FEF72EF94B46172B04D9DC21FF318448FEF726F9631E0B2B04D9EE214900804888
:40618000FEF71EF9159B632B04D9DE21FF317C48FEF716F9159BFA22D200944663441F00661E0B2E04D9EC2189007648FEF708F9754BFB18642B03D974497248FEF700F9FC
:4061C000734B9E5D022C1ED16F4BFB18642B03D970496C48FEF7F4F8BB0705D16421380002F01AF9002908D1C8214900380002F013F9002903D1012302E0012300E0002355
:40620000002B00D00136002D00D1AEE0B54200D9ADE05B46049353460593FEF76EF901905D4B1B69DB070BD45B4B9B689B0707D4594E0123B360B720FEF7B6F80023B3604C
:406240000198FEF75EF9544B5B695B0205D404AB00225A734A4606921AE0012204AB5A734B460B2B0AD90C2B02D94A460C3A00E04A4604AB069201221A7309E04B46002BA3
:4062800001D10C3300E04B4604AA0693002313736B1E1E2B04D9D92189003A48FEF790F8631E0B2B03D93D493648FEF789F8364BFB18642B03D93A493248FEF781F8022C96
:4062C00003D820000C30013F00E0200001301A2358430A2102F01AF82818C019BE0886196421380002F012F8430018184300F618C8214900380002F009F83018072102F035
:406300008BF8002900D10731089109950A94159B0B9303AA02A904A8FFF7C6FDFEF7EDF805001D4B1B69DB070AD41B4B9B68DB0708D4194A916802230B439360002402E04E
:40634000184C00E0174C002C0BD1134B029A5A61039A9A619A6802218A439A603E20FEF723F82800FEF7CDF802E00F4C00E00E4C20000CB01CBC91469A46A346F0BDC04667
:406380000CE50010D0E4001030F8FFFFB1030000C4E40010950300000000274065030000660300000300A2000100A20070B50D000F4B184300040F4BD861FA24A40003E04B
:4063C000013C0120FDF7F0FF0A4B1B6CDB0701D4002CF5D1002C08D0064B196C01220A431A64DB6A2B80002000E0034870BDC0460080FFFF00003C400400160010B50004C4
:406400000E4B184001430E4BD961FA24A40003E0013C0120FDF7C8FF094B1B6CDB0701D4002CF5D1002C06D0054A116C01230B431364002000E0034810BDC0460000FF7F3F
:4064400000003C4004001600F0B583B006000A24C02149017548FFF7D1FF002804D16B46991D7248FFF7A2FF002C01D0013C00E06F48002805D16B46DA88C0235B019A421A
:40648000E6D1002825D16B46991D6A48FFF78EFF00281ED16B4606331B885B0519D40A248021C9006348FFF7A9FF002804D16B46991D6048FFF77AFF002C01D0013C00E004
:4064C0005B48002805D16B46DA888023DB009A42E6D1002804D16B46991D5748FFF766FF002844D16B4606331B883F229343B278012A15D1F178012904D88FB20222D21B7C
:4065000095B201E000250227402213439BB2302213436A46D380494BCB40494A136013E0F178002904D18FB20122D21B95B201E00025012740229343102213436A46D380AD
:40654000404BCB403E4A13606B469C1DD9883943D9803948FFF752FFF378DB1B03221340AA0092B213432380374A38498B50B0235B055B78002B04D0B0235B055B78DBB2ED
:4065800000E02123212B4FD0314BB0225205D35A9BB2002B48D0002804D16B46991D2D48FFF704FF002824D16B469A1DDB8860218B4318001380B0256D05254C2B5B603167
:4065C0000B405B08034324490B401380295BC901F020C00001400B43204919401180285BC0239B000340DB00194311801948FFF705FF002804D16B46991D1948FFF7D6FE66
:40660000002811D16B469A1DD988C023994311800F4BB0204005C05A302303409B00194311800F48FFF7EAFE03B0F0BD021E000004001600031E0000091E00000048E80148
:40664000F00000080024F40064F0010000003C4016180000071E00007FF5FFFFFFE7FFFF061E000070B50C004000084901430848FFF7C4FE051E04D106490748FFF7BEFE16
:4066800005006001FDF790FE280070BD01100000081E0000376800000F1E00000349044A8858102303438B507047C04600003C4070F00100F0B59DB013A9144B0A00180003
:4066C00070C870C270C870C270C870C20AAD28001A002432D0CAD0C0D0CAD0C0D0CAD0C001AC22004833C1CBC1C2C1CBC1C2C1CBC1C20748FDF70CFB29000648FDF708FB60
:4067000021000548FDF704FB1DB0F0BD48E50010000132408001324000023240F8B5051E00D1D4E06E4B5B689B0301D5FDF70CFE6C4C03E0013C0120FDF736FE6A4B6B4A99
:40674000D358002B01D0002CF4D1694B674AD358DB0704D5674BD358DB0700D5B9E0624B624AD358002B00D0B5E0FFF7A3FF5F4B6149624A99502A788021C9020A436049F0
:406780005A506049604A9950802252009B58DB0700D5A2E05D4B1B6F1B0709D45C4B18685C4B984206D9190001F0B0FD013802E0012000E000204D4B1B68002803D04003CF
:4067C000554A104300E055481843484B1860444B5B695B000ED501210320FDF70DFC404B5B695B000CD53E4A93698021C9050B43936105E03D494A4A8858032303438B500B
:406800003A4C3B4AA658474B3343A3504020FDF7CBFD454BE358DB070BD42700424C01233B514020FDF7C0FD03233B514020FDF7BBFD3E4F37403E4E3E432D4B2B4AD65054
:40684000FA24E40003E0013C0120FDF7ADFD394B394AD358DB0601D4002CF4D1002C01D0002400E0354C002C23D12049344A8858082303438B500120FDF798FB002801D107
:40688000304E3E43304B1E4001231E43184B174AD650144E03E0013E0120FDF785FD154B124AD358DB0701D4002EF4D1002E00D1224C002C03D12800FFF7C6FD0400002C67
:4068C0000CD168782978FFF7CDFE040006E01F4C04E01F4C02E01E4C00E01E4C2000F8BD00002640F07E0E006CF0010000003C40A0F00100B4F0010006000001A4F00100DD
:40690000A8F0010001000100ACF0010000F03D40F800000800093D00041A0080040A0080C4F0010030000300B0F00100EFFFFEFF20000200104000000000324004001600CE
:4069400068F0010028000200FFFFFBFF010016000300160002001600014B18687047C046F000000810B5002405E02000FCF7BCFD032804D00134042CF7D9002000E00120E4
:4069800010BDC046A023DB00064AD35803221340012B03D0032B03D1012002E0012000E0002070470000264070B50378012B02D0082B44D049E0294B1B78012B47D00320B6
:4069C000FCF778FB264B984243D0FFF7CBFF012841D0022009F062FC0500FDF78EFD214B186009F068FC0400062817D0022D0AD102200BF069FB032C01D0052C10D10028BD
:406A000010D0194C13E001200BF05EFB022C0BD000280BD1FDF752FC134C08E0002406E0114C04E0002402E00F4C00E00E4C0E4B9C4211D10B4B1868FDF763FD0CE0094BAA
:406A40001868FDF75EFD002406E0074C04E0064C02E0054C00E0044C200070BDE04C0008010188006C3C0008FF00420010B50248FDF78AFB10BDC0461401000810B50028F0
:406A800017D00D4B5860C36A002B01D00A4A936000240A4B1C700A4B1C700A4B1C600A4B1C7000F0E3FB094B1C70094B1C70002000E0084810BDC0466C3C0008F84C00082A
:406AC000FC4C0008004D0008FD4C0008DF4C0008E44C00080100160070B590B00CAE102510222A49300003F092F902AC28220021200003F095F9264B0293A660254BA3811D
:406B00000423A373244A526812692261234A62611B2222836283183A227763770233A377E5771A33E5540133E55451336384023A4C3BE2541A48FDF7E9FA09F093FB08A8C4
:406B400009F026FC00281FD1164B039302A809F0C7FB002815D10122134B1A700023134A1370134A13700C4B5B681A6A00929B6ADB886A46938080235B00D380684622F01E
:406B800025FE00220B4B1A6010B070BDB4E500103D790010542900006C3C000896100000140100089C0B0008E04C0008E84C0008E94C0008004D0008014B024AD050704754
:406BC00078F0010000003C40002803D0024BD860002000E0014870476C3C00080100160010B511F0D1FF044B1B68002B02D0002800D0984710BDC046783C000810B50028B1
:406C000009D0FA23FF33994207D80A00044903F0FEF8002002E0034800E0024810BDC0460708001601001600F0B55F4656464D464446F0B4B14CA54481460E0090460593DC
:406C40000B00AF4A914204D942468A18AD498A4211D9AD4A934204D94246B218AB498A4209D9AB4A934200D823E14346F318A94A934200D922E1A84B5B695B0010D5A64B27
:406C80005B6907241C40022C25D10520FDF738F90190A24B9842F8D003940123049324E09F4B9D4AD3581F221A40E823DB00B0214905CB5C9B1A5A1E9341DBB20493002B92
:406CC0000FD10120FDF7BEF9944B9842F9D001900523039309E00394012304930023019303E005230393002301938E4B019A9A4204D1D621FF318C48FDF762FBF0231B0628
:406D00009C466644730A9A465C0200210320FCF745F90028F9D100250023029399E0B4421BD3BD4219D24A4652191078804606A84146C154594600290DD18021490588468B
:406D4000A044414609786846017001781278914201D001229346013505E080225205A218127806A8C2540134013304E0002100238B46844647466D4A9342D0D95946604616
:406D8000B846002962D0019B002B5FD1059B002B51D1C83300951D00B3465646A24680231B03F7187F023800FCF72EFF0400013D0120FDF7F9FAA423DB0322001A409A427C
:406DC00001D1002DEBD122000294009D5446B2465E46574B9A4205D1FCF712FF554B9842FAD00290029B002B19D1C83300971F00A34606A90098FCF747FF0400013F0120EE
:406E0000FDF7D2FAA423DB0322001A409A4204D1002FEED102945C4601E002945C46444B029A9A4211D1FCF7EBFE424B9842FAD0029001200AE0802000035044400206A9C6
:406E4000FCF79CFE0290012000E0012001239C46E244029B019A134301D1454586D3002801D0FDF7BBFA00210320FCF7DDF80028F9D1019B002B25D1274B5B695B0009D596
:406E8000039B022B06D10220FDF73AF80190234B9842F8D0204B1B681B0213D4049B002B10D10020FDF7CEF801901C4B9842F8D008E000230193204B029303E000230193FD
:406EC0001D4B0293019B002B0CD11C4B029999420AD0194B994207D0002901D1002004E0174802E0174800E0174887239B009D443CBC90469946A246AB46F0BDE4FDFFFF0E
:406F0000FFFFFF0F00001010FFFFFF1300800014FF070016000A001600002640040042001CFF000003004200C4E60010FF0100000100500002005000060052000200520030
:406F400013001600120016000100160010B500280AD0FA23FF33994208D8F93BFF3B0A000349FFF761FE02E0024800E0014810BD070800160100160010B50023FFF754FE31
:406F800010BDC04670B5C0B005000C001600802252000849684602F03AFF05E02A7872406B469E5C0135013C002CF7D1300040B070BDC046C4E5001010B50022FFF7E2FF0F
:406FC00010BDC04600207047B0235B05588880B27047C0460020704710B5FDF7E5F910BD064B1B685B6B00229A5E002A05DB1F231A401E3B9340024A13607047703C0008FA
:4070000000E100E0094B1B685B6B00229A5E002A0ADB1F231A401E3B9340802204498B50BFF34F8FBFF36F8F7047C046703C000800E100E0A023DB00024AD3580320184035
:407040007047C04600002640024B034AD058C00F7047C0461C0500000000264010B5FCF75DFC10BD70B504000D0016000320FCF721F8054B984205D0320029002000FCF752
:4070800071FB00E0014870BD0101880003004A0070B5431ADC171B196340934227D3164B164CE458A405A40D884208D9401A51084018110001F02AF9201A0ED50AE0081ABF
:4070C00051084018110001F021F900190C4B984202D802E0002000E00A48084D06496B589B0A9B028205920D13436B5001E000240020201A70BDC0463C0500000000264052
:40710000FE030000FF03000010B5034B1A6880210902FFF7BDFF10BD2C01000810B5FFF7C9FA0220FFF748FD094C2368586B0949FBF722FE23685B6B00229A5E002A05DB00
:407140001F231A401E3B9340034A136010BDC046703C0008E16B001000E100E00420704710B5FDF7CAF910BD10B5FDF7CAF910BD10B5FDF7A3F810BD10B50021FCF73CFF41
:4071800010BDC0467047C0467047C04600207047004870471100160000487047110016000048704711001600004870471100160000487047110016000048704711001600C7
:4071C000004870471100160000487047110016000048704711001600004870471100160000487047110016007047C04670B5002908D11D4B1B681B689C68E67F00230021D2
:40720000002513E0184B1B681B68DC68E67FF5E7E15C00290ED00133DBB2E25C083AD2B2012A02D9CB18DBB200E00125B34201D2002DEDD0002D15D0C918C9B20133DBB2E2
