:020000041000EA
:4000000000400208310100100D000000950100100000000000000000000000000000000000000000000000000000000091010010000000000000000091010010910100109B
:4000400091010010B123001091010010910100109101001091010010910100109101001091010010910100109101001091010010910100109101001091010010910100101E
:400080009101001091010010910100109101001091010010910100109101001091010010910100109101001091010010910100109101001091010010910100109101001020
:4000C00010B5064C2378002B07D1054B002B02D0044800E000BF0123237010BD70360008000000007CDA0010084B10B5002B03D00749084800E000BF07480368002B00D170
:4001000010BD064B002BFBD09847F9E700000000743600087CDA0010C4070008000000007047EFF3108072B6704780F310887047FFF7F6FF72B6104C104DAC4209DA216811
:400140006268A368043B02DBC858D050FAE70C34F3E70B490B4A0020521A02DD043A8850FCDC094809490860BFF34F8F02F0C6F801F0D0FEFEE7000070EB021088EB021070
:40018000703600082C4C00080000000808ED00E0FEE7FEE700B504207146084202D0EFF3098001E0EFF30880043004F0A5F8FEE730B587B0424B1B78012B0AD0002B04D01D
:4001C000022B3BD0032B4FD051E003223C4B5A704DE001F099FF002803D10322384B5A701CE00F216944012001F098FF002815D00F236B441B78022B10D104A9062001F0DA
:400200008DFF00280AD004ACE378A27861782078657901952479009401F00AFF01F082FF002803D08022274BDA6020E001F086FF00281CD02022244BDA6018E001F064FF7F
:40024000002809D02022204B5A6060321D4B9A607F3A1B4B5A700AE001F050FF002806D10322174B5A7002E00222154B5A70144B1B78032B0FD1124B5B78022B0BD18022B4
:40028000104B5A60603A104B9A6064210A2001F041FF0DF08DFD0A4B19785A781A70914288D10A4B00229A5E002A07DB1F231A401E3B9340C022520005498B5007B030BD21
:4002C0008C360008800632408000324060B1001000E100E0F0B585B03C4809F0EFFD3C48822189004358DB05DA0D4358DB0B01210B409B18002BF2D1642009F08DFC070077
:400300002D2252420021012001F0F4FE380001F09BFE0028FAD03B78012BF7D11023F85E08F02CF9041CF86908F070F9051C011C201C07F0EDFF0090B86908F067F9041C4C
:40034000011C009807F0CAFE01901223F85E08F015F9011C281C07F0DBFF211C07F0BEFE00901423F85E08F009F9011C281C07F0CFFF211C07F0B2FE041C019808F0DCF81F
:40038000050086420BD1009808F0D6F8029B834205D1201C08F0D0F8039B83420CD00D4B00229A5E002A07DB1F231A401E3B93408022520008498B50009808F0BDF8029086
:4003C000201C08F0B9F803902E009FE768AC00100000664058B1001000E100E0F0B595B00023002400252EE01A005E00F618B1005C4E71188E6801000A31B1420CD35E00FD
:40040000F618B100574E71184E688E606E1CAD006F46E951F5B206E0361A5F00FF18B900504F79188E604F4E51008A18910071188F68610009198A00B2189268974200D2BE
:400440001C000133DBB2484A12789342CCD3620012199300434AD3189E68444B9E422CD8434B1B69042213405A1E9341DBB2002B02D073427341DBB2002B03D03D493E489D
:4004800003F006FF3A4CE3681B0C1B043604360C1E43E6603E2003F0EFFE23695B0503D53449354803F0F4FE314AD3681B041B0CD3603E2003F0E0FE30E02D4E3369F36849
:4004C0001B0C1B042D4F3B43F3603E2003F0D4FE63001C19A300234AD3189868390007F05DFB441E32698023DB0013405A1E9341DBB2002B02D063426341DBB2002B03D0B3
:400500001C491D4803F0C4FE194BD8680004000C24040443DC603E2003F0AEFE144A5368D268120C1B0C9A420DD8114C6369144E334363613E2003F09FFE636933436361CE
:400540003E2003F099FE002407E0A3006A469B58187800F021F90134E4B2A542F5D815B0F0BDC046204A00088E360008FEFF000000022640F702000080AC0010FFFF0000DB
:400580000808000070B5174B9B699B071BD5154D0223AB61AB69E868EC682404230C040C01345C436B698026360133436B613E2003F062FE6B6933436B613E2003F05CFE23
:4005C000601CFFF70BFF084B00229A5E002A07DB1F231A401E3B9340C022520003498B5070BDC0460002264098B1001000E100E0F0B5474680B4060014001D00130C290445
:4006000019431004001BA941FA22D200002307F03BFC00230121494209E05A00D2189200414FD25DB24200D159B20133DBB23F4A1778BB42F1D323002B4309D04B1C07D0A6
:40064000394C4B005A189200A2185060906041E023002B431AD04B1C18D133497B00DA1992005654DA1992008A18506090607A1C2E4B1A70002F2DD12D4A53690221FF3127
:400680000B4353613E2003F0F7FD23E02C4343D14B1C43D0C8B20DE0421C234B4100091889005400A218920059189B1834CB34C10130C0B27B1E9842EEDBDFB21B4B1F70B8
:4006C000002F07D11A4A51691A4B0B4053613E2003F0D2FD164D6F686E683604360CEC682404240C6B69144A904613436B613E2003F0C2FD6B69424613436B613E2003F010
:40070000BBFD3F0C7C43A019084B1B78002B07D0FFF764FE012004E0002002E0002000E0012004BC9046F0BD204A00088E36000800022640FEFEFFFF0808000010B51149C4
:40074000114802F0BDF900281BD10F4B00229B5E002B07DB1F21194001228A40C02149000A484250002B06DB1F2213401E3A9A401300064A1360064802230362054905F08B
:4007800065FA10BD8505001098B1001000E100E000022640F8C8001010B5A22822D004D80E2855D0A12807D048E0BA2850D0EE284ED0A3282CD041E00122264B1A70002243
:4007C0000023A120FFF714FF234B00229A5E002A3EDB1F231A401E3B9340802252001F498B5035E001221E4B1A7000220023A220FFF7FEFE184B00229A5E002A28DB1F2332
:400800001A401E3B93408022520014498B501FE00122144B1A7000220023A320FFF7E8FE0D4B00229A5E002A12DB1F231A401E3B93408022520009498B5009E00F23020088
:400840009A431300C02A03D1B13B184000F020FD10BDC046694B000860B1001000E100E0684B00086A4B00087047C04610B50A0040235B421843C0B20023FFF7B9FE10BD9A
:4008800010B5FFF75BFF084809F018FB0748822189004358DB05DA0D4358DB0B01210B409B18002BF2D110BDC0AC001000006640094B1A685B68D25CD109930901201840B6
:4008C0003F231A40002902D1002802D102E0002000E010007047C04690360008F0B583B0234B9C68FF231B1B93423DD3A418204B9C601F68DC683B199C461B78DD099B0900
:4009000001263340002D03D1002B03D0002602E0002600E001260196002E21D080235B4219436346197006680134114BDC60FF2C01D10021D96000210BE00D4CE3680131F1
:40094000755CFD540133E360FF2B02D10024084BDC60531E9942F0D363460360019804E000230360019800E0002003B0F0BDC04690360008026813783F2003408B4208D106
:40098000402319431170044A137C013313743E3800E000207047C04690360008F0B583B0274B1E685D6873199C461C783F2323408B4240D1224B9B6893423ED39B1A204FAA
:4009C000BB60E309A40901273C40002B03D1002C03D1002702E0002700E001270197002F25D040235B4219436346197007680135134B5D60FF2D01D10021596000210FE076
:400A000001310F4C6368F5182B787B5400232B70636801336360FF2B02D10024084B5C60531E9942ECD363460360019806E000230360019802E0002000E0002003B0F0BD18
:400A400090360008026813783F2003408B4207D100231370034A137C013B13743E3800E0002070479036000801398900014BC8507047C046384B000801398900014BC85096
:400A80007047C046104B000810B5FF2009F0C4F80F4B1860002304E0C218002111700133DBB2FF2BF8D10A4B00221A74DA605A609A60012409E021000120FFF7D5FF210046
:400AC0000120FFF7D9FF0134E4B20A2CF3D910BD9036000810B51F49087089600123CB600B7404311C4A1D4804F0E4FB002408E00134A4B2FA239B009C4227D8012003F030
:400B0000BBFB1549154804F00DFBC303F0D411490B0014338B600123CB6000230B7404310D4A0E4804F000FB0B490C4804F0FAFAC303F9D40134FA239B00A4B29C4207D842
:400B4000012003F099FB034B187D02E0002000E0002010BDA8360008DC4B00080000644010B50B4B187059709B600222DA6000221A74191D074A084804F09CFB05490648EF
:400B800004F0D0FAC303F9D4012003F075FB10BDA8360008DC4B000800006440F0B55F4656464D464446F0B483B04B4B28215A5E92462A215A5E91462C215A5E9046382282
:400BC0009A5C12023921585C024312B21A8501315D5C2D020131585C05432DB25D8501315C5C24020131585C044324B29C853B4B1B78002B03D00022384B1A7065E0364BEC
:400C00009E6CDF6C196A5B6A9F4257D801D18E4254D836B20BB25146501A70430193190007F046F8504482B292462B4F40229346BB445A46514611824A46A81A7043019941
:400C400007F036F8484485B25A4655824246A01A7043019907F02CF8404480B25B4698823B6E52465A809D80D8807B663800643008220221FFF732FE002804D002211648CD
:400C80006430FFF777FE14498A6E00238C6CCD6C12196B418A64CB64086A496A994202D804D1904202D9FFF779FF0EE00A4CE06E0021121A8B41A264E36406E00649CA6E69
:400CC0000023B61A9F418E64CF6403B03CBC90469946A246AB46F0BDA8370008C000000810B51E220C4B1A7140212120FFF738FF0A2003F0A7FA0F20FFF7ECFE082008F0C4
:400D00008BFF064B186691212020FFF729FFC0212520FFF725FF10BDA8360008A837000810B59A4A7023D15A072900D92CE18B00974AD3589F4601217023944AD152954BE1
:400D40005B78002B5FD0934B00225A709A78082A4AD89300904AD3589F468C4B20217422995474337C325A703EE0884B20217422995474336C325A7036E0844B202174225F
:400D8000995474335C325A702EE0804B20217422995474334C325A7026E07C4B20217422995474333C325A701EE0784B20217422995474332C325A7016E0744B202174226B
:400DC000995474331C325A700EE0704B20217422995474330C325A7006E06C4B202174229954743300225A706C49684B74338B600223CB6000230B740431694A694804F0BE
:400E000059FA0020C1E0614C00227623E2526349604B04338B600123CB600B740431604A604804F047FA02227023E2520020ACE05A490B0014338B600123CB6000230B7497
:400E40000431574A574804F06FF9032170234F4AD152002099E0514B1B7D9B0609D54B4B8021490076229952FB39063A995200208BE04A49474B08338B600123CB600B74DC
:400E80000431474A474804F015FA042170233F4AD152002079E041490B0014338B600123CB6000230B7404313D4A3E4804F03CF905217023354AD152002066E07623334A03
:400EC000D25A8A339A420AD0344B1C7D0621200006F0EAFEC9B2641A76232C4AD4522F492C4B0C338B600123CB600B7404312C4A2C4804F0DFF906217023244AD1520020AB
:400F000043E026490B0014338B60204C7623E35ACB6000230B740431214A224804F004F907227023E25200202FE01C4A1319187D164B39215854611C5118087D38215854BB
:400F4000A11C5118087D3B215854E11C5118087D3A215854211D5118087D3D215854611D5218117D3C229954FFF718FE0634A4B200E000247623054AD35A9C42D5D3002179
:400F80007023D152012000E0002010BDA8370008D4AC0010C0000008F4AC0010A8360008DC4B00080000644010B50C00514B9B6F8B4202D14F4BD86E9BE04E4B99670122B7
:400FC0004D4B5A70002909DACB17C9185940FA20800006F06DFE474B986601E0454B9966002C07D10822444B9A70424B0022DA66DA676BE0631C01D0002C0ADD07223E4BD5
:401000009A703C4BFA229200DA66FA229201DA675CE023000C330A2B09D80622364B9A70344B4A32DA66A022D200DA674EE0230019330C2B09D805222F4B9A702D4B23329D
:40104000DA66A0229200DA6740E023003233182B09D80422284B9A70264B1032DA662D32FF32DA6732E023006433312B08D80322214B9A701F4B0732DA669632DA6725E0D4
:401080002300C833632B08D802221B4B9A70194B0332DA664B32DA6718E023009133FF33C72B08D80122144B9A70124B0132DA661E32DA670AE0114B9C4218DA00220E4B18
:4010C0009A700C4B0132DA660F32DA67A02292020B4B9A6062220B4B9A60064B9A6E9A640022DA64D96E19625A62D86F01E00120404210BDA8370008C000000870FEFFFF38
:40110000104B0008384B000810B5072008F084FD014B186010BDC046644B000810B5174B1B78072B14D1164808F0C8FE1548822189004358DB05DA0D4358DB0B01210B4048
:401140009B18002BF2D100220C4B1A70012014E00D4808F0B3FE0B48822189004358DB05DA0D4358DB0B01210B409B18002BF2D1024A137801331370002010BD2838000865
:4011800018AD0010000066403CAD0010004870478813000010B50549054803F0C3FF80235B021840431E9841C0B210BDDC4B00080000644010B5FFF7EDFF002839D11D4B27
:4011C0001B78002B35D01B4B5B78002B08D10122184B5A70184A1368802109060B431360144AD37BD3181B79012B02D0062B05D008E0FFF795FD002804D11AE0FFF78EFF38
:40120000002816D00B4CE07B231800221A7101300B2106F033FEE1732378013B23706378002B06D00549044803F040FE0022014B5A7010BD2C38000800006440DC4B0008D9
:4012400010B5C023DB02184205D0FFF7A3FF002801D1FFF7AFFF10BD10B504000800012C02D0062C04D007E01100FFF79DFE05E01100FFF78BFF01E001204042431C05D02A
:4012800001002000FFF7F2FA012000E0002010BD70B5094B1C780A2C0CD81D001B7CEA181071581C0B2106F0E9FD297401342C70FFF780FF70BDC0462C38000870B5FFF7C6
:4012C000E3FB134C0123637006F06CFB114D124B6B64FFF705FDFFF717FF29000F4803F0E5FD002363700A2002F0ACFF0C4808F0E5FD0C48822189004358DB05DA0D435812
:40130000DB0B01210B409B18002BF2D170BDC0462C380008DC4B0008411200100000644058AD00100000664030B50E4B1A6864239B1A834214D312180A4B1A605B680022A3
:4013400008E0084CA4688D5CE5540133642B00D1002301328242F4D3024A5360012000E0002030BD4038000810B50D4B1B68834214D31B1A0A4A1360D368002208E0084C20
:40138000A468E45C8C540133642B00D1002301328242F4D3024AD360012000E0002010BD4038000810B5642008F036FC064B986000225A60DA60002303E0C218002111704B
:4013C0000133632BF9D910BD4038000810B50E4B1B68834216D31B1A0B4A1360D36800220AE0094CA468E45C8C540133FA24A400A34200D1002301328242F2D3024AD360EE
:40140000012000E0002010BD5038000810B5FA20800008F001FC074B986000225A60DA60002303E0C218002111700133024A9342F8D910BD50380008E7030000F0B5574649
:401440004E464546E0B48EB000AFC04B1C785D78BF4B984231D8BF4B984200D35AE1BE4B984200D156E111D8BC4B984200D151E103D8013B984244D03BE1B94B984200D1F1
:4014800048E1B84B984200D033E143E1B64B984200D13FE108D8B54B984200D13AE1B44B984200D113E124E1B24B984200D18EE0B14B984200D1A9E01BE1B04B984200D121
:4014C0009EE00FD8AE4B984200D1A3E004D8AD4B984200D00DE11DE1AB4BC318012B00D907E117E1A94B984200D1C1E004D8A84B984200D9FDE00DE1A64B984200D0F8E040
:4015000008E118230822BA18D0180023C37521F0CFFC28230822BA18D0183B6B190A1A0CFB6086883E828079B874D8B28446C8B2D2B21B0E9846310A000263461843120450
:40154000104343461B061843F6B209023143924A002306F099FC96B2300B092106F08EFC3031CBB29A4630120F2398461840092106F084FC3031CBB299463011434618404E
:40158000092106F07BFC3031CBB298460F203040092106F073FC30314B233B751E337B756E22BA750132FA75173A3A767B763C3BBB765346FB764B463B7743467B77B977F7
:4015C0000C23503ABA18D01805F0D6FCA2E0734B197802394A424A41D1B25C4B1970704808F0F0FB6F48822189004358DB05DA0D4358DB0B01210B409B18002BF2D189E003
:40160000524B00221A7001325A7083E000224F4B5A707FE0644823F047F8002816D1624B1E79002E0DD1002313E0604A11785E4A1068DA008218D279914209D00133DBB22A
:4016400000E00023B342F0D3002302E0002300E00123002B5ED1564B1B685A6A1178090758D0524909785171586A22F0E3FF51E00B89122B23D16B467B608888C31DDB0897
:40168000DB006A46D31A9D466E46002303E00A68D25CF25401338342F9D33100FFF744FE444B00229A5E002A07DB1F231A401E3B93408022520040498B507B689D463B4AE1
:4016C000137850780002184324F0BEFE22E0384B1B684A79596A4A71586A22F06FFF002818D022F0FBFF324B1B68586A22F066FF10E00100314808F065FB2A48822189002A
:401700004358DB05DA0D4358DB0B01210B409B18002BF2D10D4B1B789C4203D10B4B5B789D420CD0234B00229A5E002A07DB1F231A401E3B9340802252001F498B50BD46A1
:401740000EB01CBC90469946A246F0BD603800080A400000094000000230000001100000041000000420000004400000063000000140000006400000084000000150000041
:40178000104000000C400000EEBFFFFF0C5000000350000017500000F5260000814B00086CAD001000006640D0000008744B0008003B000860B1001000E100E09CAD0010F1
:4017C00000B585B00CF0F4FA164B5B78002B21D0154B5B78154AD35C002B1BD1114904310120FFF7F3FD002814D010220021684608F034FA0B4B0433009301236A4693801D
:40180000133313810222084903A808F01EFA684624F00CFE064B1B78002B01D005F020FA05B000BD60380008744B0008944B0008774B000810B5FFF797FD10BD70B5050013
:401840000C0013292AD9FA218900200006F0A6F980B2A84224D8134B5B78002B1BD1114B1B78002B17D1FA20800060430E4906F095F90E4B1A681582526880B210801B68D9
:401880005B68013058800021022005F0B3FA002801D10CF08DFA034B187802E0002000E0002070BD60380008710200002001000810B5FFF7ABFDFFF775FD0D4806F046F85D
:4018C000002804D10CF074FA0A4804F04DFE0A4808F0F4FA0948822189004358DB05DA0D4358DB0B01210B409B18002BF2D110BD3D140010C1170010B0AD00100000664021
:4019000001220E4B1A700E4B00229A5E002A07DB1F231A401E3B93408022520009498B50094B00229A5E002A07DB1F231A401E3B9340C022520003498B507047FB380008AA
:4019400060B1001000E100E058B1001010B50D4C0D49200001F0B4F80022A35E002B07DB1F21194001228A40C021490007484250002B06DB1F2213401E3A9A401300034A48
:40198000136010BD58B100100119001000E100E0114B5A6910225A615B690F3A0F4B1A700F4B00229A5E002A07DB1F231A401E3B9340802252000B498B500B4B00229A5E0B
:4019C000002A07DB1F231A401E3B9340C022520004498B507047C04600003240FE38000860B1001000E100E0A0B1001010B5104C1049200001F064F80F4B5A6910225A6116
:401A00005B690022A35E002B07DB1F21194001228A40C021490009484250002B06DB1F2213401E3A9A401300044A136010BDC046A0B10010911900100000324000E100E058
:401A4000F8B5274B9E2292009958083A99509B58244B1B78282B18D1234A1378013BDBB21370002B0BD11E4B20225A600021B3229200995080225A60002000F017FA194BA6
:401A800000221A709A785A701BE006F06FF806F055F8144C63782078144D9A00D618F100091849004F5B0E49B526B6008F517B08B32292008B500022B2239B00CA500130D8
:401AC00020700B4B00229A5E002A07DB1F231A401E3B9340C022520006498B50F8BDC04600003840E8380008D8000008C8AD001070B1001000E100E010B51E491E4800F080
:401B0000DFFF002834D11D4B9E2292009958083A99509B58184B00229B5E002B07DB1F21194001228A40C021490015484250002B06DB1F2213401E3A9A401300104A1360F5
:401B40000D4B00229A5E002A07DB1F231A401E3B9340802252000A498B5006F007F805F0EDFF064B0021B3229200995080225A6010BDC046411A001070B100100000384022
:401B800000E100E0F0B557464E464546E0B44E4BFC2252009958083A99509B584B4B1F783C2F26D14A4A1378013BDBB21370002B14D1454B08225A615A600022862149000C
:401BC0005A5080315A5040395A5001325A6003325A60023A5A60002000F068F93B4B00221A709A785A701A79DA70394B9A785A7058E0374B5B789846344C6378354A914613
:401C00005D00ED18A85C43465843FF2106F050F880B2E3789A461E01F31A9B004B44DB191B7E5843FF2106F043F8E0804D44687843465843FF2106F03BF880B25346F31A6A
:401C40009B004B44DE19367E7043FF2106F030F82081A87843465843FF2106F029F880B27043FF2106F024F8608105F0EFFE05F01DFF05F0D3FE1849E388CB18187A124B33
:401C800086225200985062898A18107AC6225200985022898A18117AA622520099502378013323700D4B00229A5E002A07DB1F231A401E3B9340C022520009498B501CBC4D
:401CC00090469946A246F0BD00003840EC380008D9000008B8AE0010B8AF001078B1001000E100E070B52049204800F0E9FE002838D11F4BFC2252009958083A99509B5847
:401D00001A4B00229B5E002B07DB1F21194001228A40C021490017484250002B06DB1F2213401E3A9A401300124A136005F0A6FE05F08CFE0E4C002586235B00E5500C3BAA
:401D4000FF3B636005F0B2FEC6235B00E550893BFF3B636005F062FEA6235B00E5504B3BFF3B636070BDC046851B001078B100100000384000E100E010B5234BAE2292006C
:401D80009958083A99509B58204B1B78142B1AD11F4A1378013BDBB21370002B0DD11A4B40225A615A600021CD32FF329950FD3AFF3A5A60002000F079F8144B00221A7077
:401DC0009A785A7012E005F0A1FE05F087FE0F48027843789900CB1899000E4B59188C5C83239B000849CC50013202700A4B00229A5E002A07DB1F231A401E3B9340C0223C
:401E0000520006498B5010BD00003840F8380008DC000008C0B0001068B1001000E100E010B51E491E4800F04BFE002835D11D4BAE2292009958083A99509B58184B002204
:401E40009B5E002B07DB1F21194001228A40C021490015484250002B06DB1F2213401E3A9A401300104A13600D4B00229A5E002A07DB1F231A401E3B9340802252000A497E
:401E80008B5005F043FE05F029FE064B0021832292009950FD3AFF3A5A6010BD791D001068B100100000384000E100E0002804D0074A13780133137003E0054A1378013BDC
:401EC0001370034A1378591E8B4153707047C046DD00000810B5FFF789FDFFF737FDFFF701FFFFF709FEFFF79BFF084807F0E6FF0748822189004358DB05DA0D4358DB0B67
:401F000001210B409B18002BF2D110BDFCB000100000664010B500F017F8002010BDC04670B50C001600002507E02178054802F09BFA0128F9D101340135B542F5DB300098
:401F400070BDC0460000664010B5314C314A3249200003F02BFB236880221206134323602E4807F0ABFF2A48822189004358DB05DA0D4358DB0B01210B409B18002BF2D153
:401F8000274807F09BFF2248822189004358DB05DA0D4358DB0B01210B409B18002BF2D162B6FEF76DFCFFF789F9FFF781FCFFF791FFFA20800002F045F91A4C1A49200000
:401FC00000F07EFD0022A35E002B07DB1F21194001228A40C021490014484250002B06DB1F2213401E3A9A401300104A13600D4B00229A5E002A07DB1F231A401E3B9340B0
:402000008022520009498B50FEF764F910BDC04600006640A44B0008D4C20010C4AD001014B1001060B10010B101001000E100E030B583B006AC247807AD2D780195009434
:40204000FEF712FC03B030BD10B50400FEF730FC012802D0022824D042E02348031D036007220121FEF79AFC002803D001211E48FEF7E8FC062323701B4B5A79120299795D
:402080000A432261DA791202197A0A4362615A7A12029B7A1343A361144B5B68E361012021E0114803000C33036008220221FEF775FC002803D002210B48FEF7C3FC01236D
:4020C0002370094BDA8922821A8A62825B8AA382064B9B68A361064B9B68E361012002E000232370002010BD00390008104B0008384B000810B5FFF7AFF810BD014B187890
:402100007047C04660380008014B18787047C0466138000810B5FFF791FB10BD10B5FFF789FB10BD044B00201856421E9041C0B200221A707047C046FE380008024B1878E4
:4021400000221A707047C046FB38000870B56249E0239B00CB580F2213401A00D0329200525807210A40032A05D0042A06D0002A12D15A4814E05A4A106811E01A00C0321A
:402180009200554952581F210A40112A06D0132A04D0FA20C00103E0524801E080200002002B36D14C4BB222D2009A5801211140B125ED005A59120F032422405B591B0FEC
:4021C0001C4207D0444C63591B0F03242340012B02D102E0012300E00023002B01D0002901D1032A4BD13C4BB022D2009D58AD03AD0B3D495958C904C90C9C58240E0123B7
:402200001C40013405F0CAFC6843210005F0C6FC35E0012B33D1304BC822D2009A5801251540C024E4001A59120F03210A401B591B0F194207D028490B591B0F03210B40DE
:40224000012B02D102E0012300E00023002B01D0002D01D1032A12D11F4DC022D200AB587F210B40A958090A1F263140AC58240C3440584305F092FC210005F08FFCE02309
:402280009B00154AD3581B0903221340D840144C6060164B1D692D0AFC32154001351969090E013105F07AFCA060290005F076FC0500E06020610E4BC0180E4905F06EFCDB
:4022C00020750D4BE818FA21890005F067FCA061C003E06170BDC0460000264000127A00E000000800366E0184050000000021403F420F0040420F00E703000010B5234B16
:40230000B021C9005A58520052085A50E02080001A583024A2431A50802252045A501C491C4A9950A021890104329950FF211A4A995081315A58920092088020C0050243FF
:402340005A505A588020000602435A505A58012082435A5000F000FAFFF7F8FE00F030F800F038F801F096FAB0235B055B78002B04D0B0235B055B78DBB200E02123212B93
:4023800003D1064B0022DA605A6010BD0000264001000200840500008C050000E00023408023024AD3580320184070470000214010B5024800F090FE10BDC04614390008ED
:4023C00010B5034A60328021042000F02FFC10BD143A000810B501F0F8FF0400044800F02BFD044800F092FD200001F0F2FF10BD1439000824B10010FEE7C046F0B5002598
:40240000002711E0BB00C658F3B2FF22964308E06A008A181478A419527822700135013BDBB2002BF4D10137022FEBD9F0BDC046014A024B1A60704701001180000E1F41DB
:4024400070B586B0934A116808230B431360924C03E0012001F010FF013C8E4B1B695B0701D4002CF5D1002C01D18C4B00E00023002B02D00520FFF7BFFF894BA020C00018
:402480001A5803218A4302390A431A50854990240A59854802400A510A691202120A8024640422430A610A6910400861E022920099580F208143995099582130814399507D
:4024C000995880200006014399500021012000F065FE0021022000F061FE0021032000F05DFE0021042000F059FE0021002000F055FE01A86D4903000A0032CA32C312CA19
:4025000012C300F093FE002802D00420FFF774FF6349674A8B588020000603438B50654800F03EFF002802D00420FFF765FF5C4C614BE158614A0A40E250E158604A0A4084
:40254000E250E25880252D062A43E250043BE1585C4A0A40E250E1585B4A0A40802149010A43E250E258802109020A43E250494A1168564B0B401360002001F02DFF544AA1
:40258000A3582B43A350A3580125AB432B43A3503221002001F0C8FE4E4B04214E4A9950812000011A5840490A408024A40022431A508022D200494898509858FC3CFF3C98
:4025C00047481C50474C185908408826760130431851454898509858002444481C50802424011859084018514148985098580224C52000011C503F4C1859084018513E481B
:40260000985098583D481D503D4C1859084018513C489850985842243B481C503B4E9C593B4804403B4D2C439C513B4C9C509C5803263A4C1E513A4E9C590C409C51394C8B
:402640009C509C584126C62424011E51364E9C5904402C439C51354C9C509C584026344C1E51902424011E59304028431851314898509858062430481C5030481C58214086
:40268000C0246401214319502D4999509B5806B070BDC0460000274020A1070002004A000000264000002140FF00FFFFA8B10010087F0000400D030004050000FEFCFFFF49
:4026C000FFFF00FFFFF0FFFFFF8FFFFFFFFCFFFF0C050000000001400C0C000004FF0080140C00001408000005FF00804C0C000000FF00800808000002FF0080540C0000F6
:402700000408000001FF0080580C000008090000FF0000FF004A4C0042FF00805C0C00000C08000003FF00800409000041FF0080640C000040FF0080680C000018080000B5
:4027400006FF008010B50A00002107F087FA10BD10B507F07AFA10BD70B58EB09621002001F0E2FD01F0B8FD002801D101F0A4FD012001F0CFFB6A4A516C6A4B0B40E82110
:4027800089010B435364536C1B0AFF2213403A2B07D1634A516C644B0B40E82189010B4353643422002101A807F058FA5F4C01AA0021200001F0F6F83422002101A807F003
:4027C0004DFA01AA0121200001F0ECF8FFF738FE574A584B1A6000240CE0620012195300554AD318198B9A8AD88A00041043FFF7A9FF01340B2CF0D900240AE0620012197D
:4028000093004D4AD3185A6E196ED86DFFF7A0FF0134112CF2D9494D2900343128005030FFF7ECFD0F22464B1A60464A464B1A600122464B1A600232454B1A60454A116827
:4028400006230B43136001AC22002B005C3323CB23C223CB23C223CB23C22100334801F00BFA3D4D23002A0043CA43C343CA43C343CA43C32100394801F0FEF922002B00F3
:40288000243343CB43C243CB43C243CB43C22100334801F0F1F922002B00483343CB43C243CB43C243CB43C221002E4801F0E4F922002B006C3323CB23C223CB23C223CB2B
:4028C00023C22100284801F0D7F924220021200007F0C4F90823E3602100244801F0CCF9234D22002B00103343CB43C243CB43C243CB43C221001F4801F0BEF922002B00FF
:40290000343323CB23C223CB23C223CB23C22100194801F0B1F9FFF78BFD0EB070BDC04600002740FF00FFFFFFC5FFDF000032400300FA05F0012140A8B10010A8B200108C
:4029400000006440070101000002644004793440087934400079344028B300108000324080023240000332408004324000053240A8B30010800532408006324010B58308D4
:402980009A00801AC000FF228240D44381400A40072B32D89B001949CB589F46184B196A0C4022431A6228E0154B596A0C4022435A6222E0124B996A0C4022439A621CE027
:4029C0000F4BD96A0C402243DA6216E00C4B196B0C4022431A6310E0094B596B0C4022435A630AE0064B996B0C4022439A6304E0034BD96B0C402243DA6310BD30BD0010BD
:402A00000000214083089A00801AC100FF228A40072B2BD89B001748C3589F46164B186A1040C84023E0144B586A1040C8401EE0114B986A1040C84019E00F4BD86A10404B
:402A4000C84014E00C4B186B1040C8400FE00A4B586B1040C8400AE0074B986B1040C84005E0054BD86B1040C84000E00020C0B27047C04650BD00100000214070B504008C
:402A80000D000B4B9A680B4B9A420BD1002903D1FC21094801F0FCFB1034064BA400E058E55003E01034A400044BE05870BDC04600ED00E00000000870BD00100000001003
:402AC000F0B583B0041E019150D04368032B03D93621294801F0DCFB0023E05E002802DBA178FFF74BFF0023E25E6368002A12DB9008224EC0308000875903210A40D20049
:402B0000FF25290091408F4399012B000B4093403B43835117E092B20F21114008398908063189001648844661444E6803200240D200FF2738009040864398013B0003405A
:402B4000934033434B600E4B9A680E4B9A420FD1019B002B03D14521074801F099FB0023E05E0199FFF78AFF002002E0064800E0002003B0F0BDC04670BD001000E100E0EE
:402B800000ED00E0000000080100560070B504000D000369002B0ADA0B0C03D00549064801F076FB2D042D0C6560002000E0034870BDC046A7020000B4BD001001008A00EE
:402BC00070B505000C000368002B01DA002300E0084B002B0BD1EA60230C03D00649074801F056FB2404240CAC60002000E0014870BDC04601008A008E020000B4BD001029
:402C000070B505000C1E03D19921064801F040FB2B69002B03DAEB682360002000E0024870BDC046F4BD001001008A00F8B504000E0015000F283FD8002A10D100290ED1C8
:402C40000F2804D99E21FF31214801F021FB6401204B9C466444204B1C60002037E0002D2CD0002E2CD0F3062CD10F2C04D99E21FF31174801F00CFB6401164B9C4664446C
:402C8000154F3C607E60BD60F2080021280006F0E5FF00212000FFF779FF3A0001CA0021FFF78EFF00280FD10B4B18680021FFF76DFF00280AD10AE0084808E0074806E0E9
:402CC000064804E0054802E0054800E00448F8BD34BE001000002340A43A000803018A0001018A00F0B583B00D001C4B1B68DC68236883422DD947097B01C01A01238340EA
:402D00001E00002903D101F060FB019001E000230193124B18680368002B01DA002300E00F4B002B0ED16368BF00DF193B68334203D133433B60002400E00A4C0021FFF75E
:402D400025FF00E0084C002D04D1019801F041FB00E0064C200003B0F0BDC046A43A000801008A00020188000301880004018A00F0B583B00D001C4B1B68DC682368834201
:402D80002DD947097B01C01A012383401E00002903D101F01AFB019001E000230193124B18680368002B01DA002300E00F4B002B0ED16368BF00DF193B68334203D0B3431E
:402DC0003B60002400E00A4C0021FFF7DFFE00E0084C002D04D1019801F0FBFA00E0064C200003B0F0BDC046A43A000801008A00020188000301880004018A000A4B1B688E
:402E0000DA68136883420BD943095901401A0121814052689B009B580B4203D0034802E0034800E003487047A43A00080101880004018A0000018800034B1B68002B01D131
:402E4000014B18607047C046B03A0008F0B5474680B404000F0090461E00072803D9B421254801F015FA254B1B682C2060431C18FF22150035402560330A13406360330C4D
:402E8000A3600F2D04D99E21FF311D4801F000FA6B011C4A94466344236165680F2D04D9DC214900164801F0F3F96D01164B9C4665446561A668330C04D0EB21490010488B
:402EC00001F0E6F9330C04D0D821FF310C4801F0DFF93604330C1E43AE604346E36127620023A361069B002B02D000229B5EA38104BC9046F0BDC04674BE0010B03A0008EA
:402F000034BE00100000234000102340F0B58FB0041E03D150212E4801F0BAF96368032B03D952212A4801F0B3F9E36A002B03D15621274801F0ACF9E368072B03D9572164
:402F4000234801F0A5F9236A072B03D95821204801F09EF9236B002B03D159211C4801F097F907AA1300210061C961C321C921C302AD290023001433C1CBC1C141CB41C108
:402F80000821535E0CAE3380079B1933B370089B0D930B9B0A980096A26AE16AFFF756FF2B69E868002200920021FFF74FFF216B3000FFF785FD0023F25E002A05DB1F2306
:402FC0001A401E3B9340034A13600FB0F0BDC04674BE001000E100E0F8B505000F0016001C00002A03D1FC21244801F051F9072D03D9FD21214801F04BF9072F03D9FE2164
:403000001E4801F045F91E4B1B682C2128004843181879435918012213004D68AB401B044568AA4015000269002A20D08F69002F1FD11268002A01DA002200E0114A002A6F
:4030400019D132681204120C134333600369DE6001238B614C6204692B0C03D00A490B4801F016F92A04120CA260002004E0084802E0084800E00748F8BDC04674BE00102A
:40308000B03A000801008A008E02000034BE001004028A0007028A0070B505000C001600072804D96021FF31084801F0F1F8084B1B682C2068431818C369B34204D9036A43
:4030C000B6009C51002000E0024870BD74BE0010B03A00080A028A0070B582B0040000230193002804D1D92149002B4801F0D0F82369002B04D1B421FF31274801F0C8F8BD
:403100006369002B04D1DA214900234801F0C0F8236A002B04D1B621FF311F4801F0B8F86269D5682B0C1FD01B041360136820690369002B18DA01A9FFF762FD00280ED17C
:40314000019803681E0CFF221340E269934207D29B00226AD358002B02D0984700E0002631002069FFF712FD2D042D0C0FD063691D601B68636A002B03D09847002363621A
:4031800003E0A36A002B00D098470023A36163691B6802B070BDC04674BE001004281DD8042904D94B1EFF3B9BB2132B18D8FF290CD91F2319400B4A0300C0339B009950E8
:4031C000D03080000423835000200AE007231940D0308000034BC150002002E0024800E0014870470000264001004A0010B50400042804D9892149000A4801F049F82300A0
:40320000D0339B00084A985807231840042807D1C034A400A3581B30184080235B00184310BDC046B4BE00100000264070B5041E04D1EF2149004C4801F02AF8B023DB0014
:403240004A4AD358002B01DB002500E0484D002D00D086E0474B22689A4204D9EE21FF31414801F015F823689B03990BE3791B068022520413400B43B022D2003B498B500A
:40328000A2883D4B9A4204D9FA214900364800F0FFFF2289394B9A4204D9F621FF31324800F0F6FFA388DB04D90C23891B04344A13400B43334A2D498B50A37A0F2B04D96A
:4032C000FC21FF31284800F0E3FFE37A0F2B04D9FE214900244800F0DBFFA289264B9A4204D9FE21FF31204800F0D2FFA37A0F211940E27A1201FF2313400B43A289120249
:4033000021490A401343A27B1207C02189050A401343B122D20015498B50A379072B03D91A49114800F0B4FF228A144B9A4203D917490D4800F0ACFF0C4816494658164B12
:403340001E40A3791B02E022D2001340334343504658124B1E40238A1B04094A134033434350280070BDC046B4BE00100000264003004A00FFFF0300FF1F0000FF01000003
:403380000000FF018405000000FF1F0005020000060200008C050000FFF8FFFFFFFF00FE70B505002D492E4A8B588020000603438B502C0003E0012000F05EFF013CB22384
:4033C000DB00264AD3585B0701D4002CF3D12349B122D2008858234B03408020800503438B50002D02D00ED0002C0CD01B49B022D2008B588020000603438B5003E00120AD
:4034000000F03AFF013CB223DB00144AD358DB0701D4002CF3D1002D0ED0002C0CD10F4AB021C90053585B005B0853500C4953585B005B0853500BE0084B0221B222D200CB
:403440009950B121C9005A58C020800502435A50002C01D1044800E0002070BD000026408C050000FFFFFFCF02004A00F0B55B4B1B78002B05D05A4B5A4CE358002B00DBD2
:40348000A4E0594B984200D9A2E09A4200D9A1E0564B994200D99FE00124504B5C70FF2810D8504CA327FF00E5590F26B5430F2318402843E0514E4D6359B343072003435A
:4034C000635132E04B4B984208D8464E484D74590F239C4318402043705126E0414F444EBB590F24A3431D00030AA4461C00634623402B43BB51404B98420BD83C4D7B5983
:40350000F024A3431C000001FF231840230003437B510AE0334E364D7459384B1C400002F0231B01184020437051FF2A13D82D48A324E4000359F025AB4312010F352A402A
:403540001A4302512A4A84582D4B2340E024E4022343835033E0274B9A420BD8214D244C2859274B18401204F0231B031A4002432A5124E01B4E1E4D7459214B1C40130AF5
:403580001B04F02000030340234373511A4B9A420AD874591B4B1C401205F020000402402300134373510AE00E4D114C2859164B18401206F0231B051A4002432A51074B7D
:4035C0005960074B074AD150002006E00F4804E00F4802E00E4800E00D48F0BDB43A00081C050000000026400F060000FFFFFF0014050000FF040000FF050000FFF0FFFF00
:40360000FFFFF0FFFFFF0FFFFFFFFFF003004A0001004A0070B582B0A423DB001D4AD4582402220A0023009201931B4B00225A70002819D1009A019B1A4326D0164B5868D7
:403640000A000023002104F03FFC009C019DEE07620832436B0880185941009A019B04F013FC0090019110E0009A019B0800002104F02AFC084B5A685408002500196941FD
:40368000002304F001FC009001910098019902B070BDC04600002640B43A000870B51A4BC318DA179B185340042B28D9174B184AD458A405A40D80231B02984208D9154B70
:4036C0009C466044052104F069FA201A0DD509E0114B181A052104F061FA00190F4B984202D802E0002000E00D48094D07496B589B0A9B028205920D13436B5001E000247A
:403700000020201A70BDC0460080FFFF3C050000000026400280FFFF02800000FE030000FF030000F0231B06C3180F4A934201D8580A18E0EC231B06C3180C4A934204D850
:403740005B0A8020400218430DE0EA231B069C466044064B984204D8400A80229202104301E0012040427047FFFF0F00FF7F000010B50400FFF7D6FF431C03D0E40503D0E4
:40378000002002E0002000E0012010BD214B984230D00ED8402831D004D800281FD010282AD031E080282BD080235B00984229D02AE0194B984229D007D8A0231B069842FC
:4037C0000DD0164B984212D01EE0154B98420AD0144B984209D0144B984215D101E0002016E0124814E0124812E0124810E0A020C0030DE007480BE00F4809E00F4807E089
:403800000F4805E0034803E00E4801E0A420C0037047C04606005200010000F0090000A0040000F0050000F0030000F0010052000200520003005200010050000200500036
:4038400005005200FF00520010B50C4B1B69002B11DB0B4B1868FFF799FF0121094B0A4AD150084B084AD358002BFAD1074BD358002BF6D100E0064810BDC0460000234001
:40388000C03A00080C040000000025408C0400000200500010B5022202490020FFF7FCFB10BDC0460D08000810B5FFF7CDFF10BD10B50400FFF75CFF002825D0FEF746FCBC
:4038C000124BE02252051A605C6000229A60DA600F4B19691A69120AFF2313405A1C0B0E013353430B4C5C430B4B1868FA21890004F054F90100200004F050F9074BC11803
:40390000002007F0A9F900E0054810BDC03A00080000214060F59000E4000008980800000600520070B504000D00FFF721FF002829D0002D29D0FEF709FC154BC022D20403
:403940001A60832252005A609C60DD60114B19691A69120AFF2313405A1C0B0E013353430D4C5C430D4B1868FA21890004F016F90100200004F012F9E1239B00C118002069
:4039800007F06AF902E0064800E0054870BDC046C03A000800002140808D5B00E400000806005200F8B506000D001400002800D142E1002A00D141E1072903D93921A048B3
:4039C00000F066FC2368012B03D93A219C4800F05FFC0F2362689A4303D03B21984800F057FC237A1F22934303D03C21944800F04FFCE368032B03D93D21914800F048FC72
:403A00002369012B03D93E218D4800F041FC6369012B03D93F218A4800F03AFCA369012B03D94021864800F033FCE369032B03D94121834800F02CFC236A012B03D9422170
:403A40007F4800F025FC636A012B03D943217C4800F01EFCA36A012B03D94421784800F017FCE36A032B03D94521754800F010FC236B072B03D94621714800F009FC276874
:403A8000072D03D96F49704800F002FC012F04D9BA2189006C4800F0FBFB002F03D10123AB40736002E00123AB40B3606768072D04D9E4218900644800F0EAFB0F233A0049
:403AC0009A4303D06149604800F0E2FBAA00B36A0F210800904083430F4097401F43B762277A072D03D95A49574800F0D1FB1F233A009A4303D05749534800F0C9FB564B56
:403B0000F318DB09554A944663441B01032D0BD81A68E8001F2181408A4311001F223A4082400A431A600BE0291F5A68C9001F208840824310001F223A408A4002435A609C
:403B4000E768082D03D946493F4800F0A1FB032F03D944493C4800F09BFB6A00736A03210800904083430F4097401F4377622769082D03D93C49344800F08AFB012F04D910
:403B8000CA21C900304800F083FBB36901221100A9408B431740AF401F43B7616769072D03D93249284800F073FB012F03D93049254800F06DFBF26A01231900A9408C46DD
:403BC0008A431F40AF401743F7626F00103703210800B84062461043326B8243A0691840A8400243E0690140B9400A433263706BFF2294469043276A1F40636A5A000223E8
:403C000013403B43A26A9100042739400B431F00E36AD900182319403B000B43226B520161460A401343AD00FE2292001540AB4003437363002002E00E4800E00D48F8BD9E
:403C40003CBF0010E70200007CBF00109103000045020000460200000000CEBF00100304D4060000D50600004F060000D2030000D303000001005A0070B505000C000028D0
:403C800048D0002948D0FF230A689A4303D08D21224800F0FDFAFF2322699A4303D08E211E4800F0F5FAA3685B0D03D08F211B4800F0EEFA63685B0A03D09021174800F0E3
:403CC000E7FAE3695B0F03D09121144800F0E0FA236A5B0F03D09221104800F0D9FA104BEB18DB090F4A944663441B0122682A60E268AA622269EA6262692A63A2686A6243
:403D00006268AA61A2696A63E2691A60226A5A60002002E0044800E0034870BD3CBF00100000CEBF0010030401005A00034A9369802149040B4393617047C04600F0254090
:403D4000024A9169024B0B409361704700F02540FFFFFFFE10B5074A074813580F24A34302210B43135004381358A3431943115010BDC0460000214004F0000010B5074A25
:403D8000074813580F24A34303210B43135004381358A3431943115010BDC0460000214004F000000449054A8858054B0340C020C00103438B5070470000214004F000000C
:403DC000FF8FFFFF0449054A8858054B03408020C00103438B5070470000214004F00000FF8FFFFF70B50400022805D0052803D01F49204800F04CFA00F0E7FA05001E4BA1
:403E00005B69072213409C422DD0022C0DD1FFF78DFFFFF79FFF18494B6907229343043A13434B61FFF7BEFF0BE013494B6907229343043A13434B61C82000F01DFAFFF71F
:403E4000C1FF0D494B69072293431A000723234013434B61052C06D1C82000F00DFAFFF78DFFFFF76DFF280000F0B3FA70BDC046EA050000BCBF00100000264010B5040064
:403E8000012803D90D490E4800F002FA002C03D10C4B5869C00F00E00020012C0CD1094B9B695B0005D4074B9B69002B03DA012002E0012000E0002010BDC046410600004C
:403EC000BCBF00100000264070B504000D00072803D90D490D4800F0DBF90D4B9B690722134021009C420DD0094882690726B243344014438461002D04D0994202D9C820C0
:403F000000F0BAF970BDC046A1060000BCBF00100000264070B50500012803D92A492B4800F0B6F900F051FA0400294B294AD3581F221340E822D200B02149058A5CD31AAC
:403F40005A1E9341DBB29D4239D0002D14D1FFF7EDFEFFF7FFFE1F481D4943581F229343143A13434350FFF71DFFE823DB00B0225205D35CDAB211E01648154943581F227F
:403F80009343143A13434350092000F075F9FFF719FF114BB0225205D35CDAB20D4E0C4831581F23994313400B433350012D06D1092000F061F9FFF7E1FEFFF7C1FE200083
:403FC00000F007FA70BDC046ED060000BCBF00101CFF0000000026404107000070B5040000F0F3F9002C05D01A4B1B681F2B03D9002502E0002500E00125002D25D0E368A3
:40400000002B1FD02368002B1ED0124B59680B00002203E0A34204D01A005B69002BF9D100E00025002D10D0002902D1094B5C6000E05461226100236361064A13680133EC
:40404000136002E0002500E0002500F0C2F9280070BDC046D03A000870B5040000F0B5F9174B1A68002A25D059680B0002E0A34204D05B69002BFAD1002500E00125002D66
:4040800019D0A14207D14B69002B0CD00C494B600021196107E019695C694C615969002901D01B690B61013A054B1A60002A02D15A6000E0002500F08CF9280070BDC046EE
:4040C000D03A000870B584B005000E00042803D929492A4800F0DCF8731EDBB2012B07D9042E05D0082E03D02549244800F0D0F8042E01D0012E1DD1224B5C68002013E062
:4041000023799D420FD1A368002B01D01E420AD1E36801A85A6842609B688360067023689847184B9C606469002C23D0164B9842E6D11FE0134B9C68022E02D1002C00D027
:404140002469002011E023799D420DD1A368002B01D01E4208D1E36801A85A6842609B6883600670236898472469002C02D0064B9842E8D104B070BD24080000BCBF0010E3
:4041800025080000D03A0008FF00420070B50500012804D9972149001B4800F079F81B4B1B68002B05D001210020FFF78BFF040000E00024002C20D100F007F90600134B66
:4041C0001B68002B03D004210020FFF77BFF104A136904218B431361012D01D030BF00E020BF300000F0F5F8084B1B68002B09D008210020FFF766FF04E002210020FFF7F7
:4042000061FF044C200070BDBCBF0010D03A000800ED00E0FF00420010B500F0D6F8074B5A6807490A40E824A40122435A605A68114059605B6800F0CCF810BD000026405F
:40424000FF00FC0F10B5040006E0084B186800F0B3F8074B9C46644480231B029C42F4D8044B1868604300F0A7F810BDFC0000080080FFFFF800000810B5034B1B78584340
:4042800000F09AF810BDC046F400000801BEFEE770B50D00044C18220100200005F02AFEA5610020FFF7F2FFF00A00080122014B9A60704700002540054B802212069A6473
:4042C0009B6C002B01DB002000E002487047C0460000274003004600054B8022120198585B68FF221A4202D08023DB021843704700002640FEE7C04610B50A4B0268DA6150
:4043000042681A6282685A62C2689A620269DA6242691A6382695A63C2699A63FFF7EAFF10BDC046F00A0008F0B5002801D0192200E064228A42924152421C4BE8256D00E5
:404340005C590327BC433A4014435C515C59184E34405C51D03D5C59BC4322435A515A5916405E51002805D010290DD921290DD8012014E01D290BD93A290BD957290BD9E7
:4043800078290BD803200AE0002008E0022006E0002004E0012002E0022000E00420054A13680F218B4303431360F0BD00002140FFFCFFFF000025400230800803D0013084
:4043C0000238FCD1C046C0467047EFF3108072B6704780F310887047042805D1094A116804230B4313600CE00006C0239B04184090239B00044AD050024A136804218B43E8
:404400001360704710E000E00000214030B5C0239B00C3580F242340072B07D900230FE0D024A4000459CC54013300E000239342F6D307E05C00D025AD0045590D530133E8
:404440009342F7D330BDC04610B51400C2239B00C358DB05DB0D9A4200D31C002200FFF7D5FF200010BDC04603681B0501D5802200E0402282239B00C358DB05DB0D934287
:4044800004D090239B00C150012000E00020704730B580239B00C3580F242340072B07D900230FE0CD5C9024A4000551013300E000239342F6D307E05C00655A9024A400F3
:4044C000055101339342F7D330BDC04610B5140003681B0501D5802200E0402282239B00C358DB05DB0DD31AA34200D81C002200FFF7CEFF200010BD03E090239B00C15085
:40450000013A002AF9D1704710B5140003681B0501D5802200E0402282239B00C358DB05DB0DD31AA34200D81C002200FFF7E4FF200010BD10B54A68394B9A4230D1C223E9
:404540009B00C358DB0516D00A6A402313430B620B78002B0CD0C1239B00C258802464022243C250C4582F4A2240C250C35802E0D0239B00C3580A6A202313430B620B6AE3
:40458000102293430B62026E274B134003660022264BC250083B0132C250C3581F3221E08224A4000359DB05DA0D0359DB0B012423409B180A6BD21A4A630A6A120705D4F0
:4045C000CA6AD218CA628A6AD31A8B620A6A042313430B620B6A012293430B620022144BC2501032134BC4580223FF331C420ED003685B005B08036000238366C36603685C
:404600008024240623430360036840231A4380235B054B604B6C002B01D01000984710BD01100000FFFFFEFFFF5FFFFFC80F0000880F00004C0F000010B51C4BC3589A0782
:404640001DD5F02212010224845084588258520702D58020800301E0802040038A6802438A604868B8225203904208D00A7B002A02D0C022520301E0B02252034A60DA0569
:4046800004D58A688020000402438A60DA0704D58A688020C00302438A601222FF32134202D0C0235B034B6010BDC0460C0F000000230B4A83500B4A8350836E002B04D055
:4046C0001822FF32084BC25008E01422FF32064BC25018238366B8235B034B607047C046C80F0000880F0000080F000070B53F4BC458026E3E4B1340036600233D4A8350F1
:404700003D4A83503D4A8350F0231B011822FF32C250C3588A683A4B13408B604B7B002B02D08B69CB610CE08D698226B6008359DB05DA0D8359DB0B012633409B18EB1A6F
:40474000CB610223FF331C421ED0036E9B0F032B06D10233FF331C40631E9C41E4B200E00124002C0CD003685B005B08036000238366C3660368802212061343036003687C
:4047800080235B054B601BE00B78002B10D0C1239B00C258802464022243C250C458184A2240C250C358FC231B010122C250C3580B7B002B01D0134B01E080235B054B60A1
:4047C0004A6C002A10D04B7B002B02D08024E40201E08024A4028868F8235B04184001D0802000032043904770BDC0460C0F0000FFFEFFFFC80F0000880F0000080F000043
:40480000FFFFFEFF0000101070B505000C002423CB5C002B10D1CB6A002B0DD14B6C002B01D008209847E36A5A425341DBB22422A354233A314BEA502423E35C002B16D0C4
:404840006378002B06D02B681B0501D5802202E0402200E00122FF212800FFF755FE236BC0182063226A08231343236244E0E26A012A13D96378002B01D0013A00E0012242
:40488000A16A2800FFF722FE236BC3182363E36A1B1AE362A36A9C466044A06282239B00EB58DB05DB0D802B26D0E36A012B23D1FFF78BFDA36A1A7890239B00EA50F8234B
:4048C0001B014026EE50EB58FFF783FD236B013323630023E362A36A0133A362074BEE506378002B08D0226A022313432362636C002B01D00420984770BDC046880F0000B7
:4049000070B505000C004A68A8235B039A4203D1C0235B034B6059E04A68A0235B039A4254D14A69012A13D94B78002B01D0013A00E0012221692800FFF7C8FDA369C318A2
:40494000A36163691B1A636123699C466044206182239B00EB58DB05DB0D802B15D06369012B12D1FFF731FD23691A7890239B00EA50F8231B014022EA50EB58FFF729FD29
:40498000A3690133A361002363616369002B1DD1237B002B06D040220D4BEA50A8235B03636005E000220A4BEA50B0235B0363606378002B0AD0A368802292021343A36064
:4049C000636C002B02D080204002984770BDC046880F000070B504000D008A6C002A2ED00368DB0305D5504BC3585B0603D5022002E0002000E00020236E1B0506D44A4BB6
:404A0000E35880210B4000D001231843002818D09047FC231B010122E250E358002809D1F4231B010F32E250E358D222FF323F4BE25007E0C222FF323C4BE25002E00020D3
:404A400000E0002081239B00E258802149020A43E250E158364A0A40E250E358002801D1012300E00223E36600285BD1636E10261E406B6C002B05D0002E01D0013000E0D6
:404A800002209847002E0DD02A4B6B602B6A012213432B626B6B2B6300212423E954264BE2503FE0254B6B602A6A102313432B620122234BE2502B78002B1AD0EB6B002B63
:404AC00019D0236E8022920113432366ED6B802D05D92B00803B802B0FD8813D0EE0013D236E80221202134323660022144BE25004E0002502E0002500E03F2523681B050B
:404B000001D5802300E040239D4203D30D490E48FFF7BEFBC1229200A358FF218B430D401D43A55070BDC0464C0F0000480F0000FFFFFEFF02100000880F0000011000000F
:404B4000C80F00005E020000FCBF001070B505000C004B6888225203934204D09022520393421DD069E0D0239B00C3580A6913708B6901338B614B69013B4B61002B05D041
:404B80000B6901330B610423836656E00B7B002B02D0C0235B0301E0B0235B0363604CE04A690969FFF750FCA369C318A36163691B1A63612269944660442061012B23D80E
:404BC0002A6E1E4B13402B666369012B15D12B681B0501D5802300E04023002B03D118491848FFF755FBC1229200AB58FF218B43AB5088235B0363601FE00022124BEA5098
:404C0000B0235B03636018E0402B01D89C1E00E03F242B681B0501D5802300E040239C4203D307490748FFF733FBC12189006A58FF239A43234013436B5070BDFFFEFFFF99
:404C40005E020000FCBF0010C80F000070B505000C00CB6B002B52D00B78002B40D0C1239B00C358FF221A400132896BFFF7ECFB236CC3182364E36B1B1AE363A26B944601
:404C80006044A063802B06D91A00803A802A11D8813B1C000FE02B6E8022120213432B66E36B002B01D05C1E00E000240022174BEA5000E03F242B681B0501D5802300E08A
:404CC00040239C4203D312491248FFF7E1FAC12189006A58FF239A43234013436B5013E00123C3660B6CD02292008258896BCA54236C01332364E36B013BE36304E002232D
:404D0000C3660022014BC25070BDC046C80F00005E020000FCBF001070B505000C001600002800D1A2E0002900D1A1E0002A00D1A0E00B78013BDBB2022B03D94A2151487F
:404D4000FFF7A6FA2378022B03D14F4A954200D192E0032B03D14C4B9D4200D18EE0E379002B03D0484B9D4200D089E06378002B00D06379002B03D061214248FFF788FA5E
:404D80000323E356002B03DA62213E48FFF780FA2379DB0703D563213A48FFF779FA6379002B02D08022520200E00022E379002B02D080235B0000E0002313438022120118
:404DC00013432B60A379002B00D0002223789B0713432B660822FF32C0239B00EA506378002B01D0883A00E00022C1239B00EA50E3785B00FF221340227912041343C422F7
:404E00009200AB50214A80239B00EA50A378002B01D0402200E0012281239B00EA5000231B4AAB501B4AAB501B4AAB501B4AAB501B4AAB502378022B02D0D222FF3200E06B
:404E40000022184BEA5063783370A378737080235B0573600023B360B36133623364F3633363F3627364B36400200AE00E4808E00D4806E00C4804E00B4802E00A4800E05A
:404E8000094870BD40C000100000694007010100C80E0000880E0000C80F0000880F0000080F0000480F00000120AA0003685B005B08036080235B054B6000238B600B62EA
:404EC0007047C04670B505000C1E03D117491848FFF7DEF92B6E9B0F012B11D1154A164BE31893421AD9154A154BE318934217D9144B9C466444144B9C4213D8134814E08D
:404F0000002C11D02A6E12090F210A402B6E194051180231200002F041FE06E00C4804E00C4802E0002000E0002070BD9702000040C00010405B730020AD88FF50A9AB0008
:404F40005059E8FF004D0EFF40555C0440420F00801A0600A0860100F0B55F4656464546E0B482B007000C009046002A03D160496048FFF78DF9631E5F4A934203D95F498C
:404F80005C48FFF785F93B6E9B0F012B0CD141463800FFF797FFC0229200B958584B0B40BB50584B3B679CE04346002B00D195E0002C00D194E0FA218900404602F0EEFD81
:404FC0000190FA218900200002F0E8FD824641464D4802F0E3FD06004C4B9C4208D94C4B9C4209D8E1239B009B46C824E40008E0484B9B461C0004E0BE235B009B469B2495
:40500000A4003100200002F0C9FD050000E0013533006B439C4201D90F2DF8D93100584602F0BCFD040000E00134330063439B4501D90F2CF8D92919019802F0AFFD002631
:405040000DE0F30703D50F2C04D8013402E00F2D00D8013501362919019802F09FFD504502D92B191F2BECD9294B984209D9C0229200BB58802189000B43BB50264B3B6749
:4050800007E0C0229200B9581D4B0B40BB501D4B3B67EB1F092B03D920492148FFF7F8F83B6EF022934319006A1E1201FF2313400B433B66631F0B2B04D9A621C9001848BC
:4050C000FFF7E6F8396E0F239943621E13400B433B662919404602F061FD02E0002000E0002002B01CBC90469A46A346F0BDC0461102000040C000103F420F0012020000A8
:40510000FFFDFFFF13102A0000CA9A3BA0860100801A06008813000003002A001305000080C000108868704770B504000D001600002903D154495548FFF7AAF86B68002BD2
:4051400002D0AB68002B03D151495048FFF7A0F80023EB56002B03DA4E494C48FFF798F800224D4BE2507368DB0000D486E02B785B00FF32134001210B431A0080204002A4
:40518000B0606B683361AB6873610023B361F3612B7B33737173F0231B011821FF31E150E35881239B00E1580143E150E0583B490140E150E358716880235B05994205D1EF
:4051C00090239B00E2500223A36609E0636E9B0601D5092300E00123A36690239B00E2503378002B28D0337B002B25D17369012B22D9236E80225200134323667569802D88
:4052000001D8023D00E03F2523681B0501D5802300E040239D4203D321492248FFF738F8C1229200A358FF218B430D401D43A55090235B03736014E023681B0501D5802300
:4052400000E04023002B03D115491648FFF720F8C1229200A358FF218B43A35088235B037360FFF7B2F801220F4BE2501422FF320E4BE250FFF7ADF8002000E00C48D222D1
:40528000FF32054BE25070BDA504000040C00010A6040000A7040000480F0000FFFFFEFF5E020000FCBF0010C80F0000080F00000220AA00F8B504000D001600002903D1F8
:4052C0004B494C48FEF7E4FFAB68002B07D06B68002B04D1B121C9004648FEF7D9FF0023EB56002B03DA44494248FEF7D1FF0022424BE2507368DB0073D52F787F00FF2361
:405300001F4080214902B1606B683361AB6873610023B361F3612A7B32737373F0231B011822FF32E250E35881239B00E2580A43E250E158324A0A40E250E3587268802320
:405340005B059A420AD190239B00E750F8231B014022E250E3580223A36619E0636E9B0601D5092300E00123A3667369002B0CD1FFF72BF890239B00E750F8231B014022C8
:40538000E250E358FFF725F802E090239B00E750A0235B0373607378002B01D0402500E0012523681B0501D5802300E040239D4203D314491448FEF76BFF81229200A3585C
:4053C000FF218B432B43A350FEF7FFFF01220F4BE2501422FF320E4BE250FEF7FAFF002000E00C48D222FF32044BE250F8BDC0468705000040C0001089050000480F0000A6
:40540000FFFFFEFFC6020000FCBF0010880F0000080F00000220AA0070B504000E00354BC358DB0707D580235B014B60813BFF3B0122C250C358304BE5580223FF331D4276
:405440000ED0336AEA0502D58022520000E08022134333620022294BE25010231D430EE0EB060CD5C2239B00E358DB0507D0F36B002B04D00123224AA350204AA350214B54
:40548000E358DB0708D531002000FFF7DFFBFC231B010122E250E358EB060AD531002000FFF748F8F4231B011022E250E358124BE558C0232B420DD031002000FFF78AFA4B
:4054C000E8231B010122E250E358F4231B01BF32E250E3580C4BE35841221A4208D031002000FFF791F9F8231B010122E250E35870BDC0468C0E00004C0F0000C80F0000A4
:40550000C40F0000CC0F00008C0F000070B506000D00E0231B01C458A3070CD5836E002B06D0002383668B688022520413438B60C0235B036B60E30705D529003000FFF7DB
:405540007BF804239C43230708D529003000FFF7FDFAFC231B010122F250F358630708D529003000FFF7CCF9F8231B010122F250F3586A68C0235B039A4203D1290030001C
:40558000FFF7B4F86A68B0235B039A4203D129003000FFF78DF870BD10B54B68DB0202D5FFF7B4FF01E0FFF737FF10BDF8B505000C001600002800D1C1E1002900D1C0E1DC
:4055C000C04B984200D1BEE10B78022B03D94221BD48FEF75DFE637B023BDBB2062B03D94321B948FEF754FEA37B002B07D0022B05D0032B03D04421B348FEF749FE2123AE
:40560000E35C012B03D94521AF48FEF741FE2823E35C012B03D94621AB48FEF739FE2378012B06D86268083A082393429B415B4208E0A37F002B05D063685A1E0623934205
:405640009B415B42002B03D048219F48FEF720FEA368053B042B03D949219B48FEF718FE6369FF2B03D94A219748FEF711FEA369FF2B03D94B219448FEF70AFEA37C002BE1
:405680000FD02378002B07D1A368092B06D1A37B002B05D0012304E0012302E0012300E00023002B03D04D218748FEF7F1FD874B626B1A4203D04F218348FEF7E9FD844B33
:4056C000E26B1A4203D050217F48FEF7E1FD2378022B02D1A37F002B02D063685A1E00E00022237F002B02D08021490200E00021A368082B02D880231B0100E00023194362
:405700000F2313400B438022920413432B60236B2A68120501D5802200E04022934203D365216948FEF7B4FDA36B2A68120501D5802200E04022934203D366216248FEF7C2
:40574000A7FD636A2A68120501D5802200E04022934203D367215C48FEF79AFD23781B06C022920413402B64637F002B01D0402200E00022A07C002802D08023DB0000E026
:4057800000231A43237C002B02D08021490000E000210A43637C002B02D08021890000E000210A43E36A013B1B04F020000303401343627B013A07210A4013431900A27BD7
:4057C000120130231A400B001343AB64237B002B02D08021490000E00021E27B002A04D12378022B03D1013B02E0012300E00023002B02D080239B0000E000230B43A26820
:40580000013A0F273A401343C02292009446AB50FF2260691040A3691A04FF2109040A400243C4239B00EA50E26A6346EB583B4003339A4201D3102A03D97D212248FEF756
:4058400027FDE37F002B04D02378012B03D0002302E0002300E00123002B02D08021490000E00021627B013A072313401943A27B120130231A400B0013436B64237B002B2E
:4058800002D08021490000E00021A3685A1E0F2313400B432278012A02D18022520200E00022134380229200AB50FF23226B1340C1229200AB502023E35C002B0AD0802126
:4058C000890408E00000694000C1001092F4FFFF8CF8FFFF00212122A25C012A02D180235B0400E000230B432822A25C012A02D18022520200E000221343FF21626A0A4036
:4059000013432B65A36B0B4081229200AB50104B626B13400F4AAB50E26B0F4B13400F4AAB50002E11D0002373603360B360F3603362F36233630A4B7363002006E00948DB
:4059400004E0084802E0074800E00020F8BDC0466D0B0000C80F000073070000880F0000EFCDAB000160AA0070B5002800D193E0002A00D192E053681B061D0C93689B0498
:405980008024E40223402B43D4682504C024A4022C40234314692506E024E4042C402343147F002C01D0012400E0002423430C1DA4012350D368002B06D18B01C318093325
:4059C000FF3300241C600EE0012B06D18B01C3180933FF3314681C6005E08B01C3180933FF3301241C601369002B0AD18B01C3181C000D34FF34556925601133FF3394698D
:405A00001C608B01C3181533FF3314681C60936C5C1C1BD00F25966A2E40146B2502F024240125403543946B2604F024240334402543146C2407240C25431C01FF2323402C
:405A40002B438C0104192134FF3423600324556A2540D36A1E012D3434402C43536B1D02C0239B002B402343D46BA401FF252C4023431D00536C9C000C231C402B0023437E
:405A80008901411808002530FF300360136A3931FF310B60002002E0014800E0004870BD0100B600F0B5002800D1C9E0002A00D1C8E02823D35C002B01D0012400E00024B2
:405AC000137F002B01D0022300E000231C4313699B048026F6023340234394682404C026B6023440234316683406E027FF043C402343546B6500146B25432D05C027BF03D9
:405B00003D402B43946BA5002B431C00052E03D1D3681B061B0C02E053681B061B0C23430C1DA40123501368062B0BD18B01C3181C000934FF34012525602933FF333F241F
:405B40001C6027E09368002B0BD18B01C3181C000934FF34002525602933FF3331241C6018E0012B0BD18B01C3181C000934FF34556925602933FF331C241C600AE08B01AE
:405B8000C3181C000934FF34012525602933FF3312241C608B01C3181C000D34FF34156A25600434556A25600434556925601933FF3394691C60136E5C1C1BD00F25166C10
:405BC0002E40946C2502F024240125403543146D2604F024240334402543946D2407240C25431C01FF2323402B438C0104192134FF3423600324D56B2540536C1E012D34A4
:405C000034402C43D36C1D02C0239B002B402343546DA401FF252C4023431D00D36D9C000C231C402B0023438901411808002530FF300360D36A3931FF310B60002002E04D
:405C4000014800E00048F0BD0100B60070B505000C00002873D0002973D00B7A002B03D00B885A425341DBB2002B03D02F213648FEF70EFB637A002B03D063885A425341AF
:405C8000DBB2002B03D030212F48FEF701FBA3791F2B03D931212C48FEF7FAFA2379032B03D932212848FEF7F3FA6379032B03D933212548FEF7ECFAE379032B03D9342127
:405CC0002148FEF7E5FA63881B0422881343EB60A0790006F82252051040E3791B048022520213400343227A92000420024013431800637A9B028021C9000B401A000300DA
:405D00001343E27A002A02D08020000100E00020184363791B02C02189000B401A0003001343A27A002A01D0082200E000221343227903210A4013432B61002002E00348C7
:405D400000E0024870BDC04640C100100100D60070B50D000F4B184300040F4BD861FA24A40003E0013C0120FEF786FA0A4B1B6CDB0701D4002CF5D1002C08D0064B196C89
:405D800001220A431A64DB6A2B80002000E0034870BDC0460080FFFF00003C400400160010B500040E4B184001430E4BD961FA24A40003E0013C0120FEF75EFA094B1B6CF7
:405DC000DB0701D4002CF5D1002C06D0054A116C01230B431364002000E0034810BDC0460000FF7F00003C4004001600F0B583B006000A24C02149017548FFF7D1FF00282F
:405E000004D16B46991D7248FFF7A2FF002C01D0013C00E06F48002805D16B46DA88C0235B019A42E6D1002825D16B46991D6A48FFF78EFF00281ED16B4606331B885B0563
:405E400019D40A248021C9006348FFF7A9FF002804D16B46991D6048FFF77AFF002C01D0013C00E05B48002805D16B46DA888023DB009A42E6D1002804D16B46991D5748F7
:405E8000FFF766FF002844D16B4606331B883F229343B278012A15D1F178012904D88FB20222D21B95B201E000250227402213439BB2302213436A46D380494BCB40494A32
:405EC000136013E0F178002904D18FB20122D21B95B201E00025012740229343102213436A46D380404BCB403E4A13606B469C1DD9883943D9803948FFF752FFF378DB1BF2
:405F000003221340AA0092B213432380374A38498B50B0235B055B78002B04D0B0235B055B78DBB200E02123212B4FD0314BB0225205D35A9BB2002B48D0002804D16B46EE
:405F4000991D2D48FFF704FF002824D16B469A1DDB8860218B4318001380B0256D05254C2B5B60310B405B08034324490B401380295BC901F020C00001400B43204919409E
:405F80001180285BC0239B000340DB00194311801948FFF705FF002804D16B46991D1948FFF7D6FE002811D16B469A1DD988C023994311800F4BB0204005C05A3023034018
:405FC0009B00194311800F48FFF7EAFE03B0F0BD021E000004001600031E0000091E00000048E801E00000080024F40064F0010000003C4016180000071E00007FF8FFFF38
:40600000FFE7FFFF061E000070B50C004000084901430848FFF7C4FE051E04D106490748FFF7BEFE05006001FEF726F9280070BD01100000081E0000376800000F1E000030
:4060400010B5002405E02000FDF7D0F8032804D00134042CF7D9002000E0012010BDC046A023DB00064AD35803221340012B03D0032B03D1012002E0012000E000207047E1
:406080000000264010B59CB02422002113A803F0E5FD154B1693154C1894154B1A931B93242200210AA803F0D9FD124B0D930F94114B1193114B12932422002101A803F01B
:4060C000CDFD0F4B049306940E4B089313A90E48FDF7D2FD0AA90D48FDF7CEFD01A90C48FDF7CAFD1CB010BD666666660000FFFF1C1C1C1C66E6EE661C1A1A1A1A1A000025
:4061000066E666661A1A001C0001324080013240000232400349044A8858102303438B507047C04600003C4070F00100F8B5051E00D1C1E0644B5B689B0301D5FEF76CF834
:40614000624B634AD358DB0704D5624BD358DB0700D5B3E0FFF796FF5D4B5F495F4A99502A788021C9020A435D495A505D495E4A9950802252009B58DB0700D5A0E05B4BAA
:406180001B6F1B0709D45A4B18685A4B984206D9190001F003FD013802E0012000E000204B4B1B68002803D04003534A104300E052481843464B1860434B5B695B000ED5D8
:4061C00001210320FDF780FE3F4B5B695B000CD53D4A93698021C9050B43936105E03C49474A8858032303438B50394C374AA658444B3343A3504020FEF73EF8424BE358B9
:40620000DB070BD42700404C01233B514020FEF733F803233B514020FEF72EF83B4B1E403B4B1E43294B2A4AD650FA24E40003E0013C0120FEF720F8364B374AD358DB0656
:4062400001D4002CF4D1002C01D0002400E0334C002C23D11E49324A8858082303438B500120FDF70BFE002801D108231E432D4B1E4001231E43154B154AD6502A4E03E06A
:40628000013E0120FDF7F8FF124B114AD358DB0701D4002EF4D1002E00D1204C002C03D12800FFF7A3FD0400002C0AD168782978FFF7AAFE040004E01C4C02E01C4C00E039
:4062C0001C4C2000F8BDC04600002640A0F0010000003C40B4F0010006000001A4F00100A8F0010001000100ACF0010000F03D40E800000800093D00041A0080040A0080A0
:40630000C4F0010030000300B0F00100EFFFFEFF2000020010400000000032400400160068F00100FFFFFBFFF07E0E00010016000300160002001600014B18687047C0464D
:40634000E000000870B50378012B02D0082B44D049E0294B1B78012B47D00320FCF74EFD264B984243D0FFF76BFE012841D0022007F022FD0500FEF728F8214B186007F058
:4063800028FD0400062817D0022D0AD1022009F0EBFB032C01D0052C10D1002810D0194C13E0012009F0E0FB022C0BD000280BD1FDF7ECFE134C08E0002406E0114C04E0B0
:4063C000002402E00F4C00E00E4C0E4B9C4211D10B4B1868FDF7FDFF0CE0094B1868FDF7F8FF002406E0074C04E0064C02E0054C00E0044C200070BD784B000801018800E0
:40640000FC3A0008FF00420010B50248FDF724FE10BDC0460401000810B5002817D00D4B5860C36A002B01D00B4A136000240B4B1C700B4B1C700B4B1C600B4B1C7000F077
:406440008BFB0A4B1C700A4B1C70002000E0094810BDC046FC3A0008704B0008904B0008944B0008984B0008954B0008774B00087C4B00080100160070B590B00CAE10250E
:4064800010222A49300003F0E0FB02AC28220021200003F0E3FB264B0293A660254BA3810423A373244A526812692261234A62611B2222836283183A227763770233A37721
:4064C000E5771A33E5540133E55451336384023A4C3BE2541A48FDF781FD07F053FC08A807F0E4FC00281FD1164B039302A807F085FC002815D10122134B1A700023134A7E
:406500001370134A13700C4B5B681A6A00929B6ADB886A46938080235B00D380684620F009FE00220B4B1A6010B070BD80C100100972001054290000FC3A0008661000009B
:40654000040100082C0B0008784B0008804B0008814B0008984B0008014B024AD050704778F0010000003C40002803D0024B1860002000E0014870476C4B00080100160088
:4065800010B5254B1B68002B2DD0244B9B6E9B062BD509F001FB224B9B685B0703D5204B1B6D9B0723D41E4B9B68DB0703D51C4B1B6A9B071DD41A4B9B689B0707D5184BC9
:4065C0009B6B1B0717D4164B9B6BDB0615D4144B9B681B0713D5A823114AD258114B1A420FD100240EE000240CE000240AE0012408E0012406E0012404E0012402E0002487
:4066000000E001240FF0E4FF034B1B68002B02D0002C00D0984710BD6C4B000800F03D4000103C405038000010B5002809D0FA23FF33994207D80A00044903F006FB002083
:4066400002E0034800E0024810BDC0460708001601001600F0B55F4656464D464446F0B4944CA54483460E0090460B00924A914204D942468A1891498A4211D9904A934297
:4066800004D94246B2188F498A4209D98E4A934200D8F3E04346F3188C4A934200D9F0E08B4B5B695B000AD5894B5B6907241C40022C07D10520FDF795FB029403E00523A2
:4066C000029300E00294824B1B681B0214D4814B7F4AD3581F221A40E823DB00B0214905CB5C9B1A5A1E9341DBB20393002B05D10120FDF70FFC01E001230393F0231B069F
:406700009C466644730A99465C0200210320FCF7E9FA0028F9D10025002301938AE0B4421BD3BD4219D25A4652191078804604A84146C154514600290DD1802149058846F7
:40674000A044414609786846017001781278914201D001229246013505E080225205A218127804A8C2540134013304E0002100238A4684464746584A9342D0D9514660463D
:40678000B846002953D0C82300951D00B2464E46A14680231B03F7187F023800FDF788F80400013D0120FDF767FDA423DB0322001A409A4201D1002DEBD122000194009DBB
:4067C0004C46B1465646454B9A4205D1FDF76CF8434B9842FAD00190019B002B24D1C83300953D001F00A24604A92800FDF79AF80400013F0120FDF73FFDA423DB032200D0
:406800001A409A4201D1002FEED122000194009D5446324B9A4209D1FDF746F8304B9842FAD00190012002E0012000E0012001239C46E144019B002B01D1454596D300285B
:4068400001D0FDF733FD00210320FCF791FA0028F9D11F4B5B695B0005D5029B022B02D10230FDF7BFFA1A4B1B681B020BD4039B002B08D10020FDF74DFB04E0194B0193D2
:4068800001E0184B0193184B0199994208D0154B994205D0002901D1002002E0134800E0134885239B009D443CBC90469946A246AB46F0BDECFDFFFFFFFFFF0F0000101043
:4068C000FFFFFF1300800014FF070016000A0016000026401CFF0000FF01000001005000020050000600520002005200130016000100160010B5002808D0FA23FF339942B9
:4069000006D80A000349FFF7A5FE02E0024800E0014810BD070800160100160010B5FFF799FE10BD70B5C0B005000C001600802252000849684603F088F905E02A787240B1
:406940006B469E5C0135013C002CF7D1300040B070BDC04690C1001010B50022FFF7E2FF10BDC046002070470020704710B5FDF783FC10BD064B1B685B6B00229A5E002A2F
:4069800005DB1F231A401E3B9340024A13607047003B000800E100E0094B1B685B6B00229A5E002A0ADB1F231A401E3B9340802204498B50BFF34F8FBFF36F8F7047C04660
:4069C000003B000800E100E0A023DB00024AD358032018407047C04600002640024B034AD058C00F7047C0461C0500000000264010B5FCF70FFE10BD10B5FCF737FD10BDC0
:406A000010B5FCF74BFE10BD10B5FFF73BFB0220FFF7A2FD094C2368586B0949FCF750F823685B6B00229A5E002A05DB1F231A401E3B9340034A136010BDC046003B00089D
:406A40008165001000E100E00420704710B5FDF7BCFC10BD10B5FDF7BCFC10BD10B5FDF795FB10BD10B50021FDF72EFA10BDC0467047C0467047C0460020704700487047CD
:406A800011001600004870471100160000487047110016000048704711001600004870471100160000487047110016000048704711001600004870471100160000487047A6
:406AC00011001600004870471100160000487047110016007047C04670B5002908D11D4B1B681B689C68E67F00230021002513E0184B1B681B68DC68E67FF5E7E15C0029B8
:406B00000ED00133DBB2E25C083AD2B2012A02D9CB18DBB200E00125B34201D2002DEDD0002D15D0C918C9B20133DBB21A0001E0A55401320E008A4208D2D51A455D002DBC
:406B4000F6D103E0A318002119700132B242F9D370BDC046003B000810B5024800F0E4FE10BDC046B4040008F0B5474680B4071E02D0C368012B03D9354A364B1A6062E0DD
:406B800006684368F0221206944663441D00314B1B68314A93420FD002D8002B16D105E02B4A934202D02D4A93420FD1294BBA685A60002398463FE0264B5B68002B08D105
:406BC0000022244B1A600123984635E00023984632E08268D31AF618ED18002398462BE06B0A5B025B1B80229200944663449C4200D91C00220080235B05E9183000FFF74E
:406C000029FD144B1860830301D50123984636192D19104B5A68141B5C60FB68012B09D1002805D10C4A0B4B1A600123984601E00123984607F0BCF8064B5C68002C02D02C
:406C40004346002BCCD0034B186804BC9046F0BD01001600103B00080100140013001600F0B5ADB05A4B1B78DB070FD505A80723037018F0C3FE041E09D1554A13780121B0
:406C80008B4313709B0702D5524C00E00024002C4DD14F4B1B789B0749D51022002105A802F0DCFF09230793002537E06B004A49C9180222684602F0C8FF6B465B78002B49
:406CC00002D1464AD25C00E00022012A25D9444AD25C012A21D1D800C018424E80190590414B1B681A693C4F6C00E35DD900CB18832149018C466344D318063306930821BF
:406D0000FFF72AFE3C196378DA00D318F618307205A8FFF729FF041E02D10135002DC5D0002C04D12A4A137802218B431370002C4BD1274B1B780C221A4246D01B071ED562
:406D40000432002101A802F089FF05A80190264B1B681B69254A944663440293992303939922002102F07AFF01A8FFF7FDFE041E2BD1174A137808218B43137025E001ACF5
:406D800009220021200002F069FF1022002105A802F064FF0594144B1B681A69144B1B7AD900CB18832149018C466344D318063306930923079305A8FFF7D6FE041E04D1B2
:406DC000034A137804218B43137020002DB0F0BD774B000801001400744B0008804B00087C4B0008844B0008003B000866100000103B000870B5022875D8002975D1002243
:406E0000002306E03C4CE45C012C01D90132D2B20133002BF6D0012A0CD1384B1B681C688A0052189300E3185B681B79023BDBB2012B5CD8324B1B78002B5AD1314B19709E
:406E400000281DD12D4E34688B005B189A0023689D18CB00591A4B006168C918898829822168891849686468E45A0C8031680C68A446624452684968CB185B8853801FE00D
:406E800001281DD11D4D2C688B005B189A0023689E18CB00591A4B006168C91889893182216889184E686168C9180989318029680C68A446624452684968CB185B89538085
:406EC000114B18700D4B1B6818680E4B1B789A00D3189A0080181BF047FF00280AD10122074B1A7006E0094804E0084802E0084800E0084870BDC046804B0008003B000847
:406F0000814B0008764B0008954B00080100160002001600FF00160070B5002907D1154B1B681B689968CE7F002300250FE0114B1B681B68D968CE7FF6E7CA5C002A0AD080
:406F40000133CC5C1B2C01D09B1800E00125B34201D2002DF1D0002D0BD001338279CA54002204E0D4180134855C0D550132052AF8D970BD003B000870B5041E25D0144B31
:406F80001A68136A92695288910089188A00143A9B181A695568197B002301E0EA54013308008B4202D2E25C002AF7D1834202D2EB1800221A7000212000FFF78DFD0121F2
:406FC0002000FFF789FD002000E0024870BDC046003B00080100160070B5050020F0C8F8041E24D1134B19682B899A00D2189300143B0A6A944663445A68920117D5EA7B79
:407000001B695B68C8691B1AD0008018C0180A4BC018AA88296802F018FEEB7B074AD35C012B04D1064A117802230B431370200070BDC046003B0008844B00087C4B000879
:40704000774B000870B586B004000289164B1B685B699B889A4223D101A80300220062CA62C300238381A389C38140230374FFF7B3FF051E0ED123681B789B0705D50B4B97
:407080001B6821000A48984704E0084B1B68210008489847084A137801218B43137000E00025280006B070BD003B0008704B00080500010006000100904B000810B542880C
:4070C000531E9BB2222B1CD84478002C1BD1104B196893009A189300143B0A6A944663445A68920111D51B695868C969411AE3001C19641807496118022202F0A6FD002083
:4071000004E0012002E0012000E0002010BDC046003B0008844B000800B583B00B4B1B78DB0710D400290BD083896A4613800389538012231371517168461FF055F902E0A9
:40714000C0681FF081F903B000BDC046904B000810B5002811D00023002406E09A0011495258904200D1012401330E4A1279934206D2002CF2D0002303E000240A4B00E093
:407180000023002B0CD1002C0AD1064A1279002A05D104499400605001320A7100E0034B180010BD9C4B0008010016000300160070B506000D000020002406E0A200074BFB
:4071C000D3582900300098470134044B1B799C4203D2034B1B78DB07F0D470BD9C4B0008904B00088379002B06D000200AE0C25C002A06D1013300E00023052BF7D900205E
:4072000000E001207047C046F0B5474680B48CB004000D00BA4A117801230B43DBB21370B84B984200D10DE22DD8B74B984200D15AE311D8B54B984200D1E2E003D8013BD5
